{
  "address": "0x10Ce928030E136EcC74d4a4416Db9b533e3c694D",
  "abi": [
    {
      "inputs": [
        {
          "internalType": "string",
          "name": "_nameString",
          "type": "string"
        },
        {
          "internalType": "string",
          "name": "_symbol",
          "type": "string"
        },
        {
          "internalType": "string",
          "name": "_tokenArtIPFSId",
          "type": "string"
        },
        {
          "internalType": "string",
          "name": "_description",
          "type": "string"
        }
      ],
      "stateMutability": "nonpayable",
      "type": "constructor"
    },
    {
      "inputs": [
        {
          "internalType": "address",
          "name": "sender",
          "type": "address"
        },
        {
          "internalType": "uint256",
          "name": "tokenId",
          "type": "uint256"
        },
        {
          "internalType": "address",
          "name": "owner",
          "type": "address"
        }
      ],
      "name": "ERC721IncorrectOwner",
      "type": "error"
    },
    {
      "inputs": [
        {
          "internalType": "address",
          "name": "operator",
          "type": "address"
        },
        {
          "internalType": "uint256",
          "name": "tokenId",
          "type": "uint256"
        }
      ],
      "name": "ERC721InsufficientApproval",
      "type": "error"
    },
    {
      "inputs": [
        {
          "internalType": "address",
          "name": "approver",
          "type": "address"
        }
      ],
      "name": "ERC721InvalidApprover",
      "type": "error"
    },
    {
      "inputs": [
        {
          "internalType": "address",
          "name": "operator",
          "type": "address"
        }
      ],
      "name": "ERC721InvalidOperator",
      "type": "error"
    },
    {
      "inputs": [
        {
          "internalType": "address",
          "name": "owner",
          "type": "address"
        }
      ],
      "name": "ERC721InvalidOwner",
      "type": "error"
    },
    {
      "inputs": [
        {
          "internalType": "address",
          "name": "receiver",
          "type": "address"
        }
      ],
      "name": "ERC721InvalidReceiver",
      "type": "error"
    },
    {
      "inputs": [
        {
          "internalType": "address",
          "name": "sender",
          "type": "address"
        }
      ],
      "name": "ERC721InvalidSender",
      "type": "error"
    },
    {
      "inputs": [
        {
          "internalType": "uint256",
          "name": "tokenId",
          "type": "uint256"
        }
      ],
      "name": "ERC721NonexistentToken",
      "type": "error"
    },
    {
      "inputs": [
        {
          "internalType": "uint256",
          "name": "tokenId",
          "type": "uint256"
        }
      ],
      "name": "InvalidTokenId",
      "type": "error"
    },
    {
      "inputs": [],
      "name": "NotAllowed",
      "type": "error"
    },
    {
      "inputs": [],
      "name": "OneMintPerAddress",
      "type": "error"
    },
    {
      "inputs": [
        {
          "internalType": "address",
          "name": "owner",
          "type": "address"
        }
      ],
      "name": "OwnableInvalidOwner",
      "type": "error"
    },
    {
      "inputs": [
        {
          "internalType": "address",
          "name": "account",
          "type": "address"
        }
      ],
      "name": "OwnableUnauthorizedAccount",
      "type": "error"
    },
    {
      "inputs": [],
      "name": "SoulboundToken",
      "type": "error"
    },
    {
      "anonymous": false,
      "inputs": [
        {
          "indexed": true,
          "internalType": "address",
          "name": "owner",
          "type": "address"
        },
        {
          "indexed": true,
          "internalType": "address",
          "name": "approved",
          "type": "address"
        },
        {
          "indexed": true,
          "internalType": "uint256",
          "name": "tokenId",
          "type": "uint256"
        }
      ],
      "name": "Approval",
      "type": "event"
    },
    {
      "anonymous": false,
      "inputs": [
        {
          "indexed": true,
          "internalType": "address",
          "name": "owner",
          "type": "address"
        },
        {
          "indexed": true,
          "internalType": "address",
          "name": "operator",
          "type": "address"
        },
        {
          "indexed": false,
          "internalType": "bool",
          "name": "approved",
          "type": "bool"
        }
      ],
      "name": "ApprovalForAll",
      "type": "event"
    },
    {
      "anonymous": false,
      "inputs": [
        {
          "indexed": true,
          "internalType": "address",
          "name": "previousOwner",
          "type": "address"
        },
        {
          "indexed": true,
          "internalType": "address",
          "name": "newOwner",
          "type": "address"
        }
      ],
      "name": "OwnershipTransferred",
      "type": "event"
    },
    {
      "anonymous": false,
      "inputs": [
        {
          "indexed": true,
          "internalType": "address",
          "name": "from",
          "type": "address"
        },
        {
          "indexed": true,
          "internalType": "address",
          "name": "to",
          "type": "address"
        },
        {
          "indexed": true,
          "internalType": "uint256",
          "name": "tokenId",
          "type": "uint256"
        }
      ],
      "name": "Transfer",
      "type": "event"
    },
    {
      "inputs": [
        {
          "internalType": "address",
          "name": "_address",
          "type": "address"
        }
      ],
      "name": "addAllowed",
      "outputs": [],
      "stateMutability": "nonpayable",
      "type": "function"
    },
    {
      "inputs": [
        {
          "internalType": "address",
          "name": "to",
          "type": "address"
        },
        {
          "internalType": "uint256",
          "name": "tokenId",
          "type": "uint256"
        }
      ],
      "name": "approve",
      "outputs": [],
      "stateMutability": "nonpayable",
      "type": "function"
    },
    {
      "inputs": [
        {
          "internalType": "address",
          "name": "owner",
          "type": "address"
        }
      ],
      "name": "balanceOf",
      "outputs": [
        {
          "internalType": "uint256",
          "name": "",
          "type": "uint256"
        }
      ],
      "stateMutability": "view",
      "type": "function"
    },
    {
      "inputs": [],
      "name": "counter",
      "outputs": [
        {
          "internalType": "uint256",
          "name": "",
          "type": "uint256"
        }
      ],
      "stateMutability": "view",
      "type": "function"
    },
    {
      "inputs": [],
      "name": "description",
      "outputs": [
        {
          "internalType": "string",
          "name": "",
          "type": "string"
        }
      ],
      "stateMutability": "view",
      "type": "function"
    },
    {
      "inputs": [
        {
          "internalType": "uint256",
          "name": "tokenId",
          "type": "uint256"
        }
      ],
      "name": "getApproved",
      "outputs": [
        {
          "internalType": "address",
          "name": "",
          "type": "address"
        }
      ],
      "stateMutability": "view",
      "type": "function"
    },
    {
      "inputs": [
        {
          "internalType": "address",
          "name": "owner",
          "type": "address"
        },
        {
          "internalType": "address",
          "name": "operator",
          "type": "address"
        }
      ],
      "name": "isApprovedForAll",
      "outputs": [
        {
          "internalType": "bool",
          "name": "",
          "type": "bool"
        }
      ],
      "stateMutability": "view",
      "type": "function"
    },
    {
      "inputs": [
        {
          "internalType": "address",
          "name": "_recipient",
          "type": "address"
        }
      ],
      "name": "mintFor",
      "outputs": [],
      "stateMutability": "nonpayable",
      "type": "function"
    },
    {
      "inputs": [
        {
          "internalType": "address",
          "name": "",
          "type": "address"
        }
      ],
      "name": "minted",
      "outputs": [
        {
          "internalType": "bool",
          "name": "",
          "type": "bool"
        }
      ],
      "stateMutability": "view",
      "type": "function"
    },
    {
      "inputs": [],
      "name": "name",
      "outputs": [
        {
          "internalType": "string",
          "name": "",
          "type": "string"
        }
      ],
      "stateMutability": "view",
      "type": "function"
    },
    {
      "inputs": [],
      "name": "nameString",
      "outputs": [
        {
          "internalType": "string",
          "name": "",
          "type": "string"
        }
      ],
      "stateMutability": "view",
      "type": "function"
    },
    {
      "inputs": [],
      "name": "owner",
      "outputs": [
        {
          "internalType": "address",
          "name": "",
          "type": "address"
        }
      ],
      "stateMutability": "view",
      "type": "function"
    },
    {
      "inputs": [
        {
          "internalType": "uint256",
          "name": "tokenId",
          "type": "uint256"
        }
      ],
      "name": "ownerOf",
      "outputs": [
        {
          "internalType": "address",
          "name": "",
          "type": "address"
        }
      ],
      "stateMutability": "view",
      "type": "function"
    },
    {
      "inputs": [
        {
          "internalType": "address",
          "name": "_address",
          "type": "address"
        }
      ],
      "name": "removeAllowed",
      "outputs": [],
      "stateMutability": "nonpayable",
      "type": "function"
    },
    {
      "inputs": [],
      "name": "renounceOwnership",
      "outputs": [],
      "stateMutability": "nonpayable",
      "type": "function"
    },
    {
      "inputs": [
        {
          "internalType": "address",
          "name": "from",
          "type": "address"
        },
        {
          "internalType": "address",
          "name": "to",
          "type": "address"
        },
        {
          "internalType": "uint256",
          "name": "tokenId",
          "type": "uint256"
        }
      ],
      "name": "safeTransferFrom",
      "outputs": [],
      "stateMutability": "nonpayable",
      "type": "function"
    },
    {
      "inputs": [
        {
          "internalType": "address",
          "name": "from",
          "type": "address"
        },
        {
          "internalType": "address",
          "name": "to",
          "type": "address"
        },
        {
          "internalType": "uint256",
          "name": "tokenId",
          "type": "uint256"
        },
        {
          "internalType": "bytes",
          "name": "data",
          "type": "bytes"
        }
      ],
      "name": "safeTransferFrom",
      "outputs": [],
      "stateMutability": "nonpayable",
      "type": "function"
    },
    {
      "inputs": [
        {
          "internalType": "address",
          "name": "operator",
          "type": "address"
        },
        {
          "internalType": "bool",
          "name": "approved",
          "type": "bool"
        }
      ],
      "name": "setApprovalForAll",
      "outputs": [],
      "stateMutability": "nonpayable",
      "type": "function"
    },
    {
      "inputs": [
        {
          "internalType": "bytes4",
          "name": "interfaceId",
          "type": "bytes4"
        }
      ],
      "name": "supportsInterface",
      "outputs": [
        {
          "internalType": "bool",
          "name": "",
          "type": "bool"
        }
      ],
      "stateMutability": "view",
      "type": "function"
    },
    {
      "inputs": [],
      "name": "symbol",
      "outputs": [
        {
          "internalType": "string",
          "name": "",
          "type": "string"
        }
      ],
      "stateMutability": "view",
      "type": "function"
    },
    {
      "inputs": [],
      "name": "tokenArtIPFSId",
      "outputs": [
        {
          "internalType": "string",
          "name": "",
          "type": "string"
        }
      ],
      "stateMutability": "view",
      "type": "function"
    },
    {
      "inputs": [
        {
          "internalType": "uint256",
          "name": "_tokenId",
          "type": "uint256"
        }
      ],
      "name": "tokenURI",
      "outputs": [
        {
          "internalType": "string",
          "name": "",
          "type": "string"
        }
      ],
      "stateMutability": "view",
      "type": "function"
    },
    {
      "inputs": [
        {
          "internalType": "address",
          "name": "from",
          "type": "address"
        },
        {
          "internalType": "address",
          "name": "to",
          "type": "address"
        },
        {
          "internalType": "uint256",
          "name": "tokenId",
          "type": "uint256"
        }
      ],
      "name": "transferFrom",
      "outputs": [],
      "stateMutability": "nonpayable",
      "type": "function"
    },
    {
      "inputs": [
        {
          "internalType": "address",
          "name": "newOwner",
          "type": "address"
        }
      ],
      "name": "transferOwnership",
      "outputs": [],
      "stateMutability": "nonpayable",
      "type": "function"
    }
  ],
  "transactionHash": "0xdf479845a1092f1db677cab88c111fddb8cfc10be277dfe4417d5e6e93f6e980",
  "args": [
    "Based Berlin 2024",
    "BB24",
    "QmNkVcVYzqDBrpR5k8mSZShWSZwc6LsJfpPVTEhQLLXta6",
    "Base Berlin 2024"
  ],
  "numDeployments": 1,
  "solcInputHash": "bd04b43c46cc5f03bddc6ee0e5f855d7",
  "bytecode": "0x60806040523480156200001157600080fd5b5060405162001d7038038062001d70833981016040819052620000349162000260565b3384846000620000458382620003a8565b506001620000548282620003a8565b5050506001600160a01b0381166200008657604051631e4fbdf760e01b81526000600482015260240160405180910390fd5b6200009181620000d7565b50600a620000a08582620003a8565b50600b620000af8282620003a8565b50600c620000be8382620003a8565b50620000cc60073362000129565b505050505062000474565b600680546001600160a01b038381166001600160a01b0319831681179093556040519116919082907f8be0079c531659141344cd1fd0a4f28419497f9722a3daafe3b4186f6b6457e090600090a35050565b600062000140836001600160a01b03841662000149565b90505b92915050565b6000818152600183016020526040812054620001925750815460018181018455600084815260208082209093018490558454848252828601909352604090209190915562000143565b50600062000143565b634e487b7160e01b600052604160045260246000fd5b600082601f830112620001c357600080fd5b81516001600160401b0380821115620001e057620001e06200019b565b604051601f8301601f19908116603f011681019082821181831017156200020b576200020b6200019b565b816040528381526020925086838588010111156200022857600080fd5b600091505b838210156200024c57858201830151818301840152908201906200022d565b600093810190920192909252949350505050565b600080600080608085870312156200027757600080fd5b84516001600160401b03808211156200028f57600080fd5b6200029d88838901620001b1565b95506020870151915080821115620002b457600080fd5b620002c288838901620001b1565b94506040870151915080821115620002d957600080fd5b620002e788838901620001b1565b93506060870151915080821115620002fe57600080fd5b506200030d87828801620001b1565b91505092959194509250565b600181811c908216806200032e57607f821691505b6020821081036200034f57634e487b7160e01b600052602260045260246000fd5b50919050565b601f821115620003a357600081815260208120601f850160051c810160208610156200037e5750805b601f850160051c820191505b818110156200039f578281556001016200038a565b5050505b505050565b81516001600160401b03811115620003c457620003c46200019b565b620003dc81620003d5845462000319565b8462000355565b602080601f831160018114620004145760008415620003fb5750858301515b600019600386901b1c1916600185901b1785556200039f565b600085815260208120601f198616915b82811015620004455788860151825594840194600190910190840162000424565b5085821015620004645787850151600019600388901b60f8161c191681555b5050505050600190811b01905550565b6118ec80620004846000396000f3fe608060405234801561001057600080fd5b50600436106101585760003560e01c806371e578dc116100c3578063a22cb4651161007c578063a22cb465146102bf578063b88d4fde146102d2578063c87b56dd146102e5578063cb8523c6146102f8578063e985e9c51461030b578063f2fde38b1461031e57600080fd5b806371e578dc1461027b5780637284e4161461028e578063840efffc1461029657806385d9aebd1461029e5780638da5cb5b146102a657806395d89b41146102b757600080fd5b806342842e0e1161011557806342842e0e1461021057806361bc221a146102235780636352211e1461023a5780636470db2f1461024d57806370a0823114610260578063715018a61461027357600080fd5b806301ffc9a71461015d57806306fdde0314610185578063081812fc1461019a578063095ea7b3146101c55780631e7269c5146101da57806323b872dd146101fd575b600080fd5b61017061016b36600461132a565b610331565b60405190151581526020015b60405180910390f35b61018d610383565b60405161017c9190611397565b6101ad6101a83660046113aa565b610415565b6040516001600160a01b03909116815260200161017c565b6101d86101d33660046113df565b61043e565b005b6101706101e8366004611409565b600d6020526000908152604090205460ff1681565b6101d861020b366004611424565b61044d565b6101d861021e366004611424565b6104dd565b61022c60095481565b60405190815260200161017c565b6101ad6102483660046113aa565b6104fd565b6101d861025b366004611409565b610508565b61022c61026e366004611409565b61053b565b6101d8610583565b6101d8610289366004611409565b610597565b61018d61063e565b61018d6106cc565b61018d6106d9565b6006546001600160a01b03166101ad565b61018d6106e6565b6101d86102cd366004611460565b6106f5565b6101d86102e03660046114b2565b610700565b61018d6102f33660046113aa565b610717565b6101d8610306366004611409565b6107dc565b61017061031936600461158e565b61080f565b6101d861032c366004611409565b61083d565b60006001600160e01b031982166380ac58cd60e01b148061036257506001600160e01b03198216635b5e139f60e01b145b8061037d57506301ffc9a760e01b6001600160e01b03198316145b92915050565b606060008054610392906115c1565b80601f01602080910402602001604051908101604052809291908181526020018280546103be906115c1565b801561040b5780601f106103e05761010080835404028352916020019161040b565b820191906000526020600020905b8154815290600101906020018083116103ee57829003601f168201915b5050505050905090565b600061042082610878565b506000828152600460205260409020546001600160a01b031661037d565b6104498282336108b1565b5050565b6001600160a01b03821661047c57604051633250574960e11b8152600060048201526024015b60405180910390fd5b60006104898383336108be565b9050836001600160a01b0316816001600160a01b0316146104d7576040516364283d7b60e01b81526001600160a01b0380861660048301526024820184905282166044820152606401610473565b50505050565b6104f883838360405180602001604052806000815250610700565b505050565b600061037d82610878565b61051360073361091f565b61053057604051631eb49d6d60e11b815260040160405180910390fd5b610449600782610944565b60006001600160a01b038216610567576040516322718ad960e21b815260006004820152602401610473565b506001600160a01b031660009081526003602052604090205490565b61058b610959565b6105956000610986565b565b6105a260073361091f565b6105bf57604051631eb49d6d60e11b815260040160405180910390fd5b6001600160a01b0381166000908152600d602052604090205460ff16156105f9576040516317b5615760e01b815260040160405180910390fd5b6001600160a01b0381166000908152600d60205260408120805460ff19166001179055600980549161062a83611611565b919050555061063b816009546109d8565b50565b600b805461064b906115c1565b80601f0160208091040260200160405190810160405280929190818152602001828054610677906115c1565b80156106c45780601f10610699576101008083540402835291602001916106c4565b820191906000526020600020905b8154815290600101906020018083116106a757829003601f168201915b505050505081565b600a805461064b906115c1565b600c805461064b906115c1565b606060018054610392906115c1565b6104493383836109f2565b61070b84848461044d565b6104d784848484610a91565b606060095482111561073f5760405163ed15e6cf60e01b815260048101839052602401610473565b6000610777600a61074f85610bba565b600c604051602001610763939291906116c7565b604051602081830303815290604052610c4d565b90506107b360408051808201909152601d81527f646174613a6170706c69636174696f6e2f6a736f6e3b6261736536342c000000602082015290565b816040516020016107c5929190611762565b604051602081830303815290604052915050919050565b6107e760073361091f565b61080457604051631eb49d6d60e11b815260040160405180910390fd5b610449600782610da0565b6001600160a01b03918216600090815260056020908152604080832093909416825291909152205460ff1690565b610845610959565b6001600160a01b03811661086f57604051631e4fbdf760e01b815260006004820152602401610473565b61063b81610986565b6000818152600260205260408120546001600160a01b03168061037d57604051637e27328960e01b815260048101849052602401610473565b6104f88383836001610db5565b6000828152600260205260408120546001600160a01b031680158015906108ed57506001600160a01b03851615155b1561090b57604051636e10574960e01b815260040160405180910390fd5b610916858585610ebb565b95945050505050565b6001600160a01b038116600090815260018301602052604081205415155b9392505050565b600061093d836001600160a01b038416610fb4565b6006546001600160a01b031633146105955760405163118cdaa760e01b8152336004820152602401610473565b600680546001600160a01b038381166001600160a01b0319831681179093556040519116919082907f8be0079c531659141344cd1fd0a4f28419497f9722a3daafe3b4186f6b6457e090600090a35050565b6104498282604051806020016040528060008152506110a7565b6001600160a01b038216610a2457604051630b61174360e31b81526001600160a01b0383166004820152602401610473565b6001600160a01b03838116600081815260056020908152604080832094871680845294825291829020805460ff191686151590811790915591519182527f17307eab39ab6107e8899845ad3d59bd9653f200f220920489ca2b5937696c31910160405180910390a3505050565b6001600160a01b0383163b156104d757604051630a85bd0160e11b81526001600160a01b0384169063150b7a0290610ad3903390889087908790600401611791565b6020604051808303816000875af1925050508015610b0e575060408051601f3d908101601f19168201909252610b0b918101906117ce565b60015b610b77573d808015610b3c576040519150601f19603f3d011682016040523d82523d6000602084013e610b41565b606091505b508051600003610b6f57604051633250574960e11b81526001600160a01b0385166004820152602401610473565b805181602001fd5b6001600160e01b03198116630a85bd0160e11b14610bb357604051633250574960e11b81526001600160a01b0385166004820152602401610473565b5050505050565b60606000610bc7836110be565b600101905060008167ffffffffffffffff811115610be757610be761149c565b6040519080825280601f01601f191660200182016040528015610c11576020820181803683370190505b5090508181016020015b600019016f181899199a1a9b1b9c1cb0b131b232b360811b600a86061a8153600a8504945084610c1b57509392505050565b60608151600003610c6c57505060408051602081019091526000815290565b60006040518060600160405280604081526020016118776040913990506000600384516002610c9b91906117eb565b610ca591906117fe565b610cb0906004611820565b67ffffffffffffffff811115610cc857610cc861149c565b6040519080825280601f01601f191660200182016040528015610cf2576020820181803683370190505b509050600182016020820185865187015b80821015610d5e576003820191508151603f8160121c168501518453600184019350603f81600c1c168501518453600184019350603f8160061c168501518453600184019350603f8116850151845350600183019250610d03565b5050600386510660018114610d7a5760028114610d8d57610d95565b603d6001830353603d6002830353610d95565b603d60018303535b509195945050505050565b600061093d836001600160a01b038416611196565b8080610dc957506001600160a01b03821615155b15610e8b576000610dd984610878565b90506001600160a01b03831615801590610e055750826001600160a01b0316816001600160a01b031614155b8015610e185750610e16818461080f565b155b15610e415760405163a9fbf51f60e01b81526001600160a01b0384166004820152602401610473565b8115610e895783856001600160a01b0316826001600160a01b03167f8c5be1e5ebec7d5bd14f71427d1e84f3dd0314c0f7b2291e5b200ac8c7c3b92560405160405180910390a45b505b5050600090815260046020526040902080546001600160a01b0319166001600160a01b0392909216919091179055565b6000828152600260205260408120546001600160a01b0390811690831615610ee857610ee88184866111e5565b6001600160a01b03811615610f2657610f05600085600080610db5565b6001600160a01b038116600090815260036020526040902080546000190190555b6001600160a01b03851615610f55576001600160a01b0385166000908152600360205260409020805460010190555b60008481526002602052604080822080546001600160a01b0319166001600160a01b0389811691821790925591518793918516917fddf252ad1be2c89b69c2b068fc378daa952ba7f163c4a11628f55a4df523b3ef91a4949350505050565b6000818152600183016020526040812054801561109d576000610fd8600183611837565b8554909150600090610fec90600190611837565b905080821461105157600086600001828154811061100c5761100c61184a565b906000526020600020015490508087600001848154811061102f5761102f61184a565b6000918252602080832090910192909255918252600188019052604090208390555b855486908061106257611062611860565b60019003818190600052602060002001600090559055856001016000868152602001908152602001600020600090556001935050505061037d565b600091505061037d565b6110b18383611249565b6104f86000848484610a91565b60008072184f03e93ff9f4daa797ed6e38ed64bf6a1f0160401b83106110fd5772184f03e93ff9f4daa797ed6e38ed64bf6a1f0160401b830492506040015b6d04ee2d6d415b85acef81000000008310611129576d04ee2d6d415b85acef8100000000830492506020015b662386f26fc10000831061114757662386f26fc10000830492506010015b6305f5e100831061115f576305f5e100830492506008015b612710831061117357612710830492506004015b60648310611185576064830492506002015b600a831061037d5760010192915050565b60008181526001830160205260408120546111dd5750815460018181018455600084815260208082209093018490558454848252828601909352604090209190915561037d565b50600061037d565b6111f08383836112ae565b6104f8576001600160a01b03831661121e57604051637e27328960e01b815260048101829052602401610473565b60405163177e802f60e01b81526001600160a01b038316600482015260248101829052604401610473565b6001600160a01b03821661127357604051633250574960e11b815260006004820152602401610473565b6000611281838360006108be565b90506001600160a01b038116156104f8576040516339e3563760e11b815260006004820152602401610473565b60006001600160a01b0383161580159061130c5750826001600160a01b0316846001600160a01b031614806112e857506112e8848461080f565b8061130c57506000828152600460205260409020546001600160a01b038481169116145b949350505050565b6001600160e01b03198116811461063b57600080fd5b60006020828403121561133c57600080fd5b813561093d81611314565b60005b8381101561136257818101518382015260200161134a565b50506000910152565b60008151808452611383816020860160208601611347565b601f01601f19169290920160200192915050565b60208152600061093d602083018461136b565b6000602082840312156113bc57600080fd5b5035919050565b80356001600160a01b03811681146113da57600080fd5b919050565b600080604083850312156113f257600080fd5b6113fb836113c3565b946020939093013593505050565b60006020828403121561141b57600080fd5b61093d826113c3565b60008060006060848603121561143957600080fd5b611442846113c3565b9250611450602085016113c3565b9150604084013590509250925092565b6000806040838503121561147357600080fd5b61147c836113c3565b91506020830135801515811461149157600080fd5b809150509250929050565b634e487b7160e01b600052604160045260246000fd5b600080600080608085870312156114c857600080fd5b6114d1856113c3565b93506114df602086016113c3565b925060408501359150606085013567ffffffffffffffff8082111561150357600080fd5b818701915087601f83011261151757600080fd5b8135818111156115295761152961149c565b604051601f8201601f19908116603f011681019083821181831017156115515761155161149c565b816040528281528a602084870101111561156a57600080fd5b82602086016020830137600060208483010152809550505050505092959194509250565b600080604083850312156115a157600080fd5b6115aa836113c3565b91506115b8602084016113c3565b90509250929050565b600181811c908216806115d557607f821691505b6020821081036115f557634e487b7160e01b600052602260045260246000fd5b50919050565b634e487b7160e01b600052601160045260246000fd5b600060018201611623576116236115fb565b5060010190565b8054600090600181811c908083168061164457607f831692505b6020808410820361166557634e487b7160e01b600052602260045260246000fd5b818015611679576001811461168e576116bb565b60ff19861689528415158502890196506116bb565b60008881526020902060005b868110156116b35781548b82015290850190830161169a565b505084890196505b50505050505092915050565b693d913730b6b2911d101160b11b815260006116e6600a83018661162a565b63010119d160e51b81528451611703816004840160208901611347565b711116113232b9b1b934b83a34b7b7111d101160711b6004929091019182015273222c2022696d616765223a2022697066733a2f2f60601b601682015261174d602a82018561162a565b61227d60f01b81526002019695505050505050565b60008351611774818460208801611347565b835190830190611788818360208801611347565b01949350505050565b6001600160a01b03858116825284166020820152604081018390526080606082018190526000906117c49083018461136b565b9695505050505050565b6000602082840312156117e057600080fd5b815161093d81611314565b8082018082111561037d5761037d6115fb565b60008261181b57634e487b7160e01b600052601260045260246000fd5b500490565b808202811582820484141761037d5761037d6115fb565b8181038181111561037d5761037d6115fb565b634e487b7160e01b600052603260045260246000fd5b634e487b7160e01b600052603160045260246000fdfe4142434445464748494a4b4c4d4e4f505152535455565758595a6162636465666768696a6b6c6d6e6f707172737475767778797a303132333435363738392b2fa26469706673582212209120b76cf80bc539adcdb624f558a35cce319be29ef2e8dd0c5494672ddb862f64736f6c63430008140033",
  "devdoc": {
    "errors": {
      "ERC721IncorrectOwner(address,uint256,address)": [
        {
          "details": "Indicates an error related to the ownership over a particular token. Used in transfers.",
          "params": {
            "owner": "Address of the current owner of a token.",
            "sender": "Address whose tokens are being transferred.",
            "tokenId": "Identifier number of a token."
          }
        }
      ],
      "ERC721InsufficientApproval(address,uint256)": [
        {
          "details": "Indicates a failure with the `operator`s approval. Used in transfers.",
          "params": {
            "operator": "Address that may be allowed to operate on tokens without being their owner.",
            "tokenId": "Identifier number of a token."
          }
        }
      ],
      "ERC721InvalidApprover(address)": [
        {
          "details": "Indicates a failure with the `approver` of a token to be approved. Used in approvals.",
          "params": {
            "approver": "Address initiating an approval operation."
          }
        }
      ],
      "ERC721InvalidOperator(address)": [
        {
          "details": "Indicates a failure with the `operator` to be approved. Used in approvals.",
          "params": {
            "operator": "Address that may be allowed to operate on tokens without being their owner."
          }
        }
      ],
      "ERC721InvalidOwner(address)": [
        {
          "details": "Indicates that an address can't be an owner. For example, `address(0)` is a forbidden owner in EIP-20. Used in balance queries.",
          "params": {
            "owner": "Address of the current owner of a token."
          }
        }
      ],
      "ERC721InvalidReceiver(address)": [
        {
          "details": "Indicates a failure with the token `receiver`. Used in transfers.",
          "params": {
            "receiver": "Address to which tokens are being transferred."
          }
        }
      ],
      "ERC721InvalidSender(address)": [
        {
          "details": "Indicates a failure with the token `sender`. Used in transfers.",
          "params": {
            "sender": "Address whose tokens are being transferred."
          }
        }
      ],
      "ERC721NonexistentToken(uint256)": [
        {
          "details": "Indicates a `tokenId` whose `owner` is the zero address.",
          "params": {
            "tokenId": "Identifier number of a token."
          }
        }
      ],
      "OwnableInvalidOwner(address)": [
        {
          "details": "The owner is not a valid owner account. (eg. `address(0)`)"
        }
      ],
      "OwnableUnauthorizedAccount(address)": [
        {
          "details": "The caller account is not authorized to perform an operation."
        }
      ]
    },
    "events": {
      "Approval(address,address,uint256)": {
        "details": "Emitted when `owner` enables `approved` to manage the `tokenId` token."
      },
      "ApprovalForAll(address,address,bool)": {
        "details": "Emitted when `owner` enables or disables (`approved`) `operator` to manage all of its assets."
      },
      "Transfer(address,address,uint256)": {
        "details": "Emitted when `tokenId` token is transferred from `from` to `to`."
      }
    },
    "kind": "dev",
    "methods": {
      "approve(address,uint256)": {
        "details": "See {IERC721-approve}."
      },
      "balanceOf(address)": {
        "details": "See {IERC721-balanceOf}."
      },
      "getApproved(uint256)": {
        "details": "See {IERC721-getApproved}."
      },
      "isApprovedForAll(address,address)": {
        "details": "See {IERC721-isApprovedForAll}."
      },
      "name()": {
        "details": "See {IERC721Metadata-name}."
      },
      "owner()": {
        "details": "Returns the address of the current owner."
      },
      "ownerOf(uint256)": {
        "details": "See {IERC721-ownerOf}."
      },
      "renounceOwnership()": {
        "details": "Leaves the contract without owner. It will not be possible to call `onlyOwner` functions. Can only be called by the current owner. NOTE: Renouncing ownership will leave the contract without an owner, thereby disabling any functionality that is only available to the owner."
      },
      "safeTransferFrom(address,address,uint256)": {
        "details": "See {IERC721-safeTransferFrom}."
      },
      "safeTransferFrom(address,address,uint256,bytes)": {
        "details": "See {IERC721-safeTransferFrom}."
      },
      "setApprovalForAll(address,bool)": {
        "details": "See {IERC721-setApprovalForAll}."
      },
      "supportsInterface(bytes4)": {
        "details": "See {IERC165-supportsInterface}."
      },
      "symbol()": {
        "details": "See {IERC721Metadata-symbol}."
      },
      "transferFrom(address,address,uint256)": {
        "details": "See {IERC721-transferFrom}."
      },
      "transferOwnership(address)": {
        "details": "Transfers ownership of the contract to a new account (`newOwner`). Can only be called by the current owner."
      }
    },
    "version": 1
  },
  "userdoc": {
    "kind": "user",
    "methods": {},
    "version": 1
  },
  "storageLayout": {
    "storage": [
      {
        "astId": 317,
        "contract": "contracts/HackathonMinter.sol:HackathonMinter",
        "label": "_name",
        "offset": 0,
        "slot": "0",
        "type": "t_string_storage"
      },
      {
        "astId": 319,
        "contract": "contracts/HackathonMinter.sol:HackathonMinter",
        "label": "_symbol",
        "offset": 0,
        "slot": "1",
        "type": "t_string_storage"
      },
      {
        "astId": 323,
        "contract": "contracts/HackathonMinter.sol:HackathonMinter",
        "label": "_owners",
        "offset": 0,
        "slot": "2",
        "type": "t_mapping(t_uint256,t_address)"
      },
      {
        "astId": 327,
        "contract": "contracts/HackathonMinter.sol:HackathonMinter",
        "label": "_balances",
        "offset": 0,
        "slot": "3",
        "type": "t_mapping(t_address,t_uint256)"
      },
      {
        "astId": 331,
        "contract": "contracts/HackathonMinter.sol:HackathonMinter",
        "label": "_tokenApprovals",
        "offset": 0,
        "slot": "4",
        "type": "t_mapping(t_uint256,t_address)"
      },
      {
        "astId": 337,
        "contract": "contracts/HackathonMinter.sol:HackathonMinter",
        "label": "_operatorApprovals",
        "offset": 0,
        "slot": "5",
        "type": "t_mapping(t_address,t_mapping(t_address,t_bool))"
      },
      {
        "astId": 8,
        "contract": "contracts/HackathonMinter.sol:HackathonMinter",
        "label": "_owner",
        "offset": 0,
        "slot": "6",
        "type": "t_address"
      },
      {
        "astId": 3615,
        "contract": "contracts/HackathonMinter.sol:HackathonMinter",
        "label": "allowed",
        "offset": 0,
        "slot": "7",
        "type": "t_struct(AddressSet)3309_storage"
      },
      {
        "astId": 3617,
        "contract": "contracts/HackathonMinter.sol:HackathonMinter",
        "label": "counter",
        "offset": 0,
        "slot": "9",
        "type": "t_uint256"
      },
      {
        "astId": 3619,
        "contract": "contracts/HackathonMinter.sol:HackathonMinter",
        "label": "nameString",
        "offset": 0,
        "slot": "10",
        "type": "t_string_storage"
      },
      {
        "astId": 3621,
        "contract": "contracts/HackathonMinter.sol:HackathonMinter",
        "label": "description",
        "offset": 0,
        "slot": "11",
        "type": "t_string_storage"
      },
      {
        "astId": 3623,
        "contract": "contracts/HackathonMinter.sol:HackathonMinter",
        "label": "tokenArtIPFSId",
        "offset": 0,
        "slot": "12",
        "type": "t_string_storage"
      },
      {
        "astId": 3627,
        "contract": "contracts/HackathonMinter.sol:HackathonMinter",
        "label": "minted",
        "offset": 0,
        "slot": "13",
        "type": "t_mapping(t_address,t_bool)"
      }
    ],
    "types": {
      "t_address": {
        "encoding": "inplace",
        "label": "address",
        "numberOfBytes": "20"
      },
      "t_array(t_bytes32)dyn_storage": {
        "base": "t_bytes32",
        "encoding": "dynamic_array",
        "label": "bytes32[]",
        "numberOfBytes": "32"
      },
      "t_bool": {
        "encoding": "inplace",
        "label": "bool",
        "numberOfBytes": "1"
      },
      "t_bytes32": {
        "encoding": "inplace",
        "label": "bytes32",
        "numberOfBytes": "32"
      },
      "t_mapping(t_address,t_bool)": {
        "encoding": "mapping",
        "key": "t_address",
        "label": "mapping(address => bool)",
        "numberOfBytes": "32",
        "value": "t_bool"
      },
      "t_mapping(t_address,t_mapping(t_address,t_bool))": {
        "encoding": "mapping",
        "key": "t_address",
        "label": "mapping(address => mapping(address => bool))",
        "numberOfBytes": "32",
        "value": "t_mapping(t_address,t_bool)"
      },
      "t_mapping(t_address,t_uint256)": {
        "encoding": "mapping",
        "key": "t_address",
        "label": "mapping(address => uint256)",
        "numberOfBytes": "32",
        "value": "t_uint256"
      },
      "t_mapping(t_bytes32,t_uint256)": {
        "encoding": "mapping",
        "key": "t_bytes32",
        "label": "mapping(bytes32 => uint256)",
        "numberOfBytes": "32",
        "value": "t_uint256"
      },
      "t_mapping(t_uint256,t_address)": {
        "encoding": "mapping",
        "key": "t_uint256",
        "label": "mapping(uint256 => address)",
        "numberOfBytes": "32",
        "value": "t_address"
      },
      "t_string_storage": {
        "encoding": "bytes",
        "label": "string",
        "numberOfBytes": "32"
      },
      "t_struct(AddressSet)3309_storage": {
        "encoding": "inplace",
        "label": "struct EnumerableSet.AddressSet",
        "members": [
          {
            "astId": 3308,
            "contract": "contracts/HackathonMinter.sol:HackathonMinter",
            "label": "_inner",
            "offset": 0,
            "slot": "0",
            "type": "t_struct(Set)2994_storage"
          }
        ],
        "numberOfBytes": "64"
      },
      "t_struct(Set)2994_storage": {
        "encoding": "inplace",
        "label": "struct EnumerableSet.Set",
        "members": [
          {
            "astId": 2989,
            "contract": "contracts/HackathonMinter.sol:HackathonMinter",
            "label": "_values",
            "offset": 0,
            "slot": "0",
            "type": "t_array(t_bytes32)dyn_storage"
          },
          {
            "astId": 2993,
            "contract": "contracts/HackathonMinter.sol:HackathonMinter",
            "label": "_positions",
            "offset": 0,
            "slot": "1",
            "type": "t_mapping(t_bytes32,t_uint256)"
          }
        ],
        "numberOfBytes": "64"
      },
      "t_uint256": {
        "encoding": "inplace",
        "label": "uint256",
        "numberOfBytes": "32"
      }
    }
  }
}