{
  "address": "0x705EDDB97C29cCA17e6C1EFbe561D07B9C941705",
  "abi": [
    {
      "inputs": [
        {
          "internalType": "uint256",
          "name": "_tokenId",
          "type": "uint256"
        }
      ],
      "name": "render",
      "outputs": [
        {
          "internalType": "string",
          "name": "",
          "type": "string"
        }
      ],
      "stateMutability": "pure",
      "type": "function"
    },
    {
      "inputs": [
        {
          "internalType": "uint256",
          "name": "_tokenId",
          "type": "uint256"
        },
        {
          "internalType": "uint256",
          "name": "_cloudNumber",
          "type": "uint256"
        }
      ],
      "name": "renderCloud",
      "outputs": [
        {
          "internalType": "string",
          "name": "",
          "type": "string"
        }
      ],
      "stateMutability": "pure",
      "type": "function"
    }
  ],
  "transactionHash": "0xb5222be9166c9cd4696ca3521e9f4be6095d0d00d8d8d01a9482e02ed5a31631",
  "args": [],
  "numDeployments": 1,
  "solcInputHash": "3c1ac1253e82eb65cb563e1effcd5f60",
  "bytecode": "0x608060405234801561001057600080fd5b50611b8b806100206000396000f3fe608060405234801561001057600080fd5b50600436106100365760003560e01c8063c321118c1461003b578063e0b0ea7f14610064575b600080fd5b61004e6100493660046104bb565b610077565b60405161005b91906104f8565b60405180910390f35b61004e61007236600461052b565b6101de565b60606000610086836007610563565b60405160200161009891815260200190565b60408051601f198184030181529190528051602090910120905060006100bf600883610576565b905060008167ffffffffffffffff8111156100dc576100dc610598565b60405190808252806020026020018201604052801561010f57816020015b60608152602001906001900390816100fa5790505b50905060005b828110156101765761012786826101de565b60405160200161013791906105ae565b604051602081830303815290604052828281518110610158576101586105ca565b6020026020010181905250808061016e906105e0565b915050610115565b50606060005b838110156101d45781838281518110610197576101976105ca565b60200260200101516040516020016101b09291906105f9565b604051602081830303815290604052915080806101cc906105e0565b91505061017c565b5095945050505050565b6060600083836040516020016101fe929190918252602082015260400190565b60408051601f1981840301815291905280516020909101209050806000610226866001610563565b60408051602081019290925281018690526060810183905260800160408051601f19818403018152919052805160209091012090508061026b60c719610401856102c4565b61027a606319610200846102c4565b6040518061142001604052806113fb815260200161075b6113fb91396040516020016102a893929190610628565b6040516020818303038152906040529450505050505b92915050565b606060006102d285856106b2565b6102dc9084610576565b905060006102ea82876106d9565b905060008112610325576102fd81610350565b60405160200161030d91906105ae565b60405160208183030381529060405292505050610349565b61033961033482600019610701565b610350565b60405160200161030d9190610731565b9392505050565b6060600061035d836103e3565b600101905060008167ffffffffffffffff81111561037d5761037d610598565b6040519080825280601f01601f1916602001820160405280156103a7576020820181803683370190505b5090508181016020015b600019016f181899199a1a9b1b9c1cb0b131b232b360811b600a86061a8153600a85049450846103b157509392505050565b60008072184f03e93ff9f4daa797ed6e38ed64bf6a1f0160401b83106104225772184f03e93ff9f4daa797ed6e38ed64bf6a1f0160401b830492506040015b6d04ee2d6d415b85acef8100000000831061044e576d04ee2d6d415b85acef8100000000830492506020015b662386f26fc10000831061046c57662386f26fc10000830492506010015b6305f5e1008310610484576305f5e100830492506008015b612710831061049857612710830492506004015b606483106104aa576064830492506002015b600a83106102be5760010192915050565b6000602082840312156104cd57600080fd5b5035919050565b60005b838110156104ef5781810151838201526020016104d7565b50506000910152565b60208152600082518060208401526105178160408501602087016104d4565b601f01601f19169190910160400192915050565b6000806040838503121561053e57600080fd5b50508035926020909101359150565b634e487b7160e01b600052601160045260246000fd5b808201808211156102be576102be61054d565b60008261059357634e487b7160e01b600052601260045260246000fd5b500690565b634e487b7160e01b600052604160045260246000fd5b600082516105c08184602087016104d4565b9190910192915050565b634e487b7160e01b600052603260045260246000fd5b6000600182016105f2576105f261054d565b5060010190565b6000835161060b8184602088016104d4565b83519083019061061f8183602088016104d4565b01949350505050565b7f3c67207472616e73666f726d3d227472616e736c6174652800000000000000008152600084516106608160188501602089016104d4565b600b60fa1b60189184019182015284516106818160198401602089016104d4565b6214911f60e91b6019929091019182015283516106a581601c8401602088016104d4565b01601c0195945050505050565b81810360008312801583831316838312821617156106d2576106d261054d565b5092915050565b80820182811260008312801582168215821617156106f9576106f961054d565b505092915050565b80820260008212600160ff1b8414161561071d5761071d61054d565b81810583148215176102be576102be61054d565b602d60f81b81526000825161074d8160018501602087016104d4565b919091016001019291505056fe3c646566733e203c7374796c653e2e636c732d636c6f75642d317b66696c6c3a2075726c28236c696e6561722d6772616469656e742d636c6f7564293b7d2e636c732d636c6f75642d312c202e636c732d636c6f75642d322c202e636c732d636c6f75642d332c202e636c732d636c6f75642d342c202e636c732d636c6f75642d352c202e636c732d636c6f75642d362c202e636c732d636c6f75642d372c202e636c732d636c6f75642d382c202e636c732d636c6f75642d397b7374726f6b652d77696474683a203070783b7d2e636c732d636c6f75642d327b66696c6c3a2075726c28236c696e6561722d6772616469656e742d636c6f75642d32293b7d2e636c732d636c6f75642d337b66696c6c3a20233739356233633b7d2e636c732d636c6f75642d347b66696c6c3a20233738346232643b7d2e636c732d636c6f75642d357b66696c6c3a20233539326232353b7d2e636c732d636c6f75642d367b66696c6c3a20236139366433633b7d2e636c732d636c6f75642d377b66696c6c3a20236462633037353b7d2e636c732d636c6f75642d387b66696c6c3a20236231383634393b7d2e636c732d636c6f75642d397b66696c6c3a20236239616233393b7d3c2f7374796c653e203c6c696e6561724772616469656e742069643d226c696e6561722d6772616469656e742d636c6f7564222078313d2236352e3037222079313d2234362e3338222078323d2234372e3232222079323d223130322e393422206772616469656e74556e6974733d227573657253706163654f6e557365223e203c73746f70206f66667365743d2230222073746f702d636f6c6f723d2223613564646431222f3e203c73746f70206f66667365743d222e3436222073746f702d636f6c6f723d2223336661306131222f3e203c73746f70206f66667365743d2231222073746f702d636f6c6f723d2223316234633564222f3e203c2f6c696e6561724772616469656e743e203c6c696e6561724772616469656e742069643d226c696e6561722d6772616469656e742d636c6f75642d32222078313d223131372e3339222079313d2232322e3337222078323d2238342e3234222079323d2238302e363822206772616469656e74556e6974733d227573657253706163654f6e557365223e203c73746f70206f66667365743d2230222073746f702d636f6c6f723d2223663266326432222f3e203c73746f70206f66667365743d222e3539222073746f702d636f6c6f723d2223363862626237222f3e203c73746f70206f66667365743d2231222073746f702d636f6c6f723d2223323336663762222f3e203c2f6c696e6561724772616469656e743e203c2f646566733e203c673e203c673e203c7061746820636c6173733d22636c732d636c6f75642d372220643d224d3135302e382c34382e323563322e30382c312e31392c352e31392c342e32382c372e31342c352e392e37352c312e34392c322e332c332e30372c332e34322c342e33352c312e31342c342e30362c342e34342c372e36382c342e33352c31352e35332d2e30392c362e39362d342e30352c31352e32392d392e33322c31392e38382d2e36382e35392d322e30372c312e37322d322e37392c322e31372d312e36392c312e30362d332e34312c312e35362d352e32382c322e31376c2d2e36322d2e363263362e32332d312e36392c31312e38332d362e39392c31342e32392d31322e38392c342e30332d392e372c322e39382d31392e31372d332e37332d32372e33332d342e38312d352e38352d31352e36372d31332e33382d32332e31342d392e31362c342e36392d31332e34392d362e32372d32392e31362d32302e36352d32382e3236762d312e38366331342e32332d2e35392c32352e38332c31322e39392c32332e34352c32372e30322c342e352d2e31342c382e39372e38382c31322e38392c332e31315a222f3e203c7061746820636c6173733d22636c732d636c6f75642d392220643d224d3134372e372c39372e36336c2e36322e3632632d322e35322e38332d322e36342c312e32312d322e37392c312e32342d2e35332e312d312e32382d2e30382d312e38362c302d332e33342e34362d342e38372e32322d372e37362e33312d342e36352e31342d392e33322d2e30352d31332e39372c302d32342e30312e32352d34382e30342d2e30362d37322e30352c302d352e33382e30312d31302e37382d2e32312d31362e31352e33312d332e39372d2e31342d372e38332d2e34342d31312e382c302d2e37342e31342d312e362d2e35312d322e31372d2e36322d2e31372d2e30332d2e33372d2e31382d2e39332d2e33316c2e39332d2e393363362e31322e36372c36372e33362e30332c38302e34332c302c392e35362d2e30322c33372e33392e36372c34312e37372e33312c312e38322d2e31352c332e39382d2e34352c352e37352d2e39335a222f3e203c7061746820636c6173733d22636c732d636c6f75642d342220643d224d35392e352c332e3533632d31372e39342c352e33362d33312e31362c32352e31392d32322e33362c34332e31372d322e31312d312e31332d362d322e33362d382e33382d322e34382d2e30332d2e35362d2e372d2e31332d2e39332d2e34372d2e30392d2e31332e37322d2e312e36322d2e34372c312e37342e30372c332e32382e34382c342e39372e37382e35342d2e39372d342e30362d382e382c312e35352d32312e35382c322e39312d362e36332c382e37312d31322e37312c31342e39312d31362e34362d312e352c332e30362c342e36392d322e34322c392e36332d322e34385a222f3e203c673e203c7061746820636c6173733d22636c732d636c6f75642d312220643d224d35332e39312c34302e343963382e32372d2e38352c31322e33322c352e32392c31322e37332c31322e37332d312e342c322e38382c312e37362d2e38382c352e32382d2e39332c372e382d2e31322c372e39332c372e38312c382e35342c382e30372c31302e34372d2e32342c392e34352c392e37322c31302e32352c392e39342c312e34342d2e38392c342e39372e32372c362e32312c312e32342c342e30312c332e31332c312e39322c31302e34392c342e38312c352e392c312e32322e36382c332e33372e37342c342e39372c332e35372c332e34392c362e322d2e37392c31342e332d362e39392c31362e39336c2e34372e3331632d31332e30372e30332d37342e33312e36372d38302e34332c302d382e32372d2e392d31362e35362d372e35332d31382e39342d31352e35332d312e382d362e30332d2e36392d31312e35362c342e33352d31352e35336c2e36322d2e3136632d2e38342d31332e30312c31302e30352d32332e352c32322e39382d32322e38332c322e33382e31322c362e32372c312e33352c382e33382c322e34382c312e30342e35362c322e33332c312e34342c332e32362c322e31372c352e35322c342e33342c342e36382c382e332c342e38312c322e37392e31332d352e35332c322e34352d31302e35342c382e372d31312e31385a222f3e203c7061746820636c6173733d22636c732d636c6f75642d332220643d224d32382e34342c34332e3239632e312e33372d2e37312e33332d2e36322e34372e32332e33342e392d2e30392e39332e34372d31322e39332d2e36382d32332e38322c392e38322d32322e39382c32322e38336c2d2e36322e3136632d2e36392d342e31312d2e33312d372e30342c312e32342d31302e38372e31372d2e34322e34322d2e38332e36322d312e32342e39312d312e38312c332e31372d342e38372c342e36362d362e32312c322e32322d322c362e342d342e32352c392e33322d342e39372c322e36372d2e36362c342e37332d2e37332c372e34352d2e36325a222f3e203c7061746820636c6173733d22636c732d636c6f75642d372220643d224d3130312e37332c37372e3435632d322e392c342e35392d2e382d322e37372d342e38312d352e392d312e32342d2e39372d342e37372d322e31332d362e32312d312e32342d2e37392d2e32312e32322d31302e31372d31302e32352d392e39342d2e36312d2e32372d2e37342d382e31392d382e35342d382e3037762d312e353563352e32332d2e31332c392e32382c322e37372c392e33322c382e32332e36332e35392c382e39342d2e33352c31302e32352c392e33322c342e38332d2e322c392e32352c342e31332c392e33322c392e30312e322e33332e37362e30362e39332e31365a222f3e203c7061746820636c6173733d22636c732d636c6f75642d372220643d224d36372e35372c35312e3637632d2e31362c312e31352d2e38392c312e34372d2e39332c312e35352d2e34322d372e34352d342e34362d31332e35382d31322e37332d31322e37336c2d2e33312d312e32346331302e30362d2e39392c31342e36312c372e37352c31332e39372c31322e34325a222f3e203c7061746820636c6173733d22636c732d636c6f75642d342220643d224d35332e362c33392e32356c2e33312c312e3234632d362e32352e36342d382e35362c352e36352d382e372c31312e31382d2e38372e34312d2e37382d342e35362d2e36322d352e34332e36392d332e37392c352e34312d362e36332c392e30312d362e39395a222f3e203c7061746820636c6173733d22636c732d636c6f75642d382220643d224d37312e39322c35302e373476312e3535632d332e35322e30352d362e36382c332e38312d352e32382e39332e30342d2e30382e37372d2e34312e39332d312e35352c322e31352d312e31362c322e38342d2e392c342e33352d2e39335a222f3e203c2f673e203c673e203c7061746820636c6173733d22636c732d636c6f75642d322220643d224d3130322e39382c32332e3163312e332c382e31372d312e38372c322e33392c352e392d312e35352c312e39322d2e39372c332e34332d312e34322c352e35392d312e35352c31342e33382d2e392c32352e33342c31342e37372c32302e36352c32382e32362c372e34372d342e32322c31382e33332c332e33312c32332e31342c392e31362c362e372c382e31362c372e37362c31372e36332c332e37332c32372e33332d322e34352c352e392d382e30352c31312e322d31342e32392c31322e38392d312e37372e34382d332e39332e37382d352e37352e39332d342e33382e33362d33322e32312d2e33332d34312e37372d2e33316c2d2e34372d2e333163362e322d322e36332c31302e34372d31302e37332c362e39392d31362e39332d312e362d322e38342d332e37352d322e38392d342e39372d332e35372d2e31382d2e312d2e37332e31372d2e39332d2e31362d2e30372d342e38382d342e34382d392e32312d392e33322d392e30312d312e33312d392e36372d392e36322d382e37322d31302e32352d392e33322d2e30342d352e34362d342e30382d382e33362d392e33322d382e32332d312e35312e30342d322e322d2e32332d342e33352e39332e36342d342e36382d332e39312d31332e34312d31332e39372d31322e34322d332e362e33352d382e33312c332e322d392e30312c362e39392d2e31362e38382d2e32352c352e38352e36322c352e34332d2e31332c352e35312e37312c312e35352d342e38312d322e37392d2e39332d2e37332d322e32322d312e36312d332e32362d322e31374332382e33342c32382e37332c34312e35362c382e38392c35392e352c332e35336331392e31322d352e37312c34302e39382c332e392c34332e34382c31392e35365a222f3e203c7061746820636c6173733d22636c732d636c6f75642d382220643d224d3131342e34372c31382e313376312e3836632d322e31362e31332d332e36372e35382d352e35392c312e35352e30372d312e34382d312e33322d312e31322e33312d322e31372c312e38352d2e36312c332e32382d312e31362c352e32382d312e32345a222f3e203c7061746820636c6173733d22636c732d636c6f75642d362220643d224d3130392e31392c31392e3337632d312e36332c312e30352d2e32342e372d2e33312c322e31372d372e37372c332e39342d342e362c392e37332d352e392c312e35352e36352e312c312e332d312e34322c312e38362d312e38362c312e32332d2e39382c322e38392d312e33382c342e33352d312e38365a222f3e203c2f673e203c2f673e203c673e203c7061746820636c6173733d22636c732d636c6f75642d372220643d224d38382e30372c332e323263372e33382c332e31382c31352e33322c392e37342c31362e37372c31382e30312d2e35362e34352d312e32312c312e39372d312e38362c312e38362d322e352d31352e36372d32342e33362d32352e32372d34332e34382d31392e35362d342e39342e30362d31312e31322c352e35342d392e36332c322e34382c31312e32322d362e37392c32362e31322d382c33382e322d322e37395a222f3e203c673e203c7061746820636c6173733d22636c732d636c6f75642d372220643d224d31392e37352c39382e32356c2d2e39332e3933632d332e37342d2e38382d352e38342d312e392d392e33322d332e34322d2e35322d2e39362d322e37322d322e30312d342e30342d332e37332d312e37312d322e32342d352e33312d362e39342d342e36362d392e33322c322e33382c382c31302e36372c31342e36332c31382e39342c31352e35335a222f3e203c7061746820636c6173733d22636c732d636c6f75642d352220643d224d3132312e39322c39392e38316c2d312e32342e3632632d2e33312d2e30322d2e36322e30312d2e39332c302d312e31342d2e30342d322e32382e30322d332e34322c302d32302e362d2e33372d34312e32322e33322d36312e382c302d312e31362d2e30322d322e37372e31332d332e37332c302d2e30362c302d2e38392d2e34342d2e39332d2e36322c32342e30312d2e30362c34382e30342e32352c37322e30352c305a222f3e203c2f673e203c2f673e203c2f673e203c2f673ea2646970667358221220c008793d4f6d5a40a3388ae1659a46dbe2041c454fb0185f5a5ec2fc3a263a9464736f6c63430008140033",
  "devdoc": {
    "kind": "dev",
    "methods": {},
    "version": 1
  },
  "userdoc": {
    "kind": "user",
    "methods": {},
    "version": 1
  },
  "storageLayout": {
    "storage": [],
    "types": null
  }
}