{
  "address": "0x273cA93A52b817294830eD7572aA591Ccfa647fd",
  "abi": [
    {
      "inputs": [
        {
          "internalType": "uint256",
          "name": "_mintEndUnixTimestamp",
          "type": "uint256"
        },
        {
          "internalType": "string",
          "name": "_nameString",
          "type": "string"
        },
        {
          "internalType": "string",
          "name": "_symbol",
          "type": "string"
        },
        {
          "internalType": "string",
          "name": "_tokenArtIPFSId",
          "type": "string"
        },
        {
          "internalType": "string",
          "name": "_description",
          "type": "string"
        }
      ],
      "stateMutability": "nonpayable",
      "type": "constructor"
    },
    {
      "inputs": [
        {
          "internalType": "address",
          "name": "sender",
          "type": "address"
        },
        {
          "internalType": "uint256",
          "name": "tokenId",
          "type": "uint256"
        },
        {
          "internalType": "address",
          "name": "owner",
          "type": "address"
        }
      ],
      "name": "ERC721IncorrectOwner",
      "type": "error"
    },
    {
      "inputs": [
        {
          "internalType": "address",
          "name": "operator",
          "type": "address"
        },
        {
          "internalType": "uint256",
          "name": "tokenId",
          "type": "uint256"
        }
      ],
      "name": "ERC721InsufficientApproval",
      "type": "error"
    },
    {
      "inputs": [
        {
          "internalType": "address",
          "name": "approver",
          "type": "address"
        }
      ],
      "name": "ERC721InvalidApprover",
      "type": "error"
    },
    {
      "inputs": [
        {
          "internalType": "address",
          "name": "operator",
          "type": "address"
        }
      ],
      "name": "ERC721InvalidOperator",
      "type": "error"
    },
    {
      "inputs": [
        {
          "internalType": "address",
          "name": "owner",
          "type": "address"
        }
      ],
      "name": "ERC721InvalidOwner",
      "type": "error"
    },
    {
      "inputs": [
        {
          "internalType": "address",
          "name": "receiver",
          "type": "address"
        }
      ],
      "name": "ERC721InvalidReceiver",
      "type": "error"
    },
    {
      "inputs": [
        {
          "internalType": "address",
          "name": "sender",
          "type": "address"
        }
      ],
      "name": "ERC721InvalidSender",
      "type": "error"
    },
    {
      "inputs": [
        {
          "internalType": "uint256",
          "name": "tokenId",
          "type": "uint256"
        }
      ],
      "name": "ERC721NonexistentToken",
      "type": "error"
    },
    {
      "inputs": [
        {
          "internalType": "uint256",
          "name": "tokenId",
          "type": "uint256"
        }
      ],
      "name": "InvalidTokenId",
      "type": "error"
    },
    {
      "inputs": [],
      "name": "MintOver",
      "type": "error"
    },
    {
      "inputs": [
        {
          "internalType": "address",
          "name": "owner",
          "type": "address"
        }
      ],
      "name": "OwnableInvalidOwner",
      "type": "error"
    },
    {
      "inputs": [
        {
          "internalType": "address",
          "name": "account",
          "type": "address"
        }
      ],
      "name": "OwnableUnauthorizedAccount",
      "type": "error"
    },
    {
      "inputs": [],
      "name": "SoulboundToken",
      "type": "error"
    },
    {
      "anonymous": false,
      "inputs": [
        {
          "indexed": true,
          "internalType": "address",
          "name": "owner",
          "type": "address"
        },
        {
          "indexed": true,
          "internalType": "address",
          "name": "approved",
          "type": "address"
        },
        {
          "indexed": true,
          "internalType": "uint256",
          "name": "tokenId",
          "type": "uint256"
        }
      ],
      "name": "Approval",
      "type": "event"
    },
    {
      "anonymous": false,
      "inputs": [
        {
          "indexed": true,
          "internalType": "address",
          "name": "owner",
          "type": "address"
        },
        {
          "indexed": true,
          "internalType": "address",
          "name": "operator",
          "type": "address"
        },
        {
          "indexed": false,
          "internalType": "bool",
          "name": "approved",
          "type": "bool"
        }
      ],
      "name": "ApprovalForAll",
      "type": "event"
    },
    {
      "anonymous": false,
      "inputs": [
        {
          "indexed": true,
          "internalType": "address",
          "name": "previousOwner",
          "type": "address"
        },
        {
          "indexed": true,
          "internalType": "address",
          "name": "newOwner",
          "type": "address"
        }
      ],
      "name": "OwnershipTransferred",
      "type": "event"
    },
    {
      "anonymous": false,
      "inputs": [
        {
          "indexed": true,
          "internalType": "address",
          "name": "from",
          "type": "address"
        },
        {
          "indexed": true,
          "internalType": "address",
          "name": "to",
          "type": "address"
        },
        {
          "indexed": true,
          "internalType": "uint256",
          "name": "tokenId",
          "type": "uint256"
        }
      ],
      "name": "Transfer",
      "type": "event"
    },
    {
      "inputs": [
        {
          "internalType": "address",
          "name": "to",
          "type": "address"
        },
        {
          "internalType": "uint256",
          "name": "tokenId",
          "type": "uint256"
        }
      ],
      "name": "approve",
      "outputs": [],
      "stateMutability": "nonpayable",
      "type": "function"
    },
    {
      "inputs": [
        {
          "internalType": "address",
          "name": "owner",
          "type": "address"
        }
      ],
      "name": "balanceOf",
      "outputs": [
        {
          "internalType": "uint256",
          "name": "",
          "type": "uint256"
        }
      ],
      "stateMutability": "view",
      "type": "function"
    },
    {
      "inputs": [],
      "name": "counter",
      "outputs": [
        {
          "internalType": "uint256",
          "name": "",
          "type": "uint256"
        }
      ],
      "stateMutability": "view",
      "type": "function"
    },
    {
      "inputs": [],
      "name": "description",
      "outputs": [
        {
          "internalType": "string",
          "name": "",
          "type": "string"
        }
      ],
      "stateMutability": "view",
      "type": "function"
    },
    {
      "inputs": [
        {
          "internalType": "uint256",
          "name": "tokenId",
          "type": "uint256"
        }
      ],
      "name": "getApproved",
      "outputs": [
        {
          "internalType": "address",
          "name": "",
          "type": "address"
        }
      ],
      "stateMutability": "view",
      "type": "function"
    },
    {
      "inputs": [
        {
          "internalType": "address",
          "name": "owner",
          "type": "address"
        },
        {
          "internalType": "address",
          "name": "operator",
          "type": "address"
        }
      ],
      "name": "isApprovedForAll",
      "outputs": [
        {
          "internalType": "bool",
          "name": "",
          "type": "bool"
        }
      ],
      "stateMutability": "view",
      "type": "function"
    },
    {
      "inputs": [],
      "name": "mint",
      "outputs": [],
      "stateMutability": "nonpayable",
      "type": "function"
    },
    {
      "inputs": [],
      "name": "mintEndUnixTimestamp",
      "outputs": [
        {
          "internalType": "uint256",
          "name": "",
          "type": "uint256"
        }
      ],
      "stateMutability": "view",
      "type": "function"
    },
    {
      "inputs": [],
      "name": "name",
      "outputs": [
        {
          "internalType": "string",
          "name": "",
          "type": "string"
        }
      ],
      "stateMutability": "view",
      "type": "function"
    },
    {
      "inputs": [],
      "name": "nameString",
      "outputs": [
        {
          "internalType": "string",
          "name": "",
          "type": "string"
        }
      ],
      "stateMutability": "view",
      "type": "function"
    },
    {
      "inputs": [],
      "name": "owner",
      "outputs": [
        {
          "internalType": "address",
          "name": "",
          "type": "address"
        }
      ],
      "stateMutability": "view",
      "type": "function"
    },
    {
      "inputs": [
        {
          "internalType": "uint256",
          "name": "tokenId",
          "type": "uint256"
        }
      ],
      "name": "ownerOf",
      "outputs": [
        {
          "internalType": "address",
          "name": "",
          "type": "address"
        }
      ],
      "stateMutability": "view",
      "type": "function"
    },
    {
      "inputs": [],
      "name": "renounceOwnership",
      "outputs": [],
      "stateMutability": "nonpayable",
      "type": "function"
    },
    {
      "inputs": [
        {
          "internalType": "address",
          "name": "from",
          "type": "address"
        },
        {
          "internalType": "address",
          "name": "to",
          "type": "address"
        },
        {
          "internalType": "uint256",
          "name": "tokenId",
          "type": "uint256"
        }
      ],
      "name": "safeTransferFrom",
      "outputs": [],
      "stateMutability": "nonpayable",
      "type": "function"
    },
    {
      "inputs": [
        {
          "internalType": "address",
          "name": "from",
          "type": "address"
        },
        {
          "internalType": "address",
          "name": "to",
          "type": "address"
        },
        {
          "internalType": "uint256",
          "name": "tokenId",
          "type": "uint256"
        },
        {
          "internalType": "bytes",
          "name": "data",
          "type": "bytes"
        }
      ],
      "name": "safeTransferFrom",
      "outputs": [],
      "stateMutability": "nonpayable",
      "type": "function"
    },
    {
      "inputs": [
        {
          "internalType": "address",
          "name": "operator",
          "type": "address"
        },
        {
          "internalType": "bool",
          "name": "approved",
          "type": "bool"
        }
      ],
      "name": "setApprovalForAll",
      "outputs": [],
      "stateMutability": "nonpayable",
      "type": "function"
    },
    {
      "inputs": [
        {
          "internalType": "bytes4",
          "name": "interfaceId",
          "type": "bytes4"
        }
      ],
      "name": "supportsInterface",
      "outputs": [
        {
          "internalType": "bool",
          "name": "",
          "type": "bool"
        }
      ],
      "stateMutability": "view",
      "type": "function"
    },
    {
      "inputs": [],
      "name": "symbol",
      "outputs": [
        {
          "internalType": "string",
          "name": "",
          "type": "string"
        }
      ],
      "stateMutability": "view",
      "type": "function"
    },
    {
      "inputs": [],
      "name": "tokenArtIPFSId",
      "outputs": [
        {
          "internalType": "string",
          "name": "",
          "type": "string"
        }
      ],
      "stateMutability": "view",
      "type": "function"
    },
    {
      "inputs": [
        {
          "internalType": "uint256",
          "name": "_tokenId",
          "type": "uint256"
        }
      ],
      "name": "tokenURI",
      "outputs": [
        {
          "internalType": "string",
          "name": "",
          "type": "string"
        }
      ],
      "stateMutability": "view",
      "type": "function"
    },
    {
      "inputs": [
        {
          "internalType": "address",
          "name": "from",
          "type": "address"
        },
        {
          "internalType": "address",
          "name": "to",
          "type": "address"
        },
        {
          "internalType": "uint256",
          "name": "tokenId",
          "type": "uint256"
        }
      ],
      "name": "transferFrom",
      "outputs": [],
      "stateMutability": "nonpayable",
      "type": "function"
    },
    {
      "inputs": [
        {
          "internalType": "address",
          "name": "newOwner",
          "type": "address"
        }
      ],
      "name": "transferOwnership",
      "outputs": [],
      "stateMutability": "nonpayable",
      "type": "function"
    }
  ],
  "transactionHash": "0xbf0941986c3a6f4c12e8e3297a21d0b32d7b8c1fe9ee0453aeb403c3374f54e8",
  "args": [
    1710979200,
    "EIP-4844 is Based",
    "$4844",
    "QmPLdLhPipZ5Lb5XQcmmGCtdVqE1nr8jmZKnT3cSJULRFL",
    "Cheaper, faster transactions make the world go round. Lower gas fees are a critical step towards a new internet and a new economy. Base is for everyone."
  ],
  "numDeployments": 1,
  "solcInputHash": "4d50a03e103b9aa44a73c347c033fa00",
  "bytecode": "0x60806040523480156200001157600080fd5b5060405162001a2138038062001a218339810160408190526200003491620001e6565b338484600062000045838262000339565b50600162000054828262000339565b5050506001600160a01b0381166200008657604051631e4fbdf760e01b81526000600482015260240160405180910390fd5b6200009181620000cf565b5060088590556009620000a5858262000339565b50600a620000b4828262000339565b50600b620000c3838262000339565b50505050505062000405565b600680546001600160a01b038381166001600160a01b0319831681179093556040519116919082907f8be0079c531659141344cd1fd0a4f28419497f9722a3daafe3b4186f6b6457e090600090a35050565b634e487b7160e01b600052604160045260246000fd5b600082601f8301126200014957600080fd5b81516001600160401b038082111562000166576200016662000121565b604051601f8301601f19908116603f0116810190828211818310171562000191576200019162000121565b81604052838152602092508683858801011115620001ae57600080fd5b600091505b83821015620001d25785820183015181830184015290820190620001b3565b600093810190920192909252949350505050565b600080600080600060a08688031215620001ff57600080fd5b855160208701519095506001600160401b03808211156200021f57600080fd5b6200022d89838a0162000137565b955060408801519150808211156200024457600080fd5b6200025289838a0162000137565b945060608801519150808211156200026957600080fd5b6200027789838a0162000137565b935060808801519150808211156200028e57600080fd5b506200029d8882890162000137565b9150509295509295909350565b600181811c90821680620002bf57607f821691505b602082108103620002e057634e487b7160e01b600052602260045260246000fd5b50919050565b601f8211156200033457600081815260208120601f850160051c810160208610156200030f5750805b601f850160051c820191505b8181101562000330578281556001016200031b565b5050505b505050565b81516001600160401b0381111562000355576200035562000121565b6200036d81620003668454620002aa565b84620002e6565b602080601f831160018114620003a557600084156200038c5750858301515b600019600386901b1c1916600185901b17855562000330565b600085815260208120601f198616915b82811015620003d657888601518255948401946001909101908401620003b5565b5085821015620003f55787850151600019600388901b60f8161c191681555b5050505050600190811b01905550565b61160c80620004156000396000f3fe608060405234801561001057600080fd5b50600436106101425760003560e01c8063715018a6116100b857806395d89b411161007c57806395d89b4114610269578063a22cb46514610271578063b88d4fde14610284578063c87b56dd14610297578063e985e9c5146102aa578063f2fde38b146102bd57600080fd5b8063715018a6146102385780637284e41614610240578063840efffc1461024857806385d9aebd146102505780638da5cb5b1461025857600080fd5b806323b872dd1161010a57806323b872dd146101cc5780633f3300b6146101df57806342842e0e146101f657806361bc221a146102095780636352211e1461021257806370a082311461022557600080fd5b806301ffc9a71461014757806306fdde031461016f578063081812fc14610184578063095ea7b3146101af5780631249c58b146101c4575b600080fd5b61015a610155366004611075565b6102d0565b60405190151581526020015b60405180910390f35b610177610322565b60405161016691906110e9565b6101976101923660046110fc565b6103b4565b6040516001600160a01b039091168152602001610166565b6101c26101bd366004611131565b6103dd565b005b6101c26103ec565b6101c26101da36600461115b565b610432565b6101e860085481565b604051908152602001610166565b6101c261020436600461115b565b6104c2565b6101e860075481565b6101976102203660046110fc565b6104e2565b6101e8610233366004611197565b6104ed565b6101c2610535565b610177610547565b6101776105d5565b6101776105e2565b6006546001600160a01b0316610197565b6101776105ef565b6101c261027f3660046111b2565b6105fe565b6101c2610292366004611204565b610609565b6101776102a53660046110fc565b610620565b61015a6102b83660046112e0565b6106e8565b6101c26102cb366004611197565b610716565b60006001600160e01b031982166380ac58cd60e01b148061030157506001600160e01b03198216635b5e139f60e01b145b8061031c57506301ffc9a760e01b6001600160e01b03198316145b92915050565b60606000805461033190611313565b80601f016020809104026020016040519081016040528092919081815260200182805461035d90611313565b80156103aa5780601f1061037f576101008083540402835291602001916103aa565b820191906000526020600020905b81548152906001019060200180831161038d57829003601f168201915b5050505050905090565b60006103bf82610754565b506000828152600460205260409020546001600160a01b031661031c565b6103e882823361078d565b5050565b60085442111561040f576040516333fb675360e21b815260040160405180910390fd5b6007805490600061041f83611363565b91905055506104303360075461079a565b565b6001600160a01b03821661046157604051633250574960e11b8152600060048201526024015b60405180910390fd5b600061046e8383336107b4565b9050836001600160a01b0316816001600160a01b0316146104bc576040516364283d7b60e01b81526001600160a01b0380861660048301526024820184905282166044820152606401610458565b50505050565b6104dd83838360405180602001604052806000815250610609565b505050565b600061031c82610754565b60006001600160a01b038216610519576040516322718ad960e21b815260006004820152602401610458565b506001600160a01b031660009081526003602052604090205490565b61053d610815565b6104306000610842565b600a805461055490611313565b80601f016020809104026020016040519081016040528092919081815260200182805461058090611313565b80156105cd5780601f106105a2576101008083540402835291602001916105cd565b820191906000526020600020905b8154815290600101906020018083116105b057829003601f168201915b505050505081565b6009805461055490611313565b600b805461055490611313565b60606001805461033190611313565b6103e8338383610894565b610614848484610432565b6104bc84848484610933565b60606007548211156106485760405163ed15e6cf60e01b815260048101839052602401610458565b6000610683600961065885610a5c565b600a600b60405160200161066f9493929190611419565b604051602081830303815290604052610aef565b90506106bf60408051808201909152601d81527f646174613a6170706c69636174696f6e2f6a736f6e3b6261736536342c000000602082015290565b816040516020016106d19291906114c1565b604051602081830303815290604052915050919050565b6001600160a01b03918216600090815260056020908152604080832093909416825291909152205460ff1690565b61071e610815565b6001600160a01b03811661074857604051631e4fbdf760e01b815260006004820152602401610458565b61075181610842565b50565b6000818152600260205260408120546001600160a01b03168061031c57604051637e27328960e01b815260048101849052602401610458565b6104dd8383836001610c42565b6103e8828260405180602001604052806000815250610d48565b6000828152600260205260408120546001600160a01b031680158015906107e357506001600160a01b03851615155b1561080157604051636e10574960e01b815260040160405180910390fd5b61080c858585610d5f565b95945050505050565b6006546001600160a01b031633146104305760405163118cdaa760e01b8152336004820152602401610458565b600680546001600160a01b038381166001600160a01b0319831681179093556040519116919082907f8be0079c531659141344cd1fd0a4f28419497f9722a3daafe3b4186f6b6457e090600090a35050565b6001600160a01b0382166108c657604051630b61174360e31b81526001600160a01b0383166004820152602401610458565b6001600160a01b03838116600081815260056020908152604080832094871680845294825291829020805460ff191686151590811790915591519182527f17307eab39ab6107e8899845ad3d59bd9653f200f220920489ca2b5937696c31910160405180910390a3505050565b6001600160a01b0383163b156104bc57604051630a85bd0160e11b81526001600160a01b0384169063150b7a02906109759033908890879087906004016114f0565b6020604051808303816000875af19250505080156109b0575060408051601f3d908101601f191682019092526109ad9181019061152d565b60015b610a19573d8080156109de576040519150601f19603f3d011682016040523d82523d6000602084013e6109e3565b606091505b508051600003610a1157604051633250574960e11b81526001600160a01b0385166004820152602401610458565b805181602001fd5b6001600160e01b03198116630a85bd0160e11b14610a5557604051633250574960e11b81526001600160a01b0385166004820152602401610458565b5050505050565b60606000610a6983610e58565b600101905060008167ffffffffffffffff811115610a8957610a896111ee565b6040519080825280601f01601f191660200182016040528015610ab3576020820181803683370190505b5090508181016020015b600019016f181899199a1a9b1b9c1cb0b131b232b360811b600a86061a8153600a8504945084610abd57509392505050565b60608151600003610b0e57505060408051602081019091526000815290565b60006040518060600160405280604081526020016115976040913990506000600384516002610b3d919061154a565b610b47919061155d565b610b5290600461157f565b67ffffffffffffffff811115610b6a57610b6a6111ee565b6040519080825280601f01601f191660200182016040528015610b94576020820181803683370190505b509050600182016020820185865187015b80821015610c00576003820191508151603f8160121c168501518453600184019350603f81600c1c168501518453600184019350603f8160061c168501518453600184019350603f8116850151845350600183019250610ba5565b5050600386510660018114610c1c5760028114610c2f57610c37565b603d6001830353603d6002830353610c37565b603d60018303535b509195945050505050565b8080610c5657506001600160a01b03821615155b15610d18576000610c6684610754565b90506001600160a01b03831615801590610c925750826001600160a01b0316816001600160a01b031614155b8015610ca55750610ca381846106e8565b155b15610cce5760405163a9fbf51f60e01b81526001600160a01b0384166004820152602401610458565b8115610d165783856001600160a01b0316826001600160a01b03167f8c5be1e5ebec7d5bd14f71427d1e84f3dd0314c0f7b2291e5b200ac8c7c3b92560405160405180910390a45b505b5050600090815260046020526040902080546001600160a01b0319166001600160a01b0392909216919091179055565b610d528383610f30565b6104dd6000848484610933565b6000828152600260205260408120546001600160a01b0390811690831615610d8c57610d8c818486610f95565b6001600160a01b03811615610dca57610da9600085600080610c42565b6001600160a01b038116600090815260036020526040902080546000190190555b6001600160a01b03851615610df9576001600160a01b0385166000908152600360205260409020805460010190555b60008481526002602052604080822080546001600160a01b0319166001600160a01b0389811691821790925591518793918516917fddf252ad1be2c89b69c2b068fc378daa952ba7f163c4a11628f55a4df523b3ef91a4949350505050565b60008072184f03e93ff9f4daa797ed6e38ed64bf6a1f0160401b8310610e975772184f03e93ff9f4daa797ed6e38ed64bf6a1f0160401b830492506040015b6d04ee2d6d415b85acef81000000008310610ec3576d04ee2d6d415b85acef8100000000830492506020015b662386f26fc100008310610ee157662386f26fc10000830492506010015b6305f5e1008310610ef9576305f5e100830492506008015b6127108310610f0d57612710830492506004015b60648310610f1f576064830492506002015b600a831061031c5760010192915050565b6001600160a01b038216610f5a57604051633250574960e11b815260006004820152602401610458565b6000610f68838360006107b4565b90506001600160a01b038116156104dd576040516339e3563760e11b815260006004820152602401610458565b610fa0838383610ff9565b6104dd576001600160a01b038316610fce57604051637e27328960e01b815260048101829052602401610458565b60405163177e802f60e01b81526001600160a01b038316600482015260248101829052604401610458565b60006001600160a01b038316158015906110575750826001600160a01b0316846001600160a01b03161480611033575061103384846106e8565b8061105757506000828152600460205260409020546001600160a01b038481169116145b949350505050565b6001600160e01b03198116811461075157600080fd5b60006020828403121561108757600080fd5b81356110928161105f565b9392505050565b60005b838110156110b457818101518382015260200161109c565b50506000910152565b600081518084526110d5816020860160208601611099565b601f01601f19169290920160200192915050565b60208152600061109260208301846110bd565b60006020828403121561110e57600080fd5b5035919050565b80356001600160a01b038116811461112c57600080fd5b919050565b6000806040838503121561114457600080fd5b61114d83611115565b946020939093013593505050565b60008060006060848603121561117057600080fd5b61117984611115565b925061118760208501611115565b9150604084013590509250925092565b6000602082840312156111a957600080fd5b61109282611115565b600080604083850312156111c557600080fd5b6111ce83611115565b9150602083013580151581146111e357600080fd5b809150509250929050565b634e487b7160e01b600052604160045260246000fd5b6000806000806080858703121561121a57600080fd5b61122385611115565b935061123160208601611115565b925060408501359150606085013567ffffffffffffffff8082111561125557600080fd5b818701915087601f83011261126957600080fd5b81358181111561127b5761127b6111ee565b604051601f8201601f19908116603f011681019083821181831017156112a3576112a36111ee565b816040528281528a60208487010111156112bc57600080fd5b82602086016020830137600060208483010152809550505050505092959194509250565b600080604083850312156112f357600080fd5b6112fc83611115565b915061130a60208401611115565b90509250929050565b600181811c9082168061132757607f821691505b60208210810361134757634e487b7160e01b600052602260045260246000fd5b50919050565b634e487b7160e01b600052601160045260246000fd5b6000600182016113755761137561134d565b5060010190565b8054600090600181811c908083168061139657607f831692505b602080841082036113b757634e487b7160e01b600052602260045260246000fd5b8180156113cb57600181146113e05761140d565b60ff198616895284151585028901965061140d565b60008881526020902060005b868110156114055781548b8201529085019083016113ec565b505084890196505b50505050505092915050565b693d913730b6b2911d101160b11b81526000611438600a83018761137c565b63010119d160e51b81528551611455816004840160208a01611099565b711116113232b9b1b934b83a34b7b7111d101160711b60049290910191820152611482601682018661137c565b73222c2022696d616765223a2022697066733a2f2f60601b815290506114ab601482018561137c565b61227d60f01b8152600201979650505050505050565b600083516114d3818460208801611099565b8351908301906114e7818360208801611099565b01949350505050565b6001600160a01b0385811682528416602082015260408101839052608060608201819052600090611523908301846110bd565b9695505050505050565b60006020828403121561153f57600080fd5b81516110928161105f565b8082018082111561031c5761031c61134d565b60008261157a57634e487b7160e01b600052601260045260246000fd5b500490565b808202811582820484141761031c5761031c61134d56fe4142434445464748494a4b4c4d4e4f505152535455565758595a6162636465666768696a6b6c6d6e6f707172737475767778797a303132333435363738392b2fa2646970667358221220263730166cc91e2587c5453017d55bd3f42eb55c476ade24f9d830cb16113c8864736f6c63430008140033",
  "devdoc": {
    "errors": {
      "ERC721IncorrectOwner(address,uint256,address)": [
        {
          "details": "Indicates an error related to the ownership over a particular token. Used in transfers.",
          "params": {
            "owner": "Address of the current owner of a token.",
            "sender": "Address whose tokens are being transferred.",
            "tokenId": "Identifier number of a token."
          }
        }
      ],
      "ERC721InsufficientApproval(address,uint256)": [
        {
          "details": "Indicates a failure with the `operator`s approval. Used in transfers.",
          "params": {
            "operator": "Address that may be allowed to operate on tokens without being their owner.",
            "tokenId": "Identifier number of a token."
          }
        }
      ],
      "ERC721InvalidApprover(address)": [
        {
          "details": "Indicates a failure with the `approver` of a token to be approved. Used in approvals.",
          "params": {
            "approver": "Address initiating an approval operation."
          }
        }
      ],
      "ERC721InvalidOperator(address)": [
        {
          "details": "Indicates a failure with the `operator` to be approved. Used in approvals.",
          "params": {
            "operator": "Address that may be allowed to operate on tokens without being their owner."
          }
        }
      ],
      "ERC721InvalidOwner(address)": [
        {
          "details": "Indicates that an address can't be an owner. For example, `address(0)` is a forbidden owner in EIP-20. Used in balance queries.",
          "params": {
            "owner": "Address of the current owner of a token."
          }
        }
      ],
      "ERC721InvalidReceiver(address)": [
        {
          "details": "Indicates a failure with the token `receiver`. Used in transfers.",
          "params": {
            "receiver": "Address to which tokens are being transferred."
          }
        }
      ],
      "ERC721InvalidSender(address)": [
        {
          "details": "Indicates a failure with the token `sender`. Used in transfers.",
          "params": {
            "sender": "Address whose tokens are being transferred."
          }
        }
      ],
      "ERC721NonexistentToken(uint256)": [
        {
          "details": "Indicates a `tokenId` whose `owner` is the zero address.",
          "params": {
            "tokenId": "Identifier number of a token."
          }
        }
      ],
      "OwnableInvalidOwner(address)": [
        {
          "details": "The owner is not a valid owner account. (eg. `address(0)`)"
        }
      ],
      "OwnableUnauthorizedAccount(address)": [
        {
          "details": "The caller account is not authorized to perform an operation."
        }
      ]
    },
    "events": {
      "Approval(address,address,uint256)": {
        "details": "Emitted when `owner` enables `approved` to manage the `tokenId` token."
      },
      "ApprovalForAll(address,address,bool)": {
        "details": "Emitted when `owner` enables or disables (`approved`) `operator` to manage all of its assets."
      },
      "Transfer(address,address,uint256)": {
        "details": "Emitted when `tokenId` token is transferred from `from` to `to`."
      }
    },
    "kind": "dev",
    "methods": {
      "approve(address,uint256)": {
        "details": "See {IERC721-approve}."
      },
      "balanceOf(address)": {
        "details": "See {IERC721-balanceOf}."
      },
      "getApproved(uint256)": {
        "details": "See {IERC721-getApproved}."
      },
      "isApprovedForAll(address,address)": {
        "details": "See {IERC721-isApprovedForAll}."
      },
      "name()": {
        "details": "See {IERC721Metadata-name}."
      },
      "owner()": {
        "details": "Returns the address of the current owner."
      },
      "ownerOf(uint256)": {
        "details": "See {IERC721-ownerOf}."
      },
      "renounceOwnership()": {
        "details": "Leaves the contract without owner. It will not be possible to call `onlyOwner` functions. Can only be called by the current owner. NOTE: Renouncing ownership will leave the contract without an owner, thereby disabling any functionality that is only available to the owner."
      },
      "safeTransferFrom(address,address,uint256)": {
        "details": "See {IERC721-safeTransferFrom}."
      },
      "safeTransferFrom(address,address,uint256,bytes)": {
        "details": "See {IERC721-safeTransferFrom}."
      },
      "setApprovalForAll(address,bool)": {
        "details": "See {IERC721-setApprovalForAll}."
      },
      "supportsInterface(bytes4)": {
        "details": "See {IERC165-supportsInterface}."
      },
      "symbol()": {
        "details": "See {IERC721Metadata-symbol}."
      },
      "transferFrom(address,address,uint256)": {
        "details": "See {IERC721-transferFrom}."
      },
      "transferOwnership(address)": {
        "details": "Transfers ownership of the contract to a new account (`newOwner`). Can only be called by the current owner."
      }
    },
    "version": 1
  },
  "userdoc": {
    "kind": "user",
    "methods": {},
    "version": 1
  },
  "storageLayout": {
    "storage": [
      {
        "astId": 317,
        "contract": "contracts/SoulboundFreeTimedMint.sol:SoulboundFreeTimedMint",
        "label": "_name",
        "offset": 0,
        "slot": "0",
        "type": "t_string_storage"
      },
      {
        "astId": 319,
        "contract": "contracts/SoulboundFreeTimedMint.sol:SoulboundFreeTimedMint",
        "label": "_symbol",
        "offset": 0,
        "slot": "1",
        "type": "t_string_storage"
      },
      {
        "astId": 323,
        "contract": "contracts/SoulboundFreeTimedMint.sol:SoulboundFreeTimedMint",
        "label": "_owners",
        "offset": 0,
        "slot": "2",
        "type": "t_mapping(t_uint256,t_address)"
      },
      {
        "astId": 327,
        "contract": "contracts/SoulboundFreeTimedMint.sol:SoulboundFreeTimedMint",
        "label": "_balances",
        "offset": 0,
        "slot": "3",
        "type": "t_mapping(t_address,t_uint256)"
      },
      {
        "astId": 331,
        "contract": "contracts/SoulboundFreeTimedMint.sol:SoulboundFreeTimedMint",
        "label": "_tokenApprovals",
        "offset": 0,
        "slot": "4",
        "type": "t_mapping(t_uint256,t_address)"
      },
      {
        "astId": 337,
        "contract": "contracts/SoulboundFreeTimedMint.sol:SoulboundFreeTimedMint",
        "label": "_operatorApprovals",
        "offset": 0,
        "slot": "5",
        "type": "t_mapping(t_address,t_mapping(t_address,t_bool))"
      },
      {
        "astId": 8,
        "contract": "contracts/SoulboundFreeTimedMint.sol:SoulboundFreeTimedMint",
        "label": "_owner",
        "offset": 0,
        "slot": "6",
        "type": "t_address"
      },
      {
        "astId": 2996,
        "contract": "contracts/SoulboundFreeTimedMint.sol:SoulboundFreeTimedMint",
        "label": "counter",
        "offset": 0,
        "slot": "7",
        "type": "t_uint256"
      },
      {
        "astId": 2998,
        "contract": "contracts/SoulboundFreeTimedMint.sol:SoulboundFreeTimedMint",
        "label": "mintEndUnixTimestamp",
        "offset": 0,
        "slot": "8",
        "type": "t_uint256"
      },
      {
        "astId": 3000,
        "contract": "contracts/SoulboundFreeTimedMint.sol:SoulboundFreeTimedMint",
        "label": "nameString",
        "offset": 0,
        "slot": "9",
        "type": "t_string_storage"
      },
      {
        "astId": 3002,
        "contract": "contracts/SoulboundFreeTimedMint.sol:SoulboundFreeTimedMint",
        "label": "description",
        "offset": 0,
        "slot": "10",
        "type": "t_string_storage"
      },
      {
        "astId": 3004,
        "contract": "contracts/SoulboundFreeTimedMint.sol:SoulboundFreeTimedMint",
        "label": "tokenArtIPFSId",
        "offset": 0,
        "slot": "11",
        "type": "t_string_storage"
      }
    ],
    "types": {
      "t_address": {
        "encoding": "inplace",
        "label": "address",
        "numberOfBytes": "20"
      },
      "t_bool": {
        "encoding": "inplace",
        "label": "bool",
        "numberOfBytes": "1"
      },
      "t_mapping(t_address,t_bool)": {
        "encoding": "mapping",
        "key": "t_address",
        "label": "mapping(address => bool)",
        "numberOfBytes": "32",
        "value": "t_bool"
      },
      "t_mapping(t_address,t_mapping(t_address,t_bool))": {
        "encoding": "mapping",
        "key": "t_address",
        "label": "mapping(address => mapping(address => bool))",
        "numberOfBytes": "32",
        "value": "t_mapping(t_address,t_bool)"
      },
      "t_mapping(t_address,t_uint256)": {
        "encoding": "mapping",
        "key": "t_address",
        "label": "mapping(address => uint256)",
        "numberOfBytes": "32",
        "value": "t_uint256"
      },
      "t_mapping(t_uint256,t_address)": {
        "encoding": "mapping",
        "key": "t_uint256",
        "label": "mapping(uint256 => address)",
        "numberOfBytes": "32",
        "value": "t_address"
      },
      "t_string_storage": {
        "encoding": "bytes",
        "label": "string",
        "numberOfBytes": "32"
      },
      "t_uint256": {
        "encoding": "inplace",
        "label": "uint256",
        "numberOfBytes": "32"
      }
    }
  }
}