{
  "address": "0x74D08d947a7b7Ebdc12A47E06635c33cC241d511",
  "abi": [
    {
      "inputs": [
        {
          "internalType": "uint256",
          "name": "_tokenId",
          "type": "uint256"
        }
      ],
      "name": "render",
      "outputs": [
        {
          "internalType": "string",
          "name": "",
          "type": "string"
        }
      ],
      "stateMutability": "pure",
      "type": "function"
    }
  ],
  "transactionHash": "0x1ade3bdf152967955206283275b78d7b2acdeb597f2f6b45de705a4af715b4bc",
  "args": [],
  "numDeployments": 1,
  "solcInputHash": "734a477134f6893041fcd683e7219b78",
  "bytecode": "0x608060405234801561001057600080fd5b5061352c806100206000396000f3fe608060405234801561001057600080fd5b506004361061002b5760003560e01c8063c321118c14610030575b600080fd5b61004361003e366004610292565b610059565b60405161005091906102cf565b60405180910390f35b6060610064826100a7565b60405180613140016040528061310781526020016103f06131079139604051602001610091929190610302565b6040516020818303038152906040529050919050565b60606000826040516020016100be91815260200190565b60408051601f19818403018152919052805160209091012090508060006100e761028a8361036d565b6100f290609661038f565b90506100fd81610126565b60405160200161010d91906103b0565b6040516020818303038152906040529350505050919050565b60606000610133836101b9565b600101905060008167ffffffffffffffff811115610153576101536103d9565b6040519080825280601f01601f19166020018201604052801561017d576020820181803683370190505b5090508181016020015b600019016f181899199a1a9b1b9c1cb0b131b232b360811b600a86061a8153600a850494508461018757509392505050565b60008072184f03e93ff9f4daa797ed6e38ed64bf6a1f0160401b83106101f85772184f03e93ff9f4daa797ed6e38ed64bf6a1f0160401b830492506040015b6d04ee2d6d415b85acef81000000008310610224576d04ee2d6d415b85acef8100000000830492506020015b662386f26fc10000831061024257662386f26fc10000830492506010015b6305f5e100831061025a576305f5e100830492506008015b612710831061026e57612710830492506004015b60648310610280576064830492506002015b600a831061028c576001015b92915050565b6000602082840312156102a457600080fd5b5035919050565b60005b838110156102c65781810151838201526020016102ae565b50506000910152565b60208152600082518060208401526102ee8160408501602087016102ab565b601f01601f19169190910160400192915050565b7f3c67207472616e73666f726d3d227472616e736c61746528000000000000000081526000835161033a8160188501602088016102ab565b6616199a9814911f60c91b601891840191820152835161036181601f8401602088016102ab565b01601f01949350505050565b60008261038a57634e487b7160e01b600052601260045260246000fd5b500690565b8082018082111561028c57634e487b7160e01b600052601160045260246000fd5b602d60f81b8152600082516103cc8160018501602087016102ab565b9190910160010192915050565b634e487b7160e01b600052604160045260246000fdfe203c646566733e203c7374796c653e2e636c732d6c616e642d317b66696c6c3a2075726c28236c696e6561722d6772616469656e74293b7d2e636c732d6c616e642d312c202e636c732d6c616e642d322c202e636c732d6c616e642d332c202e636c732d6c616e642d342c202e636c732d6c616e642d352c202e636c732d6c616e642d362c202e636c732d6c616e642d372c202e636c732d6c616e642d382c202e636c732d6c616e642d392c202e636c732d6c616e642d31302c202e636c732d6c616e642d31312c202e636c732d6c616e642d31322c202e636c732d6c616e642d31332c202e636c732d6c616e642d31342c202e636c732d6c616e642d31352c202e636c732d6c616e642d31362c202e636c732d6c616e642d31372c202e636c732d6c616e642d31382c202e636c732d6c616e642d31392c202e636c732d6c616e642d32302c202e636c732d6c616e642d32312c202e636c732d6c616e642d32322c202e636c732d6c616e642d32332c202e636c732d6c616e642d32342c202e636c732d6c616e642d32352c202e636c732d6c616e642d32362c202e636c732d6c616e642d32372c202e636c732d6c616e642d32387b7374726f6b652d77696474683a203070783b7d2e636c732d6c616e642d327b66696c6c3a2075726c28236c696e6561722d6772616469656e742d32293b7d2e636c732d6c616e642d337b66696c6c3a2075726c28236c696e6561722d6772616469656e742d33293b7d2e636c732d6c616e642d347b66696c6c3a20233462343934643b7d2e636c732d6c616e642d357b66696c6c3a20233731366337323b7d2e636c732d6c616e642d367b66696c6c3a20233631356436323b7d2e636c732d6c616e642d377b66696c6c3a20233831373938333b7d2e636c732d6c616e642d387b66696c6c3a20233531326334343b7d2e636c732d6c616e642d397b66696c6c3a20233466353937313b7d2e636c732d6c616e642d31307b66696c6c3a20233537333333343b7d2e636c732d6c616e642d31317b66696c6c3a20233239323632393b7d2e636c732d6c616e642d31327b66696c6c3a20233339333933613b7d2e636c732d6c616e642d31337b66696c6c3a20233363323733343b7d2e636c732d6c616e642d31347b66696c6c3a20233135313531353b7d2e636c732d6c616e642d31357b66696c6c3a20233038323632663b7d2e636c732d6c616e642d31367b66696c6c3a20233165363337653b7d2e636c732d6c616e642d31377b66696c6c3a20236461643964633b7d2e636c732d6c616e642d31387b66696c6c3a20236330626663303b7d2e636c732d6c616e642d31397b66696c6c3a20236161363633383b7d2e636c732d6c616e642d32307b66696c6c3a20236161363838623b7d2e636c732d6c616e642d32317b66696c6c3a20233839626663613b7d2e636c732d6c616e642d32327b66696c6c3a20236235616662353b7d2e636c732d6c616e642d32337b66696c6c3a20233865353433373b7d2e636c732d6c616e642d32347b66696c6c3a20233964356137653b7d2e636c732d6c616e642d32357b66696c6c3a20233835343636373b7d2e636c732d6c616e642d32367b66696c6c3a20233933386139353b7d2e636c732d6c616e642d32377b66696c6c3a20233734343433353b7d2e636c732d6c616e642d32387b66696c6c3a20233662333635333b7d3c2f7374796c653e203c6c696e6561724772616469656e742069643d226c696e6561722d6772616469656e74222078313d22313030372e3532222079313d2238332e3933222078323d223738372e3932222079323d223234312e323422206772616469656e74556e6974733d227573657253706163654f6e557365223e203c73746f70206f66667365743d2230222073746f702d636f6c6f723d2223373362316265222f3e203c73746f70206f66667365743d222e36222073746f702d636f6c6f723d2223333639396165222f3e203c73746f70206f66667365743d2231222073746f702d636f6c6f723d2223303133323430222f3e203c2f6c696e6561724772616469656e743e203c6c696e6561724772616469656e742069643d226c696e6561722d6772616469656e742d32222078313d22313536392e3332222079313d223130392e3031222078323d22313432392e3131222079323d223238342e313722206772616469656e74556e6974733d227573657253706163654f6e557365223e203c73746f70206f66667365743d2230222073746f702d636f6c6f723d2223346339626230222f3e203c73746f70206f66667365743d2231222073746f702d636f6c6f723d2223313732653432222f3e203c2f6c696e6561724772616469656e743e203c6c696e6561724772616469656e742069643d226c696e6561722d6772616469656e742d33222078313d22313232312e3338222079313d223136302e3237222078323d22313137372e3939222079323d223233332e383322206772616469656e74556e6974733d227573657253706163654f6e557365223e203c73746f70206f66667365743d2230222073746f702d636f6c6f723d2223376338393964222f3e203c73746f70206f66667365743d2231222073746f702d636f6c6f723d2223336534373565222f3e203c2f6c696e6561724772616469656e743e203c2f646566733e203c673e203c673e203c7061746820636c6173733d22636c732d6c616e642d312220643d224d3735322e30312c31322e39336331382e382c31322e35332c3135302e37312c3130352e38322c3136312e31342c3130352e30312c372e32352c33322e32352c33332e34382c32372e382c35382e36392c33372e31362c32342e35322c392e312c34382e34362c31392e33362c37322e36312c32392e30382c34372e32382c31392e30322c39332e372c33392e35342c3134312e32342c35382e31362d32352e34372c332e39332d35302e31312c31302e372d37352e362c31342e35342d32352e39392c312e34382d34352e38352d392e31332d39372e34382d362e3436712d3132352e38332d34392e32372d3235312e36352d39382e3534632d32332e39342d33312e39322d38312e39352d34352e39312d3131332e33392d36362e32342d32332e30342d31342e38392d31352e372d31372e30332d31362e39312d31372e3737513638312e38392c33332e39332c3733332e31312c3063322e36312d2e32322c31352e34322c31302e36312c31382e392c31322e39325a222f3e203c673e203c7061746820636c6173733d22636c732d6c616e642d31342220643d224d3933392e30312c3236302e31632d2e32382e37382d332e372c332e31392d332e39382c332e32332d31392e35382c322e38312d39312e34352d31382e39362d3230362e38392c302d32312e382c332e35382d34382e39382c31312e342d37312e36322c31362e31352d32332e33342c342e392d34362e332c31312e31312d36392e36332c31362e31352d32382e35392c362e31382d35362e39352c31332e32362d38352e35342c31392e33392d32312e39312c342e36392d34332e36372c31302e31372d36352e36352c31342e35342d32322e392c342e35362d34342e38382c31312e30322d36382e36332c31322e39322d36302e31362d322e34322d3132302e37392d352e31322d3138312e30332d342e38352d31372e34322e30382d34302e35382c362e31382d35392e36382c362e34362d32392e39312d31302e34392d37322e362c332e34342d3130302e34362d362e34362c35302e30322d32362e31362c39352e34372d35372e37392c3133352e32382d39332e372c31342e332d362e36352c35352e31332d34322e362c37322e36312d35342e39332c33302e39332d32312e38312c36342e352d34312e33312c39352e34392d36332c33352e33352d32342e37352c36392e32322d35312e31342c3130342e34342d37352e39332c392e36392d362e38322c35392e39392d34332e35322c36332e36362d34352e32332c342e30352c32312e37372c352e34382c34352e34352d31312e39342c36332e38317132362e38362c31342e35342c35332e37312c32392e30382d31382e342c312e32312d33362e382c322e3432633134322e34322c35382e36342c3238392e31322c3131302e342c3433362e36362c3135392e39335a222f3e203c7061746820636c6173733d22636c732d6c616e642d32312220643d224d3633302e36362c36372e383563312e32312e37342d362e31332c322e38382c31362e39312c31372e37372c33312e34352c32302e33332c38392e34352c33342e33312c3131332e33392c36362e3234713132352e38332c34392e32372c3235312e36352c39382e3534632d32312e31312c312e30392d36322e31312c31302e37372d37332e36312c392e36392d3134372e35352d34392e35342d3239342e32342d3130312e32392d3433362e36362d3135392e39337131382e342d312e32312c33362e382d322e34322d32362e38362d31342e35342d35332e37312d32392e30386331372e34322d31382e33362c31352e39392d34322e30342c31312e39342d36332e38312e34322d2e322e35392d342e332c382e39352d332e32332c33382e35322c32352e32362c38352e30362c34322e312c3132342e33332c36362e32345a222f3e203c2f673e203c673e203c7061746820636c6173733d22636c732d6c616e642d382220643d224d3538362e392c3239352e3634632d342e30312c392e30332c34382e37332c332e312c37322e36312c332e32332c3131372e392e36342c3233362e32322c372e322c3335342e312c392e36392c34362e332e39382c39322e39382d2e392c3133392e32352c302c33362e31332e372c3131382e38312c362e37362c3132372e33322c362e34362c352e39342d2e32312c342e33362d2e36362c362e39362d342e38352c31312e38382c342e34392c33322e39352c31302e31352c32392e38342c31332e37332d3132382e38392c392e38382d3235392e342d2e31372d3338382e39322c322e34322d39382e30392d312e38362d3139362e33372d362e33362d3239342e34322d382e30382d34312e34312d2e37332d38342e33352c332e32332d3132352e33332c312e36322d2e34362d2e30322d382e37342d322e322d362e39362d342e38352c32382e35392d362e31322c35362e39362d31332e322c38352e35342d31392e33395a222f3e203c7061746820636c6173733d22636c732d6c616e642d32382220643d224d3635362e35322c3237392e34386c2e39392c342e3835713233312e37362c342e30342c3436332e35322c382e30386333362e39342c342e31372c37342e32362c342e372c3131312e342c362e34362e39392e30352c31352e39392c362e33352c31362e39312d312e36322e34322e31342c322e35352e34342c352e39372c312e36322c31302e35392c332e36342c32312e34312c372e33372c33312e38332c31312e33312d322e362c342e31392d312e30322c342e36332d362e39362c342e38352d382e35312e332d39312e31392d352e37362d3132372e33322d362e34362d34362e32372d2e392d39322e39352e39382d3133392e32352c302d3131372e38392d322e34392d3233362e322d392e30352d3335342e312d392e36392d32332e38382d2e31332d37362e36322c352e382d37322e36312d332e32332c32332e33332d352e30342c34362e32392d31312e32352c36392e36332d31362e31355a222f3e203c7061746820636c6173733d22636c732d6c616e642d32352220643d224d313137372e37332c3237392e343863382e35342c322e30332c32362e31362c372e322c33312e38332c342e38352c31332e34322c332e39372c32362e36312c382e34362c33392e37392c31322e39322d2e39322c372e39362d31352e39322c312e36362d31362e39312c312e36322d33372e31352d312e37362d37342e34372d322e332d3131312e342d362e3436712d3233312e37362d342e30342d3436332e35322d382e30386c2d2e39392d342e38356332322e36342d342e37362c34392e38312d31322e35372c37312e36322d31362e31352c3131332e37372c31302e332c3233302e33362c362e36352c3334352e31352c31312e33312c31372e37362e37322c33362e32342c332e382c35332e37312c342e38352c31382e32372c312e312c32302e37392d312e36372c32312e38382d312e36322c312e35372e30382c372e312c362e31372c32382e38352c312e36325a222f3e203c7061746820636c6173733d22636c732d6c616e642d32342220643d224d3933352e30332c3236332e33336c2d2e39392c332e3233713131322e342c332e32332c3232342e382c362e343663362e32392e372c31372e35312c362e31332c31382e392c362e34362d32312e37352c342e35362d32372e32382d312e35332d32382e38352d312e36322d312e312d2e30362d332e36312c322e37312d32312e38382c312e36322d31372e34372d312e30352d33352e39362d342e31332d35332e37312d342e38352d3131342e382d342e36352d3233312e33382d312e30312d3334352e31352d31312e33312c3131352e34352d31382e39362c3138372e33312c322e38312c3230362e38392c305a222f3e203c7061746820636c6173733d22636c732d6c616e642d32302220643d224d313031322e36322c3235302e346335312e36332d322e36372c37312e34392c372e39342c39372e34382c362e34362c302c312e30372d2e35362c322e37392e39392c332e32332c392e35332c322e37322c33392e35322c372e38312c36342e36352c31342e35342c31312e33332c332e30332c32322e36312c362e33382c33332e38322c392e36392d352e36372c322e33362d32332e32392d322e38322d33312e38332d342e38352d312e33392d2e33332d31322e36312d352e37362d31382e392d362e3436712d3131322e342d332e32332d3232342e382d362e34366c2e39392d332e3233632e32382d2e30342c332e372d322e34352c332e39382d332e32332c31312e352c312e30372c35322e34392d382e362c37332e36312d392e36395a222f3e203c2f673e203c7061746820636c6173733d22636c732d6c616e642d322220643d224d313537332e36322c3133302e383663392e31312c362e36352c32362e34372c392e31372c33352e38312c31322e39322c31392e35382c372e38372c33382e35342c31372e32342c35382e36392c32342e32332c372e32372c322e35322c32302e32362c332e37332c32382e38352c362e34362c332e36332c312e31362c31322e36382e39352c31382e392c332e32337134342e32362c32382e32372c38382e35332c35362e3534632d31352e36352d342e39362d34312e35322d392e31352d35382e36392d31322e39322d32362e36392d36312e38362d3134302e32382d382e35372d3139302e39382c392e36392d35392e35342d352e36392d3131392e39352d31302e33382d3138302e30342d392e36392d33312e34322d31392e32332d36392e36332d34342e33342d3131302e34312d34332e36322d32302e39322d31392e31382d34312e35332d32312e32372d36302e36382d33302e36397139352e39392d36332c3139312e39372d3132362e30312c38392e30322c35342e39332c3137382e30352c3130392e38355a222f3e203c673e203c7061746820636c6173733d22636c732d6c616e642d31342220643d224d313830342e33382c3233342e323563352e35392c312e37372c31312e31382c332e34312c31362e39312c342e38352c31382e33392c382e36312c32322e33342c33332c38302e35372c37342e33312c31362e35352c31312e37342c33342e322c32312e36352c35312e37322c33322e3331712d35332e32322d312e36322d3130362e34332d332e3233632d35312e32392d31322e34312d33312e32352d31342e332d33392e37392d32312d2e382d2e36332d31332e342d332e35352d32302e38392d362e34362d392e36342d332e37352d31392e39382d362e33392d32392e38342d392e36392d31372e36392d352e39332d33352e382d31302e37352d35332e37312d31362e31352d32322e35362d362e38312d34342e36322d31332e35362d36372e36342d31392e33392d31312e31342d322e38322d32322e36362d372e32372d33332e38322d392e36392d3130352e35332d32322e39322d3134372e33322d31332e33322d3235302e36362d342e38352d32332e392c312e39362d34372e37382c342e30332d37312e36322c362e34362d31342e362c312e34392d32392e31392c332e32332d34332e37372c342e38352d31392e39352c322e32312d34302e32362c332e34312d35392e36382c382e30382d32352e31332d362e37332d35352e31332d31312e38322d36342e36352d31342e35342d312e35352d2e34342d2e39392d322e31362d2e39392d332e32332c32352e34392d332e38332c35302e31332d31302e36312c37352e362d31342e35342c36332e31332d392e37342c3132342e33342d32302e32362c3138382e39392d32312c36302e30382d2e36392c3132302e34392c342e30312c3138302e30342c392e36392c35302e372d31382e32362c3136342e32392d37312e35352c3139302e39382d392e36392c31372e31372c332e37382c34332e30342c372e39362c35382e36392c31322e39325a222f3e203c673e203c7061746820636c6173733d22636c732d6c616e642d31332220643d224d313735362e36342c3330352e333363392e38362c332e33312c32302e322c352e39352c32392e38342c392e36392e39352c332e37382d2e39362c352e31372d342e39372c362e34362d392e31372c322e39342d3131392e35322c31302e38382d3133372e32372c31312e33312d37352e38352c312e38322d3138342e342d362e35372d3236342e35382d342e38352d34392e32362d31302e36382d35382e31382c312e34392d33312e38332d312e36322d332e31372c372e30342c32302e30352c342e36362c31312e39342c31312e33312d362e36392c352e34382d37372e36382e39392d39312e35312c342e38352d3237332e392d2e322d3534372e37352d332e31332d3832312e362d362e3436712d352e34372d332e32332d31302e39342d362e34366332312e39372d342e33372c34332e37342d392e38352c36352e36352d31342e35342d312e37382c322e36342c362e352c342e38332c362e39362c342e38352c34302e39382c312e36322c38332e39322d322e33342c3132352e33332d312e36322c39382e30362c312e37322c3139362e33342c362e32322c3239342e34322c382e30382c3132392e35322d322e362c3236302e30332c372e34362c3338382e39322d322e34322c332e31312d332e35382d31372e39362d392e32342d32392e38342d31332e37332d31302e34322d332e39342d32312e32342d372e36372d33312e38332d31312e33312c382e35352d392e32362c34312e33392c352e34342c36352e36352c342e30346c2d322e39382d322e343271372e39362e38312c31352e39312c312e36326c2d372e39362c332e32336336322e33392d322e37352c3132342e37312c322e35362c3138372c332e32332c36362e39342e37322c3133342e31312d322e34362c3230302e39322d312e36322c31322e39382e31362c33332e36312c372e31382c34322e37372d312e36325a222f3e203c7061746820636c6173733d22636c732d6c616e642d31302220643d224d313233352e34332c3236362e3536632e31392c312e34332d2e38312c342e31372e39392c342e38352c352e35342c322e30392c3130362e39312c31302e34342c3132312e33352c31312e33312c38382c352e32362c3137362e36332c312e39372c3236342e35382c342e38352c32362e36352e38372c36382e342c392e38342c38302e35372c312e36322c31372e39312c352e34312c33362e30322c31302e32322c35332e37312c31362e31352d392e31362c382e37392d32392e37392c312e37382d34322e37372c312e36322d36362e38312d2e38352d3133332e39382c322e33332d3230302e39322c312e36322d36322e32392d2e36372d3132342e36312d352e39382d3138372d332e32336c372e39362d332e3233712d372e39362d2e38312d31352e39312d312e36326c322e39382c322e3432632d32342e32352c312e342d35372e312d31332e332d36352e36352d342e30342d332e34312d312e31372d352e35352d312e34372d352e39372d312e36322d31332e31382d342e34372d32362e33372d382e39362d33392e37392d31322e39322d31312e32312d332e33312d32322e34392d362e36362d33332e38322d392e36392c31392e34322d342e36362c33392e37332d352e38372c35392e36382d382e30385a222f3e203c7061746820636c6173733d22636c732d6c616e642d32372220643d224d313237392e31392c3236312e37316331322e33352c312e31342c31362e30322c342e37352c31362e39312c342e38352c36362e31332c372e32352c3232372e392c392e38382c3330302e33392c392e36392c31362e38392d2e30342c32352e30382c372e37392c33382e37392d362e34362c32332e30312c352e38322c34352e30382c31322e35382c36372e36342c31392e33392d31322e31372c382e32322d35332e39322d2e37352d38302e35372d312e36322d38372e39352d322e38372d3137362e35392e34322d3236342e35382d342e38352d31342e34342d2e38362d3131352e38312d392e32322d3132312e33352d31312e33312d312e382d2e36382d2e382d332e34322d2e39392d342e38352c31342e35382d312e36312c32392e31372d332e33362c34332e37372d342e38355a222f3e203c7061746820636c6173733d22636c732d6c616e642d31392220643d224d313630312e34372c3236302e31632d322e35332c382e36322d32322e37382c31312e34352d32302e38392c312e36322d31352e36352c31322e34372d38302e32342d2e33372d3131372e33372c332e32332d312e35322d2e30342d2e34372d332e31382d312e39392d332e32332d32312e39332d2e37312d34352e32322c322e37362d36372e36342c312e36322d31322e35352d2e36342d33382e38352d322e32322d34322e37372d382e30382c3130332e33342d382e34372c3134352e31322d31382e30372c3235302e36362c342e38355a222f3e203c7061746820636c6173733d22636c732d6c616e642d32332220643d224d313335302e38312c3235352e323563332e39322c352e38362c33302e32322c372e34342c34322e37372c382e30382c32322e34322c312e31342c34352e37312d322e33332c36372e36342d312e36322c312e35322e30352e34372c332e31392c312e39392c332e32332c33372e31332d332e362c3130312e37322c392e32342c3131372e33372d332e32332d312e38392c392e38332c31382e33362c372c32302e38392d312e36322c31312e31362c322e34322c32322e36382c362e38372c33332e38322c392e36392d31332e37312c31342e32352d32312e392c362e34322d33382e37392c362e34362d37322e352e31392d3233342e32362d322e34342d3330302e33392d392e36392d2e38392d2e312d342e35362d332e372d31362e39312d342e38352c32332e38332d322e34332c34372e37312d342e352c37312e36322d362e34365a222f3e203c2f673e203c2f673e203c673e203c7061746820636c6173733d22636c732d6c616e642d332220643d224d313230332e362c3134372e30316331392e31342c392e34322c33392e37362c31312e35312c36302e36382c33302e36392c34302e37382d2e37332c37382e39392c32342e33392c3131302e34312c34332e36322d36342e36352e37342d3132352e38362c31312e32362d3138382e39392c32312d34372e35352d31382e36322d39332e39362d33392e31342d3134312e32342d35382e31362d322e31322d362e38392d31312e35362d31302e36332d31372e392d31342e35342c392e392e39322c33322e35382d352e39352c34322e37372d392e36392c312e39382d2e37332e35382d342e36382e39392d342e38352c322e31362d2e38352c342e33352c322e39332c31302e39342c302c31312e32332d352c36352e30372d34302e30362c36392e36332d34302e33392c32302e36322c372e33332c33332e38342c32332e30322c35322e37322c33322e33315a222f3e203c673e203c7061746820636c6173733d22636c732d6c616e642d31352220643d224d313032362e35342c3136392e363363362e33342c332e39312c31352e37382c372e36352c31372e392c31342e35342d32342e31362d392e37322d34382e30392d31392e39382d37322e36312d32392e30382d32352e322d392e33362d35312e34342d342e39312d35382e36392d33372e31367132352e38362d31352e33352c35312e37322d33302e36396332312e37362c32312e30342c33362e30372c34362e38382c34332e37372c37332e352c352e36312c362e32322c31362e33342c372e39322c31372e392c382e38395a222f3e203c7061746820636c6173733d22636c732d6c616e642d31362220643d224d313037302e33312c3135352e3039632d2e34312e31362e39382c342e31322d2e39392c342e38352d31302e31392c332e37342d33322e38372c31302e36322d34322e37372c392e36392d312e35362d2e39372d31322e32392d322e36372d31372e392d382e38392d372e372d32362e36322d32322e30312d35322e34362d34332e37372d37332e356c342e39372d312e36327135302e32332c33342e37332c3130302e34362c36392e34375a222f3e203c2f673e203c2f673e203c673e203c7061746820636c6173733d22636c732d6c616e642d392220643d224d313639362e39362c3137342e3438632d382e35382d322e37332d32312e35372d332e39342d32382e38352d362e34362d32302e31352d362e39392d33392e31312d31362e33362d35382e36392d32342e323371332e39382d31372e37372c372e39362d33352e35342c322e34392d2e38312c342e39372d312e36326332382e35342c31392e392c35342e37332c34312e37322c37342e362c36372e38355a222f3e203c7061746820636c6173733d22636c732d6c616e642d31342220643d224d313630392e34322c3134332e3738632d392e33342d332e37352d32362e372d362e32382d33352e38312d31322e39327132312e38382d31312e33312c34332e37372d32322e36322d332e39382c31372e37372d372e39362c33352e35345a222f3e203c2f673e203c2f673e203c673e203c7061746820636c6173733d22636c732d6c616e642d31382220643d224d323033372e31332c3436322e3033632d2e30382c33342e32362c332e30372c3233322c302c3234332e39346c2d313839322e38372d312e3632632d32382e36372c342e32352d36332e32352d2e35392d39302e35322c362e3436482e3034632d2e31352d38322e33392e322d3136342e37382c302d3234372e313771313031382e35352d2e38312c323033372e312d312e36325a222f3e203c673e203c7061746820636c6173733d22636c732d6c616e642d31312220643d224d313935332e35382c3334352e373263372e31352c342e33352c31342e36332c382e36382c32312e38382c31322e3932482e303463302d332e32332c302d362e34362c302d392e36392c322e34332e33382c342e30382d2e372c352e39372d312e36322c362e35312d332e31362c31332e35372d362e33382c31392e38392d392e36392c32372e38362c392e392c37302e35352d342e30332c3130302e34362c362e34362c31392e312d2e32392c34322e32362d362e33382c35392e36382d362e34362c36302e32342d2e32382c3132302e38372c322e34322c3138312e30332c342e38352c32332e37362d312e392c34352e37332d382e33372c36382e36332d31322e393271352e34372c332e32332c31302e39342c362e3436633237332e38352c332e33332c3534372e372c362e32362c3832312e362c362e34362c31332e38332d332e38362c38342e38322e36342c39312e35312d342e38352c382e31322d362e36352d31352e312d342e32372d31312e39342d31312e33312d32362e33352c332e31312d31372e34332d392e30362c33312e38332c312e36322c38302e31392d312e37322c3138382e37332c362e36372c3236342e35382c342e38352c31372e37352d2e34332c3132382e30392d382e33372c3133372e32372d31312e33312c342e30322d312e32392c352e39322d322e36382c342e39372d362e34362c372e34392c322e39312c32302e30382c352e38332c32302e38392c362e34362c382e35342c362e37312d31312e35312c382e35392c33392e37392c32317135332e32322c312e36322c3130362e34332c332e32335a222f3e203c7061746820636c6173733d22636c732d6c616e642d372220643d224d323033372e31332c3430372e313163302c352e33382c302c31302e37372c302c31362e31352d3637392e30332c332e31352d313335382e31322d332e39372d323033372e312c332e32332c302d352e33382c302d31302e37372c302d31362e31352c36332e31372d332e30392c3132362e37332d342e32322c3138392e39382d342e38352c3631352e34392d362e312c313233312e35372c332e33382c313834372e31312c312e36325a222f3e203c7061746820636c6173733d22636c732d6c616e642d362220643d224d323032352e322c3338372e373263332e39342c322e37312c372e37332c352e36342c31312e39342c382e30382c302c312e36322c302c332e32332c302c342e38356c2d313936342e34392d312e3632712d33362e33312c312e36322d37322e36312c332e323363302d352e33382c302d31302e37372c302d31362e31352c3536372e32382d322e35312c313133342e362d322e39312c313730312e38392d332e32332c38302e36322d2e30352c3231342e39372c362e30312c3238382e34362c312e36322e38342d2e30352c332e30382d332e31342c332e39382d332e32332e39372d2e312c312e32372c392e352c31342e39322d332e32332c352e332c332e32382c31302e37342c362e31332c31352e39312c392e36395a222f3e203c7061746820636c6173733d22636c732d6c616e642d342220643d224d313939392e33342c3337312e353763332e34382c322e30372c362e36322c342e342c392e39352c362e34362d31332e36352c31322e37332d31332e39352c332e31332d31342e39322c332e32332d2e392e30392d332e31332c332e31382d332e39382c332e32332d37332e34392c342e342d3230372e38342d312e36362d3238382e34362d312e36322d3536372e32392e33322d313133342e36312e37322d313730312e38392c332e32332c302d342e33312c302d382e36322c302d31322e39322c3536312e32362d352e30322c313132322e36372c312e35322c313638332e39392d332e32332c39302e34372c352e34342c3231332e37392d312e36372c3330302e33392c332e32332c342e36382e32362c352e34332c31302e38342c31342e39322d312e36325a222f3e203c7061746820636c6173733d22636c732d6c616e642d31322220643d224d313937352e34362c3335382e363463372e37312c342e35312c31362e30382c382e32392c32332e38372c31322e39322d392e34392c31322e34362d31302e32342c312e38382d31342e39322c312e36322d38362e36312d342e392d3230392e39322c322e32312d3330302e33392d332e32332d3536312e33322c342e37362d313132322e37332d312e37392d313638332e39392c332e32332c302d342e38352c302d392e36392c302d31342e353468313937352e34335a222f3e203c7061746820636c6173733d22636c732d6c616e642d32362220643d224d323033372e31332c3432332e323663302c332e37372c302c372e35342c302c31312e33312d3637392e30332c342e37342d313335382e312d322e30392d323033372e312c332e32332c302d332e37372c302d372e35342c302d31312e33312c3637382e39382d372e322c313335382e30372d2e30382c323033372e312d332e32335a222f3e203c7061746820636c6173733d22636c732d6c616e642d32362220643d224d323033372e31332c3433342e353763302c332e37372c302c372e35342c302c31312e33312d3637392e30332c342e33322d313335382e30362e36362d323033372e312c312e36322c302d332e32332c302d362e34362c302d392e36392c3637392d352e33322c313335382e30372c312e35312c323033372e312d332e32335a222f3e203c7061746820636c6173733d22636c732d6c616e642d32322220643d224d323033372e31332c3435322e333463302c332e32332c302c362e34362c302c392e3639712d313031382e35352e38312d323033372e312c312e363263302d322e36392c302d352e33382c302d382e30382c3637392e30312d342e38332c313335382e31382c342e36372c323033372e312d332e32335a222f3e203c7061746820636c6173733d22636c732d6c616e642d32322220643d224d323033372e31332c3434352e383863302c322e31352c302c342e33312c302c362e34362d3637382e39322c372e39312d313335382e30382d312e362d323033372e312c332e32332c302d322e36392c302d352e33382c302d382e30382c3637392e30342d2e39352c313335382e30372c322e37312c323033372e312d312e36325a222f3e203c7061746820636c6173733d22636c732d6c616e642d352220643d224d323033372e31332c3430302e363463302c322e31352c302c342e33312c302c362e34362d3631352e35342c312e37362d313233312e36322d372e37322d313834372e31312d312e36322d36332e32352e36332d3132362e38312c312e37362d3138392e39382c342e38352c302d322e36392c302d352e33382c302d382e30387133362e33312d312e36322c37322e36312d332e32336c313936342e34392c312e36325a222f3e203c2f673e203c7061746820636c6173733d22636c732d6c616e642d31372220643d224d323033372e31332c3730352e3937632d2e33392c312e35312e32332c332e32392c302c342e38354835332e37356332372e32372d372e30362c36312e38342d322e32312c39302e35322d362e34366c313839322e38372c312e36325a222f3e203c2f673e203c2f673e203c2f673ea2646970667358221220152c3f03ef5329de2aa222664a91c945166f4c1c64ac2487b5c901dcc2da268b64736f6c63430008140033",
  "devdoc": {
    "kind": "dev",
    "methods": {},
    "version": 1
  },
  "userdoc": {
    "kind": "user",
    "methods": {},
    "version": 1
  },
  "storageLayout": {
    "storage": [],
    "types": null
  }
}