{
  "address": "0x48Bd5d3a4d315796dd0860666A4Bfd244417CC38",
  "abi": [
    {
      "inputs": [
        {
          "internalType": "string",
          "name": "_nameString",
          "type": "string"
        },
        {
          "internalType": "string",
          "name": "_symbol",
          "type": "string"
        },
        {
          "internalType": "string",
          "name": "_tokenArtIPFSId",
          "type": "string"
        },
        {
          "internalType": "string",
          "name": "_description",
          "type": "string"
        }
      ],
      "stateMutability": "nonpayable",
      "type": "constructor"
    },
    {
      "inputs": [],
      "name": "ECDSAInvalidSignature",
      "type": "error"
    },
    {
      "inputs": [
        {
          "internalType": "uint256",
          "name": "length",
          "type": "uint256"
        }
      ],
      "name": "ECDSAInvalidSignatureLength",
      "type": "error"
    },
    {
      "inputs": [
        {
          "internalType": "bytes32",
          "name": "s",
          "type": "bytes32"
        }
      ],
      "name": "ECDSAInvalidSignatureS",
      "type": "error"
    },
    {
      "inputs": [
        {
          "internalType": "address",
          "name": "sender",
          "type": "address"
        },
        {
          "internalType": "uint256",
          "name": "tokenId",
          "type": "uint256"
        },
        {
          "internalType": "address",
          "name": "owner",
          "type": "address"
        }
      ],
      "name": "ERC721IncorrectOwner",
      "type": "error"
    },
    {
      "inputs": [
        {
          "internalType": "address",
          "name": "operator",
          "type": "address"
        },
        {
          "internalType": "uint256",
          "name": "tokenId",
          "type": "uint256"
        }
      ],
      "name": "ERC721InsufficientApproval",
      "type": "error"
    },
    {
      "inputs": [
        {
          "internalType": "address",
          "name": "approver",
          "type": "address"
        }
      ],
      "name": "ERC721InvalidApprover",
      "type": "error"
    },
    {
      "inputs": [
        {
          "internalType": "address",
          "name": "operator",
          "type": "address"
        }
      ],
      "name": "ERC721InvalidOperator",
      "type": "error"
    },
    {
      "inputs": [
        {
          "internalType": "address",
          "name": "owner",
          "type": "address"
        }
      ],
      "name": "ERC721InvalidOwner",
      "type": "error"
    },
    {
      "inputs": [
        {
          "internalType": "address",
          "name": "receiver",
          "type": "address"
        }
      ],
      "name": "ERC721InvalidReceiver",
      "type": "error"
    },
    {
      "inputs": [
        {
          "internalType": "address",
          "name": "sender",
          "type": "address"
        }
      ],
      "name": "ERC721InvalidSender",
      "type": "error"
    },
    {
      "inputs": [
        {
          "internalType": "uint256",
          "name": "tokenId",
          "type": "uint256"
        }
      ],
      "name": "ERC721NonexistentToken",
      "type": "error"
    },
    {
      "inputs": [],
      "name": "InvalidSignature",
      "type": "error"
    },
    {
      "inputs": [
        {
          "internalType": "uint256",
          "name": "tokenId",
          "type": "uint256"
        }
      ],
      "name": "InvalidTokenId",
      "type": "error"
    },
    {
      "inputs": [
        {
          "internalType": "address",
          "name": "owner",
          "type": "address"
        }
      ],
      "name": "OwnableInvalidOwner",
      "type": "error"
    },
    {
      "inputs": [
        {
          "internalType": "address",
          "name": "account",
          "type": "address"
        }
      ],
      "name": "OwnableUnauthorizedAccount",
      "type": "error"
    },
    {
      "inputs": [],
      "name": "SoulboundToken",
      "type": "error"
    },
    {
      "anonymous": false,
      "inputs": [
        {
          "indexed": true,
          "internalType": "address",
          "name": "owner",
          "type": "address"
        },
        {
          "indexed": true,
          "internalType": "address",
          "name": "approved",
          "type": "address"
        },
        {
          "indexed": true,
          "internalType": "uint256",
          "name": "tokenId",
          "type": "uint256"
        }
      ],
      "name": "Approval",
      "type": "event"
    },
    {
      "anonymous": false,
      "inputs": [
        {
          "indexed": true,
          "internalType": "address",
          "name": "owner",
          "type": "address"
        },
        {
          "indexed": true,
          "internalType": "address",
          "name": "operator",
          "type": "address"
        },
        {
          "indexed": false,
          "internalType": "bool",
          "name": "approved",
          "type": "bool"
        }
      ],
      "name": "ApprovalForAll",
      "type": "event"
    },
    {
      "anonymous": false,
      "inputs": [
        {
          "indexed": true,
          "internalType": "address",
          "name": "previousOwner",
          "type": "address"
        },
        {
          "indexed": true,
          "internalType": "address",
          "name": "newOwner",
          "type": "address"
        }
      ],
      "name": "OwnershipTransferred",
      "type": "event"
    },
    {
      "anonymous": false,
      "inputs": [
        {
          "indexed": true,
          "internalType": "address",
          "name": "from",
          "type": "address"
        },
        {
          "indexed": true,
          "internalType": "address",
          "name": "to",
          "type": "address"
        },
        {
          "indexed": true,
          "internalType": "uint256",
          "name": "tokenId",
          "type": "uint256"
        }
      ],
      "name": "Transfer",
      "type": "event"
    },
    {
      "inputs": [
        {
          "internalType": "address",
          "name": "to",
          "type": "address"
        },
        {
          "internalType": "uint256",
          "name": "tokenId",
          "type": "uint256"
        }
      ],
      "name": "approve",
      "outputs": [],
      "stateMutability": "nonpayable",
      "type": "function"
    },
    {
      "inputs": [
        {
          "internalType": "address",
          "name": "owner",
          "type": "address"
        }
      ],
      "name": "balanceOf",
      "outputs": [
        {
          "internalType": "uint256",
          "name": "",
          "type": "uint256"
        }
      ],
      "stateMutability": "view",
      "type": "function"
    },
    {
      "inputs": [],
      "name": "counter",
      "outputs": [
        {
          "internalType": "uint256",
          "name": "",
          "type": "uint256"
        }
      ],
      "stateMutability": "view",
      "type": "function"
    },
    {
      "inputs": [],
      "name": "description",
      "outputs": [
        {
          "internalType": "string",
          "name": "",
          "type": "string"
        }
      ],
      "stateMutability": "view",
      "type": "function"
    },
    {
      "inputs": [
        {
          "internalType": "uint256",
          "name": "tokenId",
          "type": "uint256"
        }
      ],
      "name": "getApproved",
      "outputs": [
        {
          "internalType": "address",
          "name": "",
          "type": "address"
        }
      ],
      "stateMutability": "view",
      "type": "function"
    },
    {
      "inputs": [
        {
          "internalType": "address",
          "name": "owner",
          "type": "address"
        },
        {
          "internalType": "address",
          "name": "operator",
          "type": "address"
        }
      ],
      "name": "isApprovedForAll",
      "outputs": [
        {
          "internalType": "bool",
          "name": "",
          "type": "bool"
        }
      ],
      "stateMutability": "view",
      "type": "function"
    },
    {
      "inputs": [
        {
          "internalType": "address",
          "name": "_recipient",
          "type": "address"
        },
        {
          "internalType": "bytes",
          "name": "_signature",
          "type": "bytes"
        }
      ],
      "name": "mintTo",
      "outputs": [],
      "stateMutability": "nonpayable",
      "type": "function"
    },
    {
      "inputs": [],
      "name": "name",
      "outputs": [
        {
          "internalType": "string",
          "name": "",
          "type": "string"
        }
      ],
      "stateMutability": "view",
      "type": "function"
    },
    {
      "inputs": [],
      "name": "nameString",
      "outputs": [
        {
          "internalType": "string",
          "name": "",
          "type": "string"
        }
      ],
      "stateMutability": "view",
      "type": "function"
    },
    {
      "inputs": [],
      "name": "owner",
      "outputs": [
        {
          "internalType": "address",
          "name": "",
          "type": "address"
        }
      ],
      "stateMutability": "view",
      "type": "function"
    },
    {
      "inputs": [
        {
          "internalType": "uint256",
          "name": "tokenId",
          "type": "uint256"
        }
      ],
      "name": "ownerOf",
      "outputs": [
        {
          "internalType": "address",
          "name": "",
          "type": "address"
        }
      ],
      "stateMutability": "view",
      "type": "function"
    },
    {
      "inputs": [],
      "name": "renounceOwnership",
      "outputs": [],
      "stateMutability": "nonpayable",
      "type": "function"
    },
    {
      "inputs": [
        {
          "internalType": "address",
          "name": "from",
          "type": "address"
        },
        {
          "internalType": "address",
          "name": "to",
          "type": "address"
        },
        {
          "internalType": "uint256",
          "name": "tokenId",
          "type": "uint256"
        }
      ],
      "name": "safeTransferFrom",
      "outputs": [],
      "stateMutability": "nonpayable",
      "type": "function"
    },
    {
      "inputs": [
        {
          "internalType": "address",
          "name": "from",
          "type": "address"
        },
        {
          "internalType": "address",
          "name": "to",
          "type": "address"
        },
        {
          "internalType": "uint256",
          "name": "tokenId",
          "type": "uint256"
        },
        {
          "internalType": "bytes",
          "name": "data",
          "type": "bytes"
        }
      ],
      "name": "safeTransferFrom",
      "outputs": [],
      "stateMutability": "nonpayable",
      "type": "function"
    },
    {
      "inputs": [
        {
          "internalType": "address",
          "name": "operator",
          "type": "address"
        },
        {
          "internalType": "bool",
          "name": "approved",
          "type": "bool"
        }
      ],
      "name": "setApprovalForAll",
      "outputs": [],
      "stateMutability": "nonpayable",
      "type": "function"
    },
    {
      "inputs": [
        {
          "internalType": "bytes4",
          "name": "interfaceId",
          "type": "bytes4"
        }
      ],
      "name": "supportsInterface",
      "outputs": [
        {
          "internalType": "bool",
          "name": "",
          "type": "bool"
        }
      ],
      "stateMutability": "view",
      "type": "function"
    },
    {
      "inputs": [],
      "name": "symbol",
      "outputs": [
        {
          "internalType": "string",
          "name": "",
          "type": "string"
        }
      ],
      "stateMutability": "view",
      "type": "function"
    },
    {
      "inputs": [],
      "name": "tokenArtIPFSId",
      "outputs": [
        {
          "internalType": "string",
          "name": "",
          "type": "string"
        }
      ],
      "stateMutability": "view",
      "type": "function"
    },
    {
      "inputs": [
        {
          "internalType": "uint256",
          "name": "_tokenId",
          "type": "uint256"
        }
      ],
      "name": "tokenURI",
      "outputs": [
        {
          "internalType": "string",
          "name": "",
          "type": "string"
        }
      ],
      "stateMutability": "view",
      "type": "function"
    },
    {
      "inputs": [
        {
          "internalType": "address",
          "name": "from",
          "type": "address"
        },
        {
          "internalType": "address",
          "name": "to",
          "type": "address"
        },
        {
          "internalType": "uint256",
          "name": "tokenId",
          "type": "uint256"
        }
      ],
      "name": "transferFrom",
      "outputs": [],
      "stateMutability": "nonpayable",
      "type": "function"
    },
    {
      "inputs": [
        {
          "internalType": "address",
          "name": "newOwner",
          "type": "address"
        }
      ],
      "name": "transferOwnership",
      "outputs": [],
      "stateMutability": "nonpayable",
      "type": "function"
    },
    {
      "inputs": [
        {
          "internalType": "address",
          "name": "_recipient",
          "type": "address"
        },
        {
          "internalType": "bytes",
          "name": "_signature",
          "type": "bytes"
        }
      ],
      "name": "validateSignature",
      "outputs": [
        {
          "internalType": "bool",
          "name": "",
          "type": "bool"
        }
      ],
      "stateMutability": "view",
      "type": "function"
    }
  ],
  "transactionHash": "0xd62be8427989ddaa7cfaa50b26fe8c7133edeb2d35d235c825b527e374270747",
  "args": [
    "Meet Base DevRel",
    "MBD",
    "QmRsQCyTEALYnHvBupEcs2ofzeeswDEEGNt9uoBL7wHnKQ",
    "Thanks for connecting with us!"
  ],
  "numDeployments": 1,
  "solcInputHash": "636ae0e15bb4cb5bfa415c453a9b6613",
  "bytecode": "0x60806040523480156200001157600080fd5b5060405162001d5b38038062001d5b8339810160408190526200003491620001e0565b338484600062000045838262000328565b50600162000054828262000328565b5050506001600160a01b0381166200008657604051631e4fbdf760e01b81526000600482015260240160405180910390fd5b6200009181620000c9565b506008620000a0858262000328565b506009620000af828262000328565b50600a620000be838262000328565b5050505050620003f4565b600680546001600160a01b038381166001600160a01b0319831681179093556040519116919082907f8be0079c531659141344cd1fd0a4f28419497f9722a3daafe3b4186f6b6457e090600090a35050565b634e487b7160e01b600052604160045260246000fd5b600082601f8301126200014357600080fd5b81516001600160401b03808211156200016057620001606200011b565b604051601f8301601f19908116603f011681019082821181831017156200018b576200018b6200011b565b81604052838152602092508683858801011115620001a857600080fd5b600091505b83821015620001cc5785820183015181830184015290820190620001ad565b600093810190920192909252949350505050565b60008060008060808587031215620001f757600080fd5b84516001600160401b03808211156200020f57600080fd5b6200021d8883890162000131565b955060208701519150808211156200023457600080fd5b620002428883890162000131565b945060408701519150808211156200025957600080fd5b620002678883890162000131565b935060608701519150808211156200027e57600080fd5b506200028d8782880162000131565b91505092959194509250565b600181811c90821680620002ae57607f821691505b602082108103620002cf57634e487b7160e01b600052602260045260246000fd5b50919050565b601f8211156200032357600081815260208120601f850160051c81016020861015620002fe5750805b601f850160051c820191505b818110156200031f578281556001016200030a565b5050505b505050565b81516001600160401b038111156200034457620003446200011b565b6200035c8162000355845462000299565b84620002d5565b602080601f8311600181146200039457600084156200037b5750858301515b600019600386901b1c1916600185901b1785556200031f565b600085815260208120601f198616915b82811015620003c557888601518255948401946001909101908401620003a4565b5085821015620003e45787850151600019600388901b60f8161c191681555b5050505050600190811b01905550565b61195780620004046000396000f3fe608060405234801561001057600080fd5b50600436106101425760003560e01c80637284e416116100b8578063a22cb4651161007c578063a22cb46514610273578063ab57392b14610286578063b88d4fde14610299578063c87b56dd146102ac578063e985e9c5146102bf578063f2fde38b146102d257600080fd5b80637284e41614610242578063840efffc1461024a57806385d9aebd146102525780638da5cb5b1461025a57806395d89b411461026b57600080fd5b80633d3503d91161010a5780633d3503d9146101d757806342842e0e146101ea57806361bc221a146101fd5780636352211e1461021457806370a0823114610227578063715018a61461023a57600080fd5b806301ffc9a71461014757806306fdde031461016f578063081812fc14610184578063095ea7b3146101af57806323b872dd146101c4575b600080fd5b61015a610155366004611343565b6102e5565b60405190151581526020015b60405180910390f35b610177610337565b60405161016691906113b7565b6101976101923660046113ca565b6103c9565b6040516001600160a01b039091168152602001610166565b6101c26101bd3660046113ff565b6103f2565b005b6101c26101d2366004611429565b610401565b6101c26101e5366004611508565b610491565b6101c26101f8366004611429565b6104d9565b61020660075481565b604051908152602001610166565b6101976102223660046113ca565b6104f9565b610206610235366004611556565b610504565b6101c261054c565b610177610560565b6101776105ee565b6101776105fb565b6006546001600160a01b0316610197565b610177610608565b6101c2610281366004611571565b610617565b61015a610294366004611508565b610622565b6101c26102a73660046115ad565b6106d8565b6101776102ba3660046113ca565b6106ef565b61015a6102cd366004611615565b6107b7565b6101c26102e0366004611556565b6107e5565b60006001600160e01b031982166380ac58cd60e01b148061031657506001600160e01b03198216635b5e139f60e01b145b8061033157506301ffc9a760e01b6001600160e01b03198316145b92915050565b60606000805461034690611648565b80601f016020809104026020016040519081016040528092919081815260200182805461037290611648565b80156103bf5780601f10610394576101008083540402835291602001916103bf565b820191906000526020600020905b8154815290600101906020018083116103a257829003601f168201915b5050505050905090565b60006103d482610823565b506000828152600460205260409020546001600160a01b0316610331565b6103fd82823361085c565b5050565b6001600160a01b03821661043057604051633250574960e11b8152600060048201526024015b60405180910390fd5b600061043d838333610869565b9050836001600160a01b0316816001600160a01b03161461048b576040516364283d7b60e01b81526001600160a01b0380861660048301526024820184905282166044820152606401610427565b50505050565b61049b8282610622565b6104b857604051638baa579f60e01b815260040160405180910390fd5b600780549060006104c883611698565b91905055506103fd336007546108ca565b6104f4838383604051806020016040528060008152506106d8565b505050565b600061033182610823565b60006001600160a01b038216610530576040516322718ad960e21b815260006004820152602401610427565b506001600160a01b031660009081526003602052604090205490565b6105546108e4565b61055e6000610911565b565b6009805461056d90611648565b80601f016020809104026020016040519081016040528092919081815260200182805461059990611648565b80156105e65780601f106105bb576101008083540402835291602001916105e6565b820191906000526020600020905b8154815290600101906020018083116105c957829003601f168201915b505050505081565b6008805461056d90611648565b600a805461056d90611648565b60606001805461034690611648565b6103fd338383610963565b604080516bffffffffffffffffffffffff19606085901b16602080830191909152825180830360140181526034830184528051908201207f19457468657265756d205369676e6564204d6573736167653a0a33320000000060548401526070808401829052845180850390910181526090909301909352815191012060009190826106ad8286610a02565b90506106c16006546001600160a01b031690565b6001600160a01b0391821691161495945050505050565b6106e3848484610401565b61048b84848484610a2c565b60606007548211156107175760405163ed15e6cf60e01b815260048101839052602401610427565b6000610752600861072785610b55565b6009600a60405160200161073e949392919061174e565b604051602081830303815290604052610be8565b905061078e60408051808201909152601d81527f646174613a6170706c69636174696f6e2f6a736f6e3b6261736536342c000000602082015290565b816040516020016107a09291906117f6565b604051602081830303815290604052915050919050565b6001600160a01b03918216600090815260056020908152604080832093909416825291909152205460ff1690565b6107ed6108e4565b6001600160a01b03811661081757604051631e4fbdf760e01b815260006004820152602401610427565b61082081610911565b50565b6000818152600260205260408120546001600160a01b03168061033157604051637e27328960e01b815260048101849052602401610427565b6104f48383836001610d3b565b6000828152600260205260408120546001600160a01b0316801580159061089857506001600160a01b03851615155b156108b657604051636e10574960e01b815260040160405180910390fd5b6108c1858585610e41565b95945050505050565b6103fd828260405180602001604052806000815250610f3a565b6006546001600160a01b0316331461055e5760405163118cdaa760e01b8152336004820152602401610427565b600680546001600160a01b038381166001600160a01b0319831681179093556040519116919082907f8be0079c531659141344cd1fd0a4f28419497f9722a3daafe3b4186f6b6457e090600090a35050565b6001600160a01b03821661099557604051630b61174360e31b81526001600160a01b0383166004820152602401610427565b6001600160a01b03838116600081815260056020908152604080832094871680845294825291829020805460ff191686151590811790915591519182527f17307eab39ab6107e8899845ad3d59bd9653f200f220920489ca2b5937696c31910160405180910390a3505050565b600080600080610a128686610f51565b925092509250610a228282610f9e565b5090949350505050565b6001600160a01b0383163b1561048b57604051630a85bd0160e11b81526001600160a01b0384169063150b7a0290610a6e903390889087908790600401611825565b6020604051808303816000875af1925050508015610aa9575060408051601f3d908101601f19168201909252610aa691810190611862565b60015b610b12573d808015610ad7576040519150601f19603f3d011682016040523d82523d6000602084013e610adc565b606091505b508051600003610b0a57604051633250574960e11b81526001600160a01b0385166004820152602401610427565b805181602001fd5b6001600160e01b03198116630a85bd0160e11b14610b4e57604051633250574960e11b81526001600160a01b0385166004820152602401610427565b5050505050565b60606000610b6283611057565b600101905060008167ffffffffffffffff811115610b8257610b82611465565b6040519080825280601f01601f191660200182016040528015610bac576020820181803683370190505b5090508181016020015b600019016f181899199a1a9b1b9c1cb0b131b232b360811b600a86061a8153600a8504945084610bb657509392505050565b60608151600003610c0757505060408051602081019091526000815290565b60006040518060600160405280604081526020016118e26040913990506000600384516002610c36919061187f565b610c409190611892565b610c4b9060046118b4565b67ffffffffffffffff811115610c6357610c63611465565b6040519080825280601f01601f191660200182016040528015610c8d576020820181803683370190505b509050600182016020820185865187015b80821015610cf9576003820191508151603f8160121c168501518453600184019350603f81600c1c168501518453600184019350603f8160061c168501518453600184019350603f8116850151845350600183019250610c9e565b5050600386510660018114610d155760028114610d2857610d30565b603d6001830353603d6002830353610d30565b603d60018303535b509195945050505050565b8080610d4f57506001600160a01b03821615155b15610e11576000610d5f84610823565b90506001600160a01b03831615801590610d8b5750826001600160a01b0316816001600160a01b031614155b8015610d9e5750610d9c81846107b7565b155b15610dc75760405163a9fbf51f60e01b81526001600160a01b0384166004820152602401610427565b8115610e0f5783856001600160a01b0316826001600160a01b03167f8c5be1e5ebec7d5bd14f71427d1e84f3dd0314c0f7b2291e5b200ac8c7c3b92560405160405180910390a45b505b5050600090815260046020526040902080546001600160a01b0319166001600160a01b0392909216919091179055565b6000828152600260205260408120546001600160a01b0390811690831615610e6e57610e6e81848661112f565b6001600160a01b03811615610eac57610e8b600085600080610d3b565b6001600160a01b038116600090815260036020526040902080546000190190555b6001600160a01b03851615610edb576001600160a01b0385166000908152600360205260409020805460010190555b60008481526002602052604080822080546001600160a01b0319166001600160a01b0389811691821790925591518793918516917fddf252ad1be2c89b69c2b068fc378daa952ba7f163c4a11628f55a4df523b3ef91a4949350505050565b610f448383611193565b6104f46000848484610a2c565b60008060008351604103610f8b5760208401516040850151606086015160001a610f7d888285856111f8565b955095509550505050610f97565b50508151600091506002905b9250925092565b6000826003811115610fb257610fb26118cb565b03610fbb575050565b6001826003811115610fcf57610fcf6118cb565b03610fed5760405163f645eedf60e01b815260040160405180910390fd5b6002826003811115611001576110016118cb565b036110225760405163fce698f760e01b815260048101829052602401610427565b6003826003811115611036576110366118cb565b036103fd576040516335e2f38360e21b815260048101829052602401610427565b60008072184f03e93ff9f4daa797ed6e38ed64bf6a1f0160401b83106110965772184f03e93ff9f4daa797ed6e38ed64bf6a1f0160401b830492506040015b6d04ee2d6d415b85acef810000000083106110c2576d04ee2d6d415b85acef8100000000830492506020015b662386f26fc1000083106110e057662386f26fc10000830492506010015b6305f5e10083106110f8576305f5e100830492506008015b612710831061110c57612710830492506004015b6064831061111e576064830492506002015b600a83106103315760010192915050565b61113a8383836112c7565b6104f4576001600160a01b03831661116857604051637e27328960e01b815260048101829052602401610427565b60405163177e802f60e01b81526001600160a01b038316600482015260248101829052604401610427565b6001600160a01b0382166111bd57604051633250574960e11b815260006004820152602401610427565b60006111cb83836000610869565b90506001600160a01b038116156104f4576040516339e3563760e11b815260006004820152602401610427565b600080807f7fffffffffffffffffffffffffffffff5d576e7357a4501ddfe92f46681b20a084111561123357506000915060039050826112bd565b604080516000808252602082018084528a905260ff891692820192909252606081018790526080810186905260019060a0016020604051602081039080840390855afa158015611287573d6000803e3d6000fd5b5050604051601f1901519150506001600160a01b0381166112b3575060009250600191508290506112bd565b9250600091508190505b9450945094915050565b60006001600160a01b038316158015906113255750826001600160a01b0316846001600160a01b03161480611301575061130184846107b7565b8061132557506000828152600460205260409020546001600160a01b038481169116145b949350505050565b6001600160e01b03198116811461082057600080fd5b60006020828403121561135557600080fd5b81356113608161132d565b9392505050565b60005b8381101561138257818101518382015260200161136a565b50506000910152565b600081518084526113a3816020860160208601611367565b601f01601f19169290920160200192915050565b602081526000611360602083018461138b565b6000602082840312156113dc57600080fd5b5035919050565b80356001600160a01b03811681146113fa57600080fd5b919050565b6000806040838503121561141257600080fd5b61141b836113e3565b946020939093013593505050565b60008060006060848603121561143e57600080fd5b611447846113e3565b9250611455602085016113e3565b9150604084013590509250925092565b634e487b7160e01b600052604160045260246000fd5b600082601f83011261148c57600080fd5b813567ffffffffffffffff808211156114a7576114a7611465565b604051601f8301601f19908116603f011681019082821181831017156114cf576114cf611465565b816040528381528660208588010111156114e857600080fd5b836020870160208301376000602085830101528094505050505092915050565b6000806040838503121561151b57600080fd5b611524836113e3565b9150602083013567ffffffffffffffff81111561154057600080fd5b61154c8582860161147b565b9150509250929050565b60006020828403121561156857600080fd5b611360826113e3565b6000806040838503121561158457600080fd5b61158d836113e3565b9150602083013580151581146115a257600080fd5b809150509250929050565b600080600080608085870312156115c357600080fd5b6115cc856113e3565b93506115da602086016113e3565b925060408501359150606085013567ffffffffffffffff8111156115fd57600080fd5b6116098782880161147b565b91505092959194509250565b6000806040838503121561162857600080fd5b611631836113e3565b915061163f602084016113e3565b90509250929050565b600181811c9082168061165c57607f821691505b60208210810361167c57634e487b7160e01b600052602260045260246000fd5b50919050565b634e487b7160e01b600052601160045260246000fd5b6000600182016116aa576116aa611682565b5060010190565b8054600090600181811c90808316806116cb57607f831692505b602080841082036116ec57634e487b7160e01b600052602260045260246000fd5b818015611700576001811461171557611742565b60ff1986168952841515850289019650611742565b60008881526020902060005b8681101561173a5781548b820152908501908301611721565b505084890196505b50505050505092915050565b693d913730b6b2911d101160b11b8152600061176d600a8301876116b1565b63010119d160e51b8152855161178a816004840160208a01611367565b711116113232b9b1b934b83a34b7b7111d101160711b600492909101918201526117b760168201866116b1565b73222c2022696d616765223a2022697066733a2f2f60601b815290506117e060148201856116b1565b61227d60f01b8152600201979650505050505050565b60008351611808818460208801611367565b83519083019061181c818360208801611367565b01949350505050565b6001600160a01b03858116825284166020820152604081018390526080606082018190526000906118589083018461138b565b9695505050505050565b60006020828403121561187457600080fd5b81516113608161132d565b8082018082111561033157610331611682565b6000826118af57634e487b7160e01b600052601260045260246000fd5b500490565b808202811582820484141761033157610331611682565b634e487b7160e01b600052602160045260246000fdfe4142434445464748494a4b4c4d4e4f505152535455565758595a6162636465666768696a6b6c6d6e6f707172737475767778797a303132333435363738392b2fa264697066735822122050a23de88d59c7da7e31e2a3e186d6da2a91d102982e1a5910dbc33f52bd848f64736f6c63430008140033",
  "devdoc": {
    "errors": {
      "ECDSAInvalidSignature()": [
        {
          "details": "The signature derives the `address(0)`."
        }
      ],
      "ECDSAInvalidSignatureLength(uint256)": [
        {
          "details": "The signature has an invalid length."
        }
      ],
      "ECDSAInvalidSignatureS(bytes32)": [
        {
          "details": "The signature has an S value that is in the upper half order."
        }
      ],
      "ERC721IncorrectOwner(address,uint256,address)": [
        {
          "details": "Indicates an error related to the ownership over a particular token. Used in transfers.",
          "params": {
            "owner": "Address of the current owner of a token.",
            "sender": "Address whose tokens are being transferred.",
            "tokenId": "Identifier number of a token."
          }
        }
      ],
      "ERC721InsufficientApproval(address,uint256)": [
        {
          "details": "Indicates a failure with the `operator`s approval. Used in transfers.",
          "params": {
            "operator": "Address that may be allowed to operate on tokens without being their owner.",
            "tokenId": "Identifier number of a token."
          }
        }
      ],
      "ERC721InvalidApprover(address)": [
        {
          "details": "Indicates a failure with the `approver` of a token to be approved. Used in approvals.",
          "params": {
            "approver": "Address initiating an approval operation."
          }
        }
      ],
      "ERC721InvalidOperator(address)": [
        {
          "details": "Indicates a failure with the `operator` to be approved. Used in approvals.",
          "params": {
            "operator": "Address that may be allowed to operate on tokens without being their owner."
          }
        }
      ],
      "ERC721InvalidOwner(address)": [
        {
          "details": "Indicates that an address can't be an owner. For example, `address(0)` is a forbidden owner in EIP-20. Used in balance queries.",
          "params": {
            "owner": "Address of the current owner of a token."
          }
        }
      ],
      "ERC721InvalidReceiver(address)": [
        {
          "details": "Indicates a failure with the token `receiver`. Used in transfers.",
          "params": {
            "receiver": "Address to which tokens are being transferred."
          }
        }
      ],
      "ERC721InvalidSender(address)": [
        {
          "details": "Indicates a failure with the token `sender`. Used in transfers.",
          "params": {
            "sender": "Address whose tokens are being transferred."
          }
        }
      ],
      "ERC721NonexistentToken(uint256)": [
        {
          "details": "Indicates a `tokenId` whose `owner` is the zero address.",
          "params": {
            "tokenId": "Identifier number of a token."
          }
        }
      ],
      "OwnableInvalidOwner(address)": [
        {
          "details": "The owner is not a valid owner account. (eg. `address(0)`)"
        }
      ],
      "OwnableUnauthorizedAccount(address)": [
        {
          "details": "The caller account is not authorized to perform an operation."
        }
      ]
    },
    "events": {
      "Approval(address,address,uint256)": {
        "details": "Emitted when `owner` enables `approved` to manage the `tokenId` token."
      },
      "ApprovalForAll(address,address,bool)": {
        "details": "Emitted when `owner` enables or disables (`approved`) `operator` to manage all of its assets."
      },
      "Transfer(address,address,uint256)": {
        "details": "Emitted when `tokenId` token is transferred from `from` to `to`."
      }
    },
    "kind": "dev",
    "methods": {
      "approve(address,uint256)": {
        "details": "See {IERC721-approve}."
      },
      "balanceOf(address)": {
        "details": "See {IERC721-balanceOf}."
      },
      "getApproved(uint256)": {
        "details": "See {IERC721-getApproved}."
      },
      "isApprovedForAll(address,address)": {
        "details": "See {IERC721-isApprovedForAll}."
      },
      "name()": {
        "details": "See {IERC721Metadata-name}."
      },
      "owner()": {
        "details": "Returns the address of the current owner."
      },
      "ownerOf(uint256)": {
        "details": "See {IERC721-ownerOf}."
      },
      "renounceOwnership()": {
        "details": "Leaves the contract without owner. It will not be possible to call `onlyOwner` functions. Can only be called by the current owner. NOTE: Renouncing ownership will leave the contract without an owner, thereby disabling any functionality that is only available to the owner."
      },
      "safeTransferFrom(address,address,uint256)": {
        "details": "See {IERC721-safeTransferFrom}."
      },
      "safeTransferFrom(address,address,uint256,bytes)": {
        "details": "See {IERC721-safeTransferFrom}."
      },
      "setApprovalForAll(address,bool)": {
        "details": "See {IERC721-setApprovalForAll}."
      },
      "supportsInterface(bytes4)": {
        "details": "See {IERC165-supportsInterface}."
      },
      "symbol()": {
        "details": "See {IERC721Metadata-symbol}."
      },
      "transferFrom(address,address,uint256)": {
        "details": "See {IERC721-transferFrom}."
      },
      "transferOwnership(address)": {
        "details": "Transfers ownership of the contract to a new account (`newOwner`). Can only be called by the current owner."
      }
    },
    "version": 1
  },
  "userdoc": {
    "kind": "user",
    "methods": {},
    "version": 1
  },
  "storageLayout": {
    "storage": [
      {
        "astId": 317,
        "contract": "contracts/SoulboundSignatureMint.sol:SoulboundSignatureMint",
        "label": "_name",
        "offset": 0,
        "slot": "0",
        "type": "t_string_storage"
      },
      {
        "astId": 319,
        "contract": "contracts/SoulboundSignatureMint.sol:SoulboundSignatureMint",
        "label": "_symbol",
        "offset": 0,
        "slot": "1",
        "type": "t_string_storage"
      },
      {
        "astId": 323,
        "contract": "contracts/SoulboundSignatureMint.sol:SoulboundSignatureMint",
        "label": "_owners",
        "offset": 0,
        "slot": "2",
        "type": "t_mapping(t_uint256,t_address)"
      },
      {
        "astId": 327,
        "contract": "contracts/SoulboundSignatureMint.sol:SoulboundSignatureMint",
        "label": "_balances",
        "offset": 0,
        "slot": "3",
        "type": "t_mapping(t_address,t_uint256)"
      },
      {
        "astId": 331,
        "contract": "contracts/SoulboundSignatureMint.sol:SoulboundSignatureMint",
        "label": "_tokenApprovals",
        "offset": 0,
        "slot": "4",
        "type": "t_mapping(t_uint256,t_address)"
      },
      {
        "astId": 337,
        "contract": "contracts/SoulboundSignatureMint.sol:SoulboundSignatureMint",
        "label": "_operatorApprovals",
        "offset": 0,
        "slot": "5",
        "type": "t_mapping(t_address,t_mapping(t_address,t_bool))"
      },
      {
        "astId": 8,
        "contract": "contracts/SoulboundSignatureMint.sol:SoulboundSignatureMint",
        "label": "_owner",
        "offset": 0,
        "slot": "6",
        "type": "t_address"
      },
      {
        "astId": 3345,
        "contract": "contracts/SoulboundSignatureMint.sol:SoulboundSignatureMint",
        "label": "counter",
        "offset": 0,
        "slot": "7",
        "type": "t_uint256"
      },
      {
        "astId": 3347,
        "contract": "contracts/SoulboundSignatureMint.sol:SoulboundSignatureMint",
        "label": "nameString",
        "offset": 0,
        "slot": "8",
        "type": "t_string_storage"
      },
      {
        "astId": 3349,
        "contract": "contracts/SoulboundSignatureMint.sol:SoulboundSignatureMint",
        "label": "description",
        "offset": 0,
        "slot": "9",
        "type": "t_string_storage"
      },
      {
        "astId": 3351,
        "contract": "contracts/SoulboundSignatureMint.sol:SoulboundSignatureMint",
        "label": "tokenArtIPFSId",
        "offset": 0,
        "slot": "10",
        "type": "t_string_storage"
      }
    ],
    "types": {
      "t_address": {
        "encoding": "inplace",
        "label": "address",
        "numberOfBytes": "20"
      },
      "t_bool": {
        "encoding": "inplace",
        "label": "bool",
        "numberOfBytes": "1"
      },
      "t_mapping(t_address,t_bool)": {
        "encoding": "mapping",
        "key": "t_address",
        "label": "mapping(address => bool)",
        "numberOfBytes": "32",
        "value": "t_bool"
      },
      "t_mapping(t_address,t_mapping(t_address,t_bool))": {
        "encoding": "mapping",
        "key": "t_address",
        "label": "mapping(address => mapping(address => bool))",
        "numberOfBytes": "32",
        "value": "t_mapping(t_address,t_bool)"
      },
      "t_mapping(t_address,t_uint256)": {
        "encoding": "mapping",
        "key": "t_address",
        "label": "mapping(address => uint256)",
        "numberOfBytes": "32",
        "value": "t_uint256"
      },
      "t_mapping(t_uint256,t_address)": {
        "encoding": "mapping",
        "key": "t_uint256",
        "label": "mapping(uint256 => address)",
        "numberOfBytes": "32",
        "value": "t_address"
      },
      "t_string_storage": {
        "encoding": "bytes",
        "label": "string",
        "numberOfBytes": "32"
      },
      "t_uint256": {
        "encoding": "inplace",
        "label": "uint256",
        "numberOfBytes": "32"
      }
    }
  }
}