{
  "address": "0x591aEB4C7790945dCf339E7462705eb087878D8C",
  "abi": [
    {
      "inputs": [
        {
          "internalType": "address",
          "name": "_seaRenderer",
          "type": "address"
        },
        {
          "internalType": "address",
          "name": "_skyRenderer",
          "type": "address"
        },
        {
          "internalType": "address",
          "name": "_landRenderer",
          "type": "address"
        },
        {
          "internalType": "address",
          "name": "_sunRenderer1",
          "type": "address"
        },
        {
          "internalType": "address",
          "name": "_sunRenderer2",
          "type": "address"
        },
        {
          "internalType": "address",
          "name": "_sunRenderer3",
          "type": "address"
        },
        {
          "internalType": "address",
          "name": "_cloudRenderer",
          "type": "address"
        },
        {
          "internalType": "address",
          "name": "_whaleRenderer",
          "type": "address"
        }
      ],
      "stateMutability": "nonpayable",
      "type": "constructor"
    },
    {
      "inputs": [],
      "name": "cloudRenderer",
      "outputs": [
        {
          "internalType": "contract ISVGPartRenderer",
          "name": "",
          "type": "address"
        }
      ],
      "stateMutability": "view",
      "type": "function"
    },
    {
      "inputs": [],
      "name": "landRenderer",
      "outputs": [
        {
          "internalType": "contract ISVGPartRenderer",
          "name": "",
          "type": "address"
        }
      ],
      "stateMutability": "view",
      "type": "function"
    },
    {
      "inputs": [
        {
          "internalType": "uint256",
          "name": "_tokenId",
          "type": "uint256"
        }
      ],
      "name": "pickSunRenderer",
      "outputs": [
        {
          "internalType": "contract ISVGPartRenderer",
          "name": "",
          "type": "address"
        }
      ],
      "stateMutability": "view",
      "type": "function"
    },
    {
      "inputs": [
        {
          "internalType": "uint256",
          "name": "_tokenId",
          "type": "uint256"
        },
        {
          "internalType": "bool",
          "name": "_upgraded",
          "type": "bool"
        }
      ],
      "name": "render",
      "outputs": [
        {
          "internalType": "string",
          "name": "",
          "type": "string"
        }
      ],
      "stateMutability": "view",
      "type": "function"
    },
    {
      "inputs": [
        {
          "internalType": "bool",
          "name": "_upgraded",
          "type": "bool"
        }
      ],
      "name": "renderWhaleIfUpgraded",
      "outputs": [
        {
          "internalType": "string",
          "name": "",
          "type": "string"
        }
      ],
      "stateMutability": "view",
      "type": "function"
    },
    {
      "inputs": [],
      "name": "seaRenderer",
      "outputs": [
        {
          "internalType": "contract ISVGPartRenderer",
          "name": "",
          "type": "address"
        }
      ],
      "stateMutability": "view",
      "type": "function"
    },
    {
      "inputs": [],
      "name": "skyRenderer",
      "outputs": [
        {
          "internalType": "contract ISVGPartRenderer",
          "name": "",
          "type": "address"
        }
      ],
      "stateMutability": "view",
      "type": "function"
    },
    {
      "inputs": [],
      "name": "sunRenderer1",
      "outputs": [
        {
          "internalType": "contract ISVGPartRenderer",
          "name": "",
          "type": "address"
        }
      ],
      "stateMutability": "view",
      "type": "function"
    },
    {
      "inputs": [],
      "name": "sunRenderer2",
      "outputs": [
        {
          "internalType": "contract ISVGPartRenderer",
          "name": "",
          "type": "address"
        }
      ],
      "stateMutability": "view",
      "type": "function"
    },
    {
      "inputs": [],
      "name": "sunRenderer3",
      "outputs": [
        {
          "internalType": "contract ISVGPartRenderer",
          "name": "",
          "type": "address"
        }
      ],
      "stateMutability": "view",
      "type": "function"
    },
    {
      "inputs": [],
      "name": "whaleRenderer",
      "outputs": [
        {
          "internalType": "contract ISVGPartRenderer",
          "name": "",
          "type": "address"
        }
      ],
      "stateMutability": "view",
      "type": "function"
    }
  ],
  "transactionHash": "0x1e58ee446fb0496491d8a54ca19a17951f97e81d12aa523c240238a99eafa4ec",
  "args": [
    "0x0135284e286EB578Ff4eea5387dEc5B0598b6396",
    "0xEdccA56bbD42E868A3333B8D00680b8965386147",
    "0x74D08d947a7b7Ebdc12A47E06635c33cC241d511",
    "0xcbD6182596a73DC67bf6fd50b1373BfBd35addE7",
    "0x035B4754C51437cB294408814D309bA8145D7e3C",
    "0x6cF6599746FDa2Ab4dFd29157914bb8A0c8B23C3",
    "0x705EDDB97C29cCA17e6C1EFbe561D07B9C941705",
    "0xb35e86D0e506B2305f94516459092F64E4D3DB4f"
  ],
  "numDeployments": 1,
  "solcInputHash": "178f158786657df3c8f5af4aa3025be8",
  "bytecode": "0x608060405234801561001057600080fd5b5060405161099138038061099183398101604081905261002f916100dc565b600080546001600160a01b03199081166001600160a01b039a8b1617909155600180548216988a1698909817909755600280548816968916969096179095556003805487169488169490941790935560048054861692871692909217909155600580548516918616919091179055600680548416918516919091179055600780549092169216919091179055610173565b80516001600160a01b03811681146100d757600080fd5b919050565b600080600080600080600080610100898b0312156100f957600080fd5b610102896100c0565b975061011060208a016100c0565b965061011e60408a016100c0565b955061012c60608a016100c0565b945061013a60808a016100c0565b935061014860a08a016100c0565b925061015660c08a016100c0565b915061016460e08a016100c0565b90509295985092959890939650565b61080f806101826000396000f3fe608060405234801561001057600080fd5b50600436106100a95760003560e01c80636c2e29c2116100715780636c2e29c21461013b5780639381feaf1461014e57806393ec249514610161578063a2a8a1e114610174578063f1337aef14610187578063feb4400d1461019a57600080fd5b8063038aa915146100ae57806314b6370b146100d75780632c2acb63146101025780634584177814610115578063568ce78314610128575b600080fd5b6100c16100bc366004610552565b6101ad565b6040516100ce91906105a2565b60405180910390f35b6007546100ea906001600160a01b031681565b6040516001600160a01b0390911681526020016100ce565b6100ea6101103660046105d5565b610411565b6005546100ea906001600160a01b031681565b6003546100ea906001600160a01b031681565b6000546100ea906001600160a01b031681565b6100c161015c3660046105ee565b6104a0565b6002546100ea906001600160a01b031681565b6004546100ea906001600160a01b031681565b6006546100ea906001600160a01b031681565b6001546100ea906001600160a01b031681565b6001546040516330c8446360e21b8152600481018490526060916001600160a01b03169063c321118c90602401600060405180830381865afa1580156101f7573d6000803e3d6000fd5b505050506040513d6000823e601f3d908101601f1916820160405261021f9190810190610626565b61022884610411565b6001600160a01b031663d607497a6040518163ffffffff1660e01b8152600401600060405180830381865afa158015610265573d6000803e3d6000fd5b505050506040513d6000823e601f3d908101601f1916820160405261028d9190810190610626565b6006546040516330c8446360e21b8152600481018790526001600160a01b039091169063c321118c90602401600060405180830381865afa1580156102d6573d6000803e3d6000fd5b505050506040513d6000823e601f3d908101601f191682016040526102fe9190810190610626565b6002546040516330c8446360e21b8152600481018890526001600160a01b039091169063c321118c90602401600060405180830381865afa158015610347573d6000803e3d6000fd5b505050506040513d6000823e601f3d908101601f1916820160405261036f9190810190610626565b6000805460408051636b03a4bd60e11b815290516001600160a01b039092169263d607497a926004808401938290030181865afa1580156103b4573d6000803e3d6000fd5b505050506040513d6000823e601f3d908101601f191682016040526103dc9190810190610626565b6103e5876104a0565b6040516020016103fa969594939291906106d3565b604051602081830303815290604052905092915050565b6000808260405160200161042791815260200190565b60408051601f198184030181529190528051602090910120905080600061044f6003836107b7565b90508060000361046e5750506003546001600160a01b03169392505050565b8060010361048b5750506004546001600160a01b03169392505050565b50506005546001600160a01b03169392505050565b6060811561052957600760009054906101000a90046001600160a01b03166001600160a01b031663d607497a6040518163ffffffff1660e01b8152600401600060405180830381865afa1580156104fb573d6000803e3d6000fd5b505050506040513d6000823e601f3d908101601f191682016040526105239190810190610626565b92915050565b505060408051602081019091526000815290565b919050565b8035801515811461053d57600080fd5b6000806040838503121561056557600080fd5b8235915061057560208401610542565b90509250929050565b60005b83811015610599578181015183820152602001610581565b50506000910152565b60208152600082518060208401526105c181604085016020870161057e565b601f01601f19169190910160400192915050565b6000602082840312156105e757600080fd5b5035919050565b60006020828403121561060057600080fd5b61060982610542565b9392505050565b634e487b7160e01b600052604160045260246000fd5b60006020828403121561063857600080fd5b815167ffffffffffffffff8082111561065057600080fd5b818401915084601f83011261066457600080fd5b81518181111561067657610676610610565b604051601f8201601f19908116603f0116810190838211818310171561069e5761069e610610565b816040528281528760208487010111156106b757600080fd5b6106c883602083016020880161057e565b979650505050505050565b7f3c73766720786d6c6e733d27687474703a2f2f7777772e77332e6f72672f32308152600060207f30302f737667272076696577426f783d2730203020313032342031303234273e818401526040895161073281838701858e0161057e565b89519085019061074781848401868e0161057e565b895191019061075b81848401868d0161057e565b885191019061076f81848401868c0161057e565b875191019061078381848401868b0161057e565b865191019061079781848401868a0161057e565b651e17b9bb339f60d11b9101918201526046019998505050505050505050565b6000826107d457634e487b7160e01b600052601260045260246000fd5b50069056fea26469706673582212200e63decc1e39380b27527689a5ab8d8027c54cedcf38fb2df95053f86ea718b164736f6c63430008140033",
  "devdoc": {
    "kind": "dev",
    "methods": {},
    "version": 1
  },
  "userdoc": {
    "kind": "user",
    "methods": {},
    "version": 1
  },
  "storageLayout": {
    "storage": [
      {
        "astId": 3207,
        "contract": "contracts/SVGRenderer.sol:SVGRenderer",
        "label": "seaRenderer",
        "offset": 0,
        "slot": "0",
        "type": "t_contract(ISVGPartRenderer)3204"
      },
      {
        "astId": 3210,
        "contract": "contracts/SVGRenderer.sol:SVGRenderer",
        "label": "skyRenderer",
        "offset": 0,
        "slot": "1",
        "type": "t_contract(ISVGPartRenderer)3204"
      },
      {
        "astId": 3213,
        "contract": "contracts/SVGRenderer.sol:SVGRenderer",
        "label": "landRenderer",
        "offset": 0,
        "slot": "2",
        "type": "t_contract(ISVGPartRenderer)3204"
      },
      {
        "astId": 3216,
        "contract": "contracts/SVGRenderer.sol:SVGRenderer",
        "label": "sunRenderer1",
        "offset": 0,
        "slot": "3",
        "type": "t_contract(ISVGPartRenderer)3204"
      },
      {
        "astId": 3219,
        "contract": "contracts/SVGRenderer.sol:SVGRenderer",
        "label": "sunRenderer2",
        "offset": 0,
        "slot": "4",
        "type": "t_contract(ISVGPartRenderer)3204"
      },
      {
        "astId": 3222,
        "contract": "contracts/SVGRenderer.sol:SVGRenderer",
        "label": "sunRenderer3",
        "offset": 0,
        "slot": "5",
        "type": "t_contract(ISVGPartRenderer)3204"
      },
      {
        "astId": 3225,
        "contract": "contracts/SVGRenderer.sol:SVGRenderer",
        "label": "cloudRenderer",
        "offset": 0,
        "slot": "6",
        "type": "t_contract(ISVGPartRenderer)3204"
      },
      {
        "astId": 3228,
        "contract": "contracts/SVGRenderer.sol:SVGRenderer",
        "label": "whaleRenderer",
        "offset": 0,
        "slot": "7",
        "type": "t_contract(ISVGPartRenderer)3204"
      }
    ],
    "types": {
      "t_contract(ISVGPartRenderer)3204": {
        "encoding": "inplace",
        "label": "contract ISVGPartRenderer",
        "numberOfBytes": "20"
      }
    }
  }
}