{
  "address": "0x939aDadbF63b1D052AB3E61236031EaF674781ab",
  "abi": [
    {
      "inputs": [
        {
          "internalType": "address",
          "name": "_svgRenderer",
          "type": "address"
        }
      ],
      "stateMutability": "nonpayable",
      "type": "constructor"
    },
    {
      "inputs": [],
      "name": "AlreadyUpgraded",
      "type": "error"
    },
    {
      "inputs": [
        {
          "internalType": "address",
          "name": "sender",
          "type": "address"
        },
        {
          "internalType": "uint256",
          "name": "tokenId",
          "type": "uint256"
        },
        {
          "internalType": "address",
          "name": "owner",
          "type": "address"
        }
      ],
      "name": "ERC721IncorrectOwner",
      "type": "error"
    },
    {
      "inputs": [
        {
          "internalType": "address",
          "name": "operator",
          "type": "address"
        },
        {
          "internalType": "uint256",
          "name": "tokenId",
          "type": "uint256"
        }
      ],
      "name": "ERC721InsufficientApproval",
      "type": "error"
    },
    {
      "inputs": [
        {
          "internalType": "address",
          "name": "approver",
          "type": "address"
        }
      ],
      "name": "ERC721InvalidApprover",
      "type": "error"
    },
    {
      "inputs": [
        {
          "internalType": "address",
          "name": "operator",
          "type": "address"
        }
      ],
      "name": "ERC721InvalidOperator",
      "type": "error"
    },
    {
      "inputs": [
        {
          "internalType": "address",
          "name": "owner",
          "type": "address"
        }
      ],
      "name": "ERC721InvalidOwner",
      "type": "error"
    },
    {
      "inputs": [
        {
          "internalType": "address",
          "name": "receiver",
          "type": "address"
        }
      ],
      "name": "ERC721InvalidReceiver",
      "type": "error"
    },
    {
      "inputs": [
        {
          "internalType": "address",
          "name": "sender",
          "type": "address"
        }
      ],
      "name": "ERC721InvalidSender",
      "type": "error"
    },
    {
      "inputs": [
        {
          "internalType": "uint256",
          "name": "tokenId",
          "type": "uint256"
        }
      ],
      "name": "ERC721NonexistentToken",
      "type": "error"
    },
    {
      "inputs": [
        {
          "internalType": "uint256",
          "name": "tokenId",
          "type": "uint256"
        }
      ],
      "name": "InvalidTokenId",
      "type": "error"
    },
    {
      "inputs": [],
      "name": "MaxSupplyReached",
      "type": "error"
    },
    {
      "inputs": [],
      "name": "OneMintPerAddress",
      "type": "error"
    },
    {
      "inputs": [
        {
          "internalType": "address",
          "name": "owner",
          "type": "address"
        }
      ],
      "name": "OwnableInvalidOwner",
      "type": "error"
    },
    {
      "inputs": [
        {
          "internalType": "address",
          "name": "account",
          "type": "address"
        }
      ],
      "name": "OwnableUnauthorizedAccount",
      "type": "error"
    },
    {
      "inputs": [],
      "name": "UpgradesClosed",
      "type": "error"
    },
    {
      "anonymous": false,
      "inputs": [
        {
          "indexed": true,
          "internalType": "address",
          "name": "owner",
          "type": "address"
        },
        {
          "indexed": true,
          "internalType": "address",
          "name": "approved",
          "type": "address"
        },
        {
          "indexed": true,
          "internalType": "uint256",
          "name": "tokenId",
          "type": "uint256"
        }
      ],
      "name": "Approval",
      "type": "event"
    },
    {
      "anonymous": false,
      "inputs": [
        {
          "indexed": true,
          "internalType": "address",
          "name": "owner",
          "type": "address"
        },
        {
          "indexed": true,
          "internalType": "address",
          "name": "operator",
          "type": "address"
        },
        {
          "indexed": false,
          "internalType": "bool",
          "name": "approved",
          "type": "bool"
        }
      ],
      "name": "ApprovalForAll",
      "type": "event"
    },
    {
      "anonymous": false,
      "inputs": [
        {
          "indexed": true,
          "internalType": "address",
          "name": "previousOwner",
          "type": "address"
        },
        {
          "indexed": true,
          "internalType": "address",
          "name": "newOwner",
          "type": "address"
        }
      ],
      "name": "OwnershipTransferred",
      "type": "event"
    },
    {
      "anonymous": false,
      "inputs": [
        {
          "indexed": true,
          "internalType": "address",
          "name": "from",
          "type": "address"
        },
        {
          "indexed": true,
          "internalType": "address",
          "name": "to",
          "type": "address"
        },
        {
          "indexed": true,
          "internalType": "uint256",
          "name": "tokenId",
          "type": "uint256"
        }
      ],
      "name": "Transfer",
      "type": "event"
    },
    {
      "inputs": [],
      "name": "MAX_SUPPLY",
      "outputs": [
        {
          "internalType": "uint256",
          "name": "",
          "type": "uint256"
        }
      ],
      "stateMutability": "view",
      "type": "function"
    },
    {
      "inputs": [
        {
          "internalType": "address",
          "name": "to",
          "type": "address"
        },
        {
          "internalType": "uint256",
          "name": "tokenId",
          "type": "uint256"
        }
      ],
      "name": "approve",
      "outputs": [],
      "stateMutability": "nonpayable",
      "type": "function"
    },
    {
      "inputs": [
        {
          "internalType": "address",
          "name": "owner",
          "type": "address"
        }
      ],
      "name": "balanceOf",
      "outputs": [
        {
          "internalType": "uint256",
          "name": "",
          "type": "uint256"
        }
      ],
      "stateMutability": "view",
      "type": "function"
    },
    {
      "inputs": [],
      "name": "counter",
      "outputs": [
        {
          "internalType": "uint256",
          "name": "",
          "type": "uint256"
        }
      ],
      "stateMutability": "view",
      "type": "function"
    },
    {
      "inputs": [
        {
          "internalType": "uint256",
          "name": "tokenId",
          "type": "uint256"
        }
      ],
      "name": "getApproved",
      "outputs": [
        {
          "internalType": "address",
          "name": "",
          "type": "address"
        }
      ],
      "stateMutability": "view",
      "type": "function"
    },
    {
      "inputs": [
        {
          "internalType": "address",
          "name": "owner",
          "type": "address"
        },
        {
          "internalType": "address",
          "name": "operator",
          "type": "address"
        }
      ],
      "name": "isApprovedForAll",
      "outputs": [
        {
          "internalType": "bool",
          "name": "",
          "type": "bool"
        }
      ],
      "stateMutability": "view",
      "type": "function"
    },
    {
      "inputs": [
        {
          "internalType": "address",
          "name": "_recipient",
          "type": "address"
        }
      ],
      "name": "mintFor",
      "outputs": [],
      "stateMutability": "nonpayable",
      "type": "function"
    },
    {
      "inputs": [
        {
          "internalType": "address",
          "name": "",
          "type": "address"
        }
      ],
      "name": "minted",
      "outputs": [
        {
          "internalType": "bool",
          "name": "",
          "type": "bool"
        }
      ],
      "stateMutability": "view",
      "type": "function"
    },
    {
      "inputs": [],
      "name": "name",
      "outputs": [
        {
          "internalType": "string",
          "name": "",
          "type": "string"
        }
      ],
      "stateMutability": "view",
      "type": "function"
    },
    {
      "inputs": [],
      "name": "owner",
      "outputs": [
        {
          "internalType": "address",
          "name": "",
          "type": "address"
        }
      ],
      "stateMutability": "view",
      "type": "function"
    },
    {
      "inputs": [
        {
          "internalType": "uint256",
          "name": "tokenId",
          "type": "uint256"
        }
      ],
      "name": "ownerOf",
      "outputs": [
        {
          "internalType": "address",
          "name": "",
          "type": "address"
        }
      ],
      "stateMutability": "view",
      "type": "function"
    },
    {
      "inputs": [],
      "name": "renounceOwnership",
      "outputs": [],
      "stateMutability": "nonpayable",
      "type": "function"
    },
    {
      "inputs": [
        {
          "internalType": "address",
          "name": "from",
          "type": "address"
        },
        {
          "internalType": "address",
          "name": "to",
          "type": "address"
        },
        {
          "internalType": "uint256",
          "name": "tokenId",
          "type": "uint256"
        }
      ],
      "name": "safeTransferFrom",
      "outputs": [],
      "stateMutability": "nonpayable",
      "type": "function"
    },
    {
      "inputs": [
        {
          "internalType": "address",
          "name": "from",
          "type": "address"
        },
        {
          "internalType": "address",
          "name": "to",
          "type": "address"
        },
        {
          "internalType": "uint256",
          "name": "tokenId",
          "type": "uint256"
        },
        {
          "internalType": "bytes",
          "name": "data",
          "type": "bytes"
        }
      ],
      "name": "safeTransferFrom",
      "outputs": [],
      "stateMutability": "nonpayable",
      "type": "function"
    },
    {
      "inputs": [
        {
          "internalType": "address",
          "name": "operator",
          "type": "address"
        },
        {
          "internalType": "bool",
          "name": "approved",
          "type": "bool"
        }
      ],
      "name": "setApprovalForAll",
      "outputs": [],
      "stateMutability": "nonpayable",
      "type": "function"
    },
    {
      "inputs": [
        {
          "internalType": "bytes4",
          "name": "interfaceId",
          "type": "bytes4"
        }
      ],
      "name": "supportsInterface",
      "outputs": [
        {
          "internalType": "bool",
          "name": "",
          "type": "bool"
        }
      ],
      "stateMutability": "view",
      "type": "function"
    },
    {
      "inputs": [],
      "name": "symbol",
      "outputs": [
        {
          "internalType": "string",
          "name": "",
          "type": "string"
        }
      ],
      "stateMutability": "view",
      "type": "function"
    },
    {
      "inputs": [
        {
          "internalType": "uint256",
          "name": "_tokenId",
          "type": "uint256"
        }
      ],
      "name": "tokenURI",
      "outputs": [
        {
          "internalType": "string",
          "name": "",
          "type": "string"
        }
      ],
      "stateMutability": "view",
      "type": "function"
    },
    {
      "inputs": [
        {
          "internalType": "address",
          "name": "from",
          "type": "address"
        },
        {
          "internalType": "address",
          "name": "to",
          "type": "address"
        },
        {
          "internalType": "uint256",
          "name": "tokenId",
          "type": "uint256"
        }
      ],
      "name": "transferFrom",
      "outputs": [],
      "stateMutability": "nonpayable",
      "type": "function"
    },
    {
      "inputs": [
        {
          "internalType": "address",
          "name": "newOwner",
          "type": "address"
        }
      ],
      "name": "transferOwnership",
      "outputs": [],
      "stateMutability": "nonpayable",
      "type": "function"
    },
    {
      "inputs": [
        {
          "internalType": "uint256",
          "name": "_tokenId",
          "type": "uint256"
        }
      ],
      "name": "upgradeToken",
      "outputs": [],
      "stateMutability": "nonpayable",
      "type": "function"
    },
    {
      "inputs": [
        {
          "internalType": "uint256",
          "name": "",
          "type": "uint256"
        }
      ],
      "name": "upgraded",
      "outputs": [
        {
          "internalType": "bool",
          "name": "",
          "type": "bool"
        }
      ],
      "stateMutability": "view",
      "type": "function"
    }
  ],
  "transactionHash": "0xe858cce93f8dfcb654e6590efa266d6dd7fbb190b1a4d98869f371017312a029",
  "args": [
    "0xe322Dc5385ABf84A397C76E01ae0563293951913"
  ],
  "numDeployments": 1,
  "solcInputHash": "d1d98b517e9d316901831974faca7aea",
  "bytecode": "0x60806040523480156200001157600080fd5b5060405162001a2f38038062001a2f833981016040819052620000349162000152565b33604051806040016040528060128152602001714c616e642c205365612c20616e6420536b7960701b815250604051806040016040528060038152602001624c535360e81b81525081600090816200008d919062000229565b5060016200009c828262000229565b5050506001600160a01b038116620000ce57604051631e4fbdf760e01b81526000600482015260240160405180910390fd5b620000d98162000100565b50600a80546001600160a01b0319166001600160a01b0392909216919091179055620002f5565b600680546001600160a01b038381166001600160a01b0319831681179093556040519116919082907f8be0079c531659141344cd1fd0a4f28419497f9722a3daafe3b4186f6b6457e090600090a35050565b6000602082840312156200016557600080fd5b81516001600160a01b03811681146200017d57600080fd5b9392505050565b634e487b7160e01b600052604160045260246000fd5b600181811c90821680620001af57607f821691505b602082108103620001d057634e487b7160e01b600052602260045260246000fd5b50919050565b601f8211156200022457600081815260208120601f850160051c81016020861015620001ff5750805b601f850160051c820191505b8181101562000220578281556001016200020b565b5050505b505050565b81516001600160401b0381111562000245576200024562000184565b6200025d816200025684546200019a565b84620001d6565b602080601f8311600181146200029557600084156200027c5750858301515b600019600386901b1c1916600185901b17855562000220565b600085815260208120601f198616915b82811015620002c657888601518255948401946001909101908401620002a5565b5085821015620002e55787850151600019600388901b60f8161c191681555b5050505050600190811b01905550565b61172a80620003056000396000f3fe608060405234801561001057600080fd5b50600436106101425760003560e01c806370a08231116100b8578063a22cb4651161007c578063a22cb4651461029a578063b88d4fde146102ad578063c87b56dd146102c0578063e985e9c5146102d3578063f2fde38b146102e6578063f7ea244e146102f957600080fd5b806370a0823114610253578063715018a61461026657806371e578dc1461026e5780638da5cb5b1461028157806395d89b411461029257600080fd5b806323b872dd1161010a57806323b872dd146101e757806332309a78146101fa57806332cb6b0c1461020d57806342842e0e1461022457806361bc221a146102375780636352211e1461024057600080fd5b806301ffc9a71461014757806306fdde031461016f578063081812fc14610184578063095ea7b3146101af5780631e7269c5146101c4575b600080fd5b61015a61015536600461111f565b61031c565b60405190151581526020015b60405180910390f35b61017761036e565b6040516101669190611193565b6101976101923660046111a6565b610400565b6040516001600160a01b039091168152602001610166565b6101c26101bd3660046111db565b610429565b005b61015a6101d2366004611205565b60096020526000908152604090205460ff1681565b6101c26101f5366004611220565b610438565b6101c26102083660046111a6565b6104c8565b6102166108ae81565b604051908152602001610166565b6101c2610232366004611220565b61053f565b61021660075481565b61019761024e3660046111a6565b61055f565b610216610261366004611205565b61056a565b6101c26105b2565b6101c261027c366004611205565b6105c6565b6006546001600160a01b0316610197565b610177610671565b6101c26102a836600461125c565b610680565b6101c26102bb366004611307565b61068b565b6101776102ce3660046111a6565b6106a2565b61015a6102e13660046113b2565b6107f6565b6101c26102f4366004611205565b610824565b61015a6103073660046111a6565b60086020526000908152604090205460ff1681565b60006001600160e01b031982166380ac58cd60e01b148061034d57506001600160e01b03198216635b5e139f60e01b145b8061036857506301ffc9a760e01b6001600160e01b03198316145b92915050565b60606000805461037d906113e5565b80601f01602080910402602001604051908101604052809291908181526020018280546103a9906113e5565b80156103f65780601f106103cb576101008083540402835291602001916103f6565b820191906000526020600020905b8154815290600101906020018083116103d957829003601f168201915b5050505050905090565b600061040b8261085f565b506000828152600460205260409020546001600160a01b0316610368565b610434828233610898565b5050565b6001600160a01b03821661046757604051633250574960e11b8152600060048201526024015b60405180910390fd5b60006104748383336108a5565b9050836001600160a01b0316816001600160a01b0316146104c2576040516364283d7b60e01b81526001600160a01b038086166004830152602482018490528216604482015260640161045e565b50505050565b6104d061099e565b6108ae600754106104f457604051631da25a7360e11b815260040160405180910390fd5b60008181526008602052604090205460ff16156105245760405163108223e160e21b815260040160405180910390fd5b6000908152600860205260409020805460ff19166001179055565b61055a8383836040518060200160405280600081525061068b565b505050565b60006103688261085f565b60006001600160a01b038216610596576040516322718ad960e21b81526000600482015260240161045e565b506001600160a01b031660009081526003602052604090205490565b6105ba61099e565b6105c460006109cb565b565b6105ce61099e565b6108ae600754106105f25760405163d05cb60960e01b815260040160405180910390fd5b6001600160a01b03811660009081526009602052604090205460ff161561062c576040516317b5615760e01b815260040160405180910390fd5b6001600160a01b0381166000908152600960205260408120805460ff19166001179055600780549161065d83611435565b919050555061066e81600754610a1d565b50565b60606001805461037d906113e5565b610434338383610a37565b610696848484610438565b6104c284848484610ad6565b60606007548211156106ca5760405163ed15e6cf60e01b81526004810183905260240161045e565b60006107916106d884610bff565b600a546000868152600860205260409081902054905163038aa91560e01b81526004810188905260ff9091161515602482015261076c916001600160a01b03169063038aa91590604401600060405180830381865afa15801561073f573d6000803e3d6000fd5b505050506040513d6000823e601f3d908101601f19168201604052610767919081019061144e565b610c92565b60405160200161077d9291906114c5565b604051602081830303815290604052610c92565b90506107cd60408051808201909152601d81527f646174613a6170706c69636174696f6e2f6a736f6e3b6261736536342c000000602082015290565b816040516020016107df9291906115df565b604051602081830303815290604052915050919050565b6001600160a01b03918216600090815260056020908152604080832093909416825291909152205460ff1690565b61082c61099e565b6001600160a01b03811661085657604051631e4fbdf760e01b81526000600482015260240161045e565b61066e816109cb565b6000818152600260205260408120546001600160a01b03168061036857604051637e27328960e01b81526004810184905260240161045e565b61055a8383836001610de5565b6000828152600260205260408120546001600160a01b03908116908316156108d2576108d2818486610eeb565b6001600160a01b03811615610910576108ef600085600080610de5565b6001600160a01b038116600090815260036020526040902080546000190190555b6001600160a01b0385161561093f576001600160a01b0385166000908152600360205260409020805460010190555b60008481526002602052604080822080546001600160a01b0319166001600160a01b0389811691821790925591518793918516917fddf252ad1be2c89b69c2b068fc378daa952ba7f163c4a11628f55a4df523b3ef91a4949350505050565b6006546001600160a01b031633146105c45760405163118cdaa760e01b815233600482015260240161045e565b600680546001600160a01b038381166001600160a01b0319831681179093556040519116919082907f8be0079c531659141344cd1fd0a4f28419497f9722a3daafe3b4186f6b6457e090600090a35050565b610434828260405180602001604052806000815250610f4f565b6001600160a01b038216610a6957604051630b61174360e31b81526001600160a01b038316600482015260240161045e565b6001600160a01b03838116600081815260056020908152604080832094871680845294825291829020805460ff191686151590811790915591519182527f17307eab39ab6107e8899845ad3d59bd9653f200f220920489ca2b5937696c31910160405180910390a3505050565b6001600160a01b0383163b156104c257604051630a85bd0160e11b81526001600160a01b0384169063150b7a0290610b1890339088908790879060040161160e565b6020604051808303816000875af1925050508015610b53575060408051601f3d908101601f19168201909252610b509181019061164b565b60015b610bbc573d808015610b81576040519150601f19603f3d011682016040523d82523d6000602084013e610b86565b606091505b508051600003610bb457604051633250574960e11b81526001600160a01b038516600482015260240161045e565b805181602001fd5b6001600160e01b03198116630a85bd0160e11b14610bf857604051633250574960e11b81526001600160a01b038516600482015260240161045e565b5050505050565b60606000610c0c83610f66565b600101905060008167ffffffffffffffff811115610c2c57610c2c611298565b6040519080825280601f01601f191660200182016040528015610c56576020820181803683370190505b5090508181016020015b600019016f181899199a1a9b1b9c1cb0b131b232b360811b600a86061a8153600a8504945084610c6057509392505050565b60608151600003610cb157505060408051602081019091526000815290565b60006040518060600160405280604081526020016116b56040913990506000600384516002610ce09190611668565b610cea919061167b565b610cf590600461169d565b67ffffffffffffffff811115610d0d57610d0d611298565b6040519080825280601f01601f191660200182016040528015610d37576020820181803683370190505b509050600182016020820185865187015b80821015610da3576003820191508151603f8160121c168501518453600184019350603f81600c1c168501518453600184019350603f8160061c168501518453600184019350603f8116850151845350600183019250610d48565b5050600386510660018114610dbf5760028114610dd257610dda565b603d6001830353603d6002830353610dda565b603d60018303535b509195945050505050565b8080610df957506001600160a01b03821615155b15610ebb576000610e098461085f565b90506001600160a01b03831615801590610e355750826001600160a01b0316816001600160a01b031614155b8015610e485750610e4681846107f6565b155b15610e715760405163a9fbf51f60e01b81526001600160a01b038416600482015260240161045e565b8115610eb95783856001600160a01b0316826001600160a01b03167f8c5be1e5ebec7d5bd14f71427d1e84f3dd0314c0f7b2291e5b200ac8c7c3b92560405160405180910390a45b505b5050600090815260046020526040902080546001600160a01b0319166001600160a01b0392909216919091179055565b610ef683838361103e565b61055a576001600160a01b038316610f2457604051637e27328960e01b81526004810182905260240161045e565b60405163177e802f60e01b81526001600160a01b03831660048201526024810182905260440161045e565b610f5983836110a4565b61055a6000848484610ad6565b60008072184f03e93ff9f4daa797ed6e38ed64bf6a1f0160401b8310610fa55772184f03e93ff9f4daa797ed6e38ed64bf6a1f0160401b830492506040015b6d04ee2d6d415b85acef81000000008310610fd1576d04ee2d6d415b85acef8100000000830492506020015b662386f26fc100008310610fef57662386f26fc10000830492506010015b6305f5e1008310611007576305f5e100830492506008015b612710831061101b57612710830492506004015b6064831061102d576064830492506002015b600a83106103685760010192915050565b60006001600160a01b0383161580159061109c5750826001600160a01b0316846001600160a01b03161480611078575061107884846107f6565b8061109c57506000828152600460205260409020546001600160a01b038481169116145b949350505050565b6001600160a01b0382166110ce57604051633250574960e11b81526000600482015260240161045e565b60006110dc838360006108a5565b90506001600160a01b0381161561055a576040516339e3563760e11b81526000600482015260240161045e565b6001600160e01b03198116811461066e57600080fd5b60006020828403121561113157600080fd5b813561113c81611109565b9392505050565b60005b8381101561115e578181015183820152602001611146565b50506000910152565b6000815180845261117f816020860160208601611143565b601f01601f19169290920160200192915050565b60208152600061113c6020830184611167565b6000602082840312156111b857600080fd5b5035919050565b80356001600160a01b03811681146111d657600080fd5b919050565b600080604083850312156111ee57600080fd5b6111f7836111bf565b946020939093013593505050565b60006020828403121561121757600080fd5b61113c826111bf565b60008060006060848603121561123557600080fd5b61123e846111bf565b925061124c602085016111bf565b9150604084013590509250925092565b6000806040838503121561126f57600080fd5b611278836111bf565b91506020830135801515811461128d57600080fd5b809150509250929050565b634e487b7160e01b600052604160045260246000fd5b604051601f8201601f1916810167ffffffffffffffff811182821017156112d7576112d7611298565b604052919050565b600067ffffffffffffffff8211156112f9576112f9611298565b50601f01601f191660200190565b6000806000806080858703121561131d57600080fd5b611326856111bf565b9350611334602086016111bf565b925060408501359150606085013567ffffffffffffffff81111561135757600080fd5b8501601f8101871361136857600080fd5b803561137b611376826112df565b6112ae565b81815288602083850101111561139057600080fd5b8160208401602083013760006020838301015280935050505092959194509250565b600080604083850312156113c557600080fd5b6113ce836111bf565b91506113dc602084016111bf565b90509250929050565b600181811c908216806113f957607f821691505b60208210810361141957634e487b7160e01b600052602260045260246000fd5b50919050565b634e487b7160e01b600052601160045260246000fd5b6000600182016114475761144761141f565b5060010190565b60006020828403121561146057600080fd5b815167ffffffffffffffff81111561147757600080fd5b8201601f8101841361148857600080fd5b8051611496611376826112df565b8181528560208385010111156114ab57600080fd5b6114bc826020830160208601611143565b95945050505050565b7f7b226e616d65223a20224c616e642c205365612c20616e6420536b7920233a208152600083516114fd816020850160208801611143565b80830190507f222c20226465736372697074696f6e223a20224c616e642c205365612c20616e60208201527f6420536b79206973206120636f6c6c656374696f6e206f662067656e6572617460408201527f69766520617274207069656365732073746f72656420656e746972656c79206f60608201527f6e636861696e2e222c2022696d616765223a2022646174613a696d6167652f7360808201526d1d99cade1b5b0ed8985cd94d8d0b60921b60a082015283516115c48160ae840160208801611143565b61227d60f01b60ae929091019182015260b001949350505050565b600083516115f1818460208801611143565b835190830190611605818360208801611143565b01949350505050565b6001600160a01b038581168252841660208201526040810183905260806060820181905260009061164190830184611167565b9695505050505050565b60006020828403121561165d57600080fd5b815161113c81611109565b808201808211156103685761036861141f565b60008261169857634e487b7160e01b600052601260045260246000fd5b500490565b80820281158282048414176103685761036861141f56fe4142434445464748494a4b4c4d4e4f505152535455565758595a6162636465666768696a6b6c6d6e6f707172737475767778797a303132333435363738392b2fa2646970667358221220abfde6297f2063f350bc782c3467d47003942291ba04acb28b8297ee664249ca64736f6c63430008140033",
  "devdoc": {
    "errors": {
      "ERC721IncorrectOwner(address,uint256,address)": [
        {
          "details": "Indicates an error related to the ownership over a particular token. Used in transfers.",
          "params": {
            "owner": "Address of the current owner of a token.",
            "sender": "Address whose tokens are being transferred.",
            "tokenId": "Identifier number of a token."
          }
        }
      ],
      "ERC721InsufficientApproval(address,uint256)": [
        {
          "details": "Indicates a failure with the `operator`s approval. Used in transfers.",
          "params": {
            "operator": "Address that may be allowed to operate on tokens without being their owner.",
            "tokenId": "Identifier number of a token."
          }
        }
      ],
      "ERC721InvalidApprover(address)": [
        {
          "details": "Indicates a failure with the `approver` of a token to be approved. Used in approvals.",
          "params": {
            "approver": "Address initiating an approval operation."
          }
        }
      ],
      "ERC721InvalidOperator(address)": [
        {
          "details": "Indicates a failure with the `operator` to be approved. Used in approvals.",
          "params": {
            "operator": "Address that may be allowed to operate on tokens without being their owner."
          }
        }
      ],
      "ERC721InvalidOwner(address)": [
        {
          "details": "Indicates that an address can't be an owner. For example, `address(0)` is a forbidden owner in EIP-20. Used in balance queries.",
          "params": {
            "owner": "Address of the current owner of a token."
          }
        }
      ],
      "ERC721InvalidReceiver(address)": [
        {
          "details": "Indicates a failure with the token `receiver`. Used in transfers.",
          "params": {
            "receiver": "Address to which tokens are being transferred."
          }
        }
      ],
      "ERC721InvalidSender(address)": [
        {
          "details": "Indicates a failure with the token `sender`. Used in transfers.",
          "params": {
            "sender": "Address whose tokens are being transferred."
          }
        }
      ],
      "ERC721NonexistentToken(uint256)": [
        {
          "details": "Indicates a `tokenId` whose `owner` is the zero address.",
          "params": {
            "tokenId": "Identifier number of a token."
          }
        }
      ],
      "OwnableInvalidOwner(address)": [
        {
          "details": "The owner is not a valid owner account. (eg. `address(0)`)"
        }
      ],
      "OwnableUnauthorizedAccount(address)": [
        {
          "details": "The caller account is not authorized to perform an operation."
        }
      ]
    },
    "events": {
      "Approval(address,address,uint256)": {
        "details": "Emitted when `owner` enables `approved` to manage the `tokenId` token."
      },
      "ApprovalForAll(address,address,bool)": {
        "details": "Emitted when `owner` enables or disables (`approved`) `operator` to manage all of its assets."
      },
      "Transfer(address,address,uint256)": {
        "details": "Emitted when `tokenId` token is transferred from `from` to `to`."
      }
    },
    "kind": "dev",
    "methods": {
      "approve(address,uint256)": {
        "details": "See {IERC721-approve}."
      },
      "balanceOf(address)": {
        "details": "See {IERC721-balanceOf}."
      },
      "getApproved(uint256)": {
        "details": "See {IERC721-getApproved}."
      },
      "isApprovedForAll(address,address)": {
        "details": "See {IERC721-isApprovedForAll}."
      },
      "name()": {
        "details": "See {IERC721Metadata-name}."
      },
      "owner()": {
        "details": "Returns the address of the current owner."
      },
      "ownerOf(uint256)": {
        "details": "See {IERC721-ownerOf}."
      },
      "renounceOwnership()": {
        "details": "Leaves the contract without owner. It will not be possible to call `onlyOwner` functions. Can only be called by the current owner. NOTE: Renouncing ownership will leave the contract without an owner, thereby disabling any functionality that is only available to the owner."
      },
      "safeTransferFrom(address,address,uint256)": {
        "details": "See {IERC721-safeTransferFrom}."
      },
      "safeTransferFrom(address,address,uint256,bytes)": {
        "details": "See {IERC721-safeTransferFrom}."
      },
      "setApprovalForAll(address,bool)": {
        "details": "See {IERC721-setApprovalForAll}."
      },
      "supportsInterface(bytes4)": {
        "details": "See {IERC165-supportsInterface}."
      },
      "symbol()": {
        "details": "See {IERC721Metadata-symbol}."
      },
      "transferFrom(address,address,uint256)": {
        "details": "See {IERC721-transferFrom}."
      },
      "transferOwnership(address)": {
        "details": "Transfers ownership of the contract to a new account (`newOwner`). Can only be called by the current owner."
      }
    },
    "version": 1
  },
  "userdoc": {
    "kind": "user",
    "methods": {},
    "version": 1
  },
  "storageLayout": {
    "storage": [
      {
        "astId": 317,
        "contract": "contracts/LandSeaSkyNFT.sol:LandSeaSkyNFT",
        "label": "_name",
        "offset": 0,
        "slot": "0",
        "type": "t_string_storage"
      },
      {
        "astId": 319,
        "contract": "contracts/LandSeaSkyNFT.sol:LandSeaSkyNFT",
        "label": "_symbol",
        "offset": 0,
        "slot": "1",
        "type": "t_string_storage"
      },
      {
        "astId": 323,
        "contract": "contracts/LandSeaSkyNFT.sol:LandSeaSkyNFT",
        "label": "_owners",
        "offset": 0,
        "slot": "2",
        "type": "t_mapping(t_uint256,t_address)"
      },
      {
        "astId": 327,
        "contract": "contracts/LandSeaSkyNFT.sol:LandSeaSkyNFT",
        "label": "_balances",
        "offset": 0,
        "slot": "3",
        "type": "t_mapping(t_address,t_uint256)"
      },
      {
        "astId": 331,
        "contract": "contracts/LandSeaSkyNFT.sol:LandSeaSkyNFT",
        "label": "_tokenApprovals",
        "offset": 0,
        "slot": "4",
        "type": "t_mapping(t_uint256,t_address)"
      },
      {
        "astId": 337,
        "contract": "contracts/LandSeaSkyNFT.sol:LandSeaSkyNFT",
        "label": "_operatorApprovals",
        "offset": 0,
        "slot": "5",
        "type": "t_mapping(t_address,t_mapping(t_address,t_bool))"
      },
      {
        "astId": 8,
        "contract": "contracts/LandSeaSkyNFT.sol:LandSeaSkyNFT",
        "label": "_owner",
        "offset": 0,
        "slot": "6",
        "type": "t_address"
      },
      {
        "astId": 3006,
        "contract": "contracts/LandSeaSkyNFT.sol:LandSeaSkyNFT",
        "label": "counter",
        "offset": 0,
        "slot": "7",
        "type": "t_uint256"
      },
      {
        "astId": 3013,
        "contract": "contracts/LandSeaSkyNFT.sol:LandSeaSkyNFT",
        "label": "upgraded",
        "offset": 0,
        "slot": "8",
        "type": "t_mapping(t_uint256,t_bool)"
      },
      {
        "astId": 3017,
        "contract": "contracts/LandSeaSkyNFT.sol:LandSeaSkyNFT",
        "label": "minted",
        "offset": 0,
        "slot": "9",
        "type": "t_mapping(t_address,t_bool)"
      },
      {
        "astId": 3032,
        "contract": "contracts/LandSeaSkyNFT.sol:LandSeaSkyNFT",
        "label": "svgRenderer",
        "offset": 0,
        "slot": "10",
        "type": "t_contract(ISVGRenderer)3000"
      }
    ],
    "types": {
      "t_address": {
        "encoding": "inplace",
        "label": "address",
        "numberOfBytes": "20"
      },
      "t_bool": {
        "encoding": "inplace",
        "label": "bool",
        "numberOfBytes": "1"
      },
      "t_contract(ISVGRenderer)3000": {
        "encoding": "inplace",
        "label": "contract ISVGRenderer",
        "numberOfBytes": "20"
      },
      "t_mapping(t_address,t_bool)": {
        "encoding": "mapping",
        "key": "t_address",
        "label": "mapping(address => bool)",
        "numberOfBytes": "32",
        "value": "t_bool"
      },
      "t_mapping(t_address,t_mapping(t_address,t_bool))": {
        "encoding": "mapping",
        "key": "t_address",
        "label": "mapping(address => mapping(address => bool))",
        "numberOfBytes": "32",
        "value": "t_mapping(t_address,t_bool)"
      },
      "t_mapping(t_address,t_uint256)": {
        "encoding": "mapping",
        "key": "t_address",
        "label": "mapping(address => uint256)",
        "numberOfBytes": "32",
        "value": "t_uint256"
      },
      "t_mapping(t_uint256,t_address)": {
        "encoding": "mapping",
        "key": "t_uint256",
        "label": "mapping(uint256 => address)",
        "numberOfBytes": "32",
        "value": "t_address"
      },
      "t_mapping(t_uint256,t_bool)": {
        "encoding": "mapping",
        "key": "t_uint256",
        "label": "mapping(uint256 => bool)",
        "numberOfBytes": "32",
        "value": "t_bool"
      },
      "t_string_storage": {
        "encoding": "bytes",
        "label": "string",
        "numberOfBytes": "32"
      },
      "t_uint256": {
        "encoding": "inplace",
        "label": "uint256",
        "numberOfBytes": "32"
      }
    }
  }
}