{
  "address": "0x61BD81D8afe65ee36f4ee4903Ce284a1A6482B18",
  "abi": [
    {
      "inputs": [
        {
          "internalType": "address",
          "name": "_svgRenderer",
          "type": "address"
        }
      ],
      "stateMutability": "nonpayable",
      "type": "constructor"
    },
    {
      "inputs": [],
      "name": "AlreadyUpgraded",
      "type": "error"
    },
    {
      "inputs": [
        {
          "internalType": "address",
          "name": "sender",
          "type": "address"
        },
        {
          "internalType": "uint256",
          "name": "tokenId",
          "type": "uint256"
        },
        {
          "internalType": "address",
          "name": "owner",
          "type": "address"
        }
      ],
      "name": "ERC721IncorrectOwner",
      "type": "error"
    },
    {
      "inputs": [
        {
          "internalType": "address",
          "name": "operator",
          "type": "address"
        },
        {
          "internalType": "uint256",
          "name": "tokenId",
          "type": "uint256"
        }
      ],
      "name": "ERC721InsufficientApproval",
      "type": "error"
    },
    {
      "inputs": [
        {
          "internalType": "address",
          "name": "approver",
          "type": "address"
        }
      ],
      "name": "ERC721InvalidApprover",
      "type": "error"
    },
    {
      "inputs": [
        {
          "internalType": "address",
          "name": "operator",
          "type": "address"
        }
      ],
      "name": "ERC721InvalidOperator",
      "type": "error"
    },
    {
      "inputs": [
        {
          "internalType": "address",
          "name": "owner",
          "type": "address"
        }
      ],
      "name": "ERC721InvalidOwner",
      "type": "error"
    },
    {
      "inputs": [
        {
          "internalType": "address",
          "name": "receiver",
          "type": "address"
        }
      ],
      "name": "ERC721InvalidReceiver",
      "type": "error"
    },
    {
      "inputs": [
        {
          "internalType": "address",
          "name": "sender",
          "type": "address"
        }
      ],
      "name": "ERC721InvalidSender",
      "type": "error"
    },
    {
      "inputs": [
        {
          "internalType": "uint256",
          "name": "tokenId",
          "type": "uint256"
        }
      ],
      "name": "ERC721NonexistentToken",
      "type": "error"
    },
    {
      "inputs": [
        {
          "internalType": "uint256",
          "name": "tokenId",
          "type": "uint256"
        }
      ],
      "name": "InvalidTokenId",
      "type": "error"
    },
    {
      "inputs": [],
      "name": "MaxSupplyReached",
      "type": "error"
    },
    {
      "inputs": [
        {
          "internalType": "address",
          "name": "owner",
          "type": "address"
        }
      ],
      "name": "OwnableInvalidOwner",
      "type": "error"
    },
    {
      "inputs": [
        {
          "internalType": "address",
          "name": "account",
          "type": "address"
        }
      ],
      "name": "OwnableUnauthorizedAccount",
      "type": "error"
    },
    {
      "inputs": [],
      "name": "UpgradesClosed",
      "type": "error"
    },
    {
      "anonymous": false,
      "inputs": [
        {
          "indexed": true,
          "internalType": "address",
          "name": "owner",
          "type": "address"
        },
        {
          "indexed": true,
          "internalType": "address",
          "name": "approved",
          "type": "address"
        },
        {
          "indexed": true,
          "internalType": "uint256",
          "name": "tokenId",
          "type": "uint256"
        }
      ],
      "name": "Approval",
      "type": "event"
    },
    {
      "anonymous": false,
      "inputs": [
        {
          "indexed": true,
          "internalType": "address",
          "name": "owner",
          "type": "address"
        },
        {
          "indexed": true,
          "internalType": "address",
          "name": "operator",
          "type": "address"
        },
        {
          "indexed": false,
          "internalType": "bool",
          "name": "approved",
          "type": "bool"
        }
      ],
      "name": "ApprovalForAll",
      "type": "event"
    },
    {
      "anonymous": false,
      "inputs": [
        {
          "indexed": true,
          "internalType": "address",
          "name": "previousOwner",
          "type": "address"
        },
        {
          "indexed": true,
          "internalType": "address",
          "name": "newOwner",
          "type": "address"
        }
      ],
      "name": "OwnershipTransferred",
      "type": "event"
    },
    {
      "anonymous": false,
      "inputs": [
        {
          "indexed": true,
          "internalType": "address",
          "name": "from",
          "type": "address"
        },
        {
          "indexed": true,
          "internalType": "address",
          "name": "to",
          "type": "address"
        },
        {
          "indexed": true,
          "internalType": "uint256",
          "name": "tokenId",
          "type": "uint256"
        }
      ],
      "name": "Transfer",
      "type": "event"
    },
    {
      "inputs": [],
      "name": "MAX_SUPPLY",
      "outputs": [
        {
          "internalType": "uint256",
          "name": "",
          "type": "uint256"
        }
      ],
      "stateMutability": "view",
      "type": "function"
    },
    {
      "inputs": [
        {
          "internalType": "address",
          "name": "to",
          "type": "address"
        },
        {
          "internalType": "uint256",
          "name": "tokenId",
          "type": "uint256"
        }
      ],
      "name": "approve",
      "outputs": [],
      "stateMutability": "nonpayable",
      "type": "function"
    },
    {
      "inputs": [
        {
          "internalType": "address",
          "name": "owner",
          "type": "address"
        }
      ],
      "name": "balanceOf",
      "outputs": [
        {
          "internalType": "uint256",
          "name": "",
          "type": "uint256"
        }
      ],
      "stateMutability": "view",
      "type": "function"
    },
    {
      "inputs": [],
      "name": "counter",
      "outputs": [
        {
          "internalType": "uint256",
          "name": "",
          "type": "uint256"
        }
      ],
      "stateMutability": "view",
      "type": "function"
    },
    {
      "inputs": [
        {
          "internalType": "uint256",
          "name": "tokenId",
          "type": "uint256"
        }
      ],
      "name": "getApproved",
      "outputs": [
        {
          "internalType": "address",
          "name": "",
          "type": "address"
        }
      ],
      "stateMutability": "view",
      "type": "function"
    },
    {
      "inputs": [
        {
          "internalType": "address",
          "name": "owner",
          "type": "address"
        },
        {
          "internalType": "address",
          "name": "operator",
          "type": "address"
        }
      ],
      "name": "isApprovedForAll",
      "outputs": [
        {
          "internalType": "bool",
          "name": "",
          "type": "bool"
        }
      ],
      "stateMutability": "view",
      "type": "function"
    },
    {
      "inputs": [
        {
          "internalType": "address",
          "name": "_recipient",
          "type": "address"
        }
      ],
      "name": "mintFor",
      "outputs": [],
      "stateMutability": "nonpayable",
      "type": "function"
    },
    {
      "inputs": [],
      "name": "name",
      "outputs": [
        {
          "internalType": "string",
          "name": "",
          "type": "string"
        }
      ],
      "stateMutability": "view",
      "type": "function"
    },
    {
      "inputs": [],
      "name": "owner",
      "outputs": [
        {
          "internalType": "address",
          "name": "",
          "type": "address"
        }
      ],
      "stateMutability": "view",
      "type": "function"
    },
    {
      "inputs": [
        {
          "internalType": "uint256",
          "name": "tokenId",
          "type": "uint256"
        }
      ],
      "name": "ownerOf",
      "outputs": [
        {
          "internalType": "address",
          "name": "",
          "type": "address"
        }
      ],
      "stateMutability": "view",
      "type": "function"
    },
    {
      "inputs": [],
      "name": "renounceOwnership",
      "outputs": [],
      "stateMutability": "nonpayable",
      "type": "function"
    },
    {
      "inputs": [
        {
          "internalType": "address",
          "name": "from",
          "type": "address"
        },
        {
          "internalType": "address",
          "name": "to",
          "type": "address"
        },
        {
          "internalType": "uint256",
          "name": "tokenId",
          "type": "uint256"
        }
      ],
      "name": "safeTransferFrom",
      "outputs": [],
      "stateMutability": "nonpayable",
      "type": "function"
    },
    {
      "inputs": [
        {
          "internalType": "address",
          "name": "from",
          "type": "address"
        },
        {
          "internalType": "address",
          "name": "to",
          "type": "address"
        },
        {
          "internalType": "uint256",
          "name": "tokenId",
          "type": "uint256"
        },
        {
          "internalType": "bytes",
          "name": "data",
          "type": "bytes"
        }
      ],
      "name": "safeTransferFrom",
      "outputs": [],
      "stateMutability": "nonpayable",
      "type": "function"
    },
    {
      "inputs": [
        {
          "internalType": "address",
          "name": "operator",
          "type": "address"
        },
        {
          "internalType": "bool",
          "name": "approved",
          "type": "bool"
        }
      ],
      "name": "setApprovalForAll",
      "outputs": [],
      "stateMutability": "nonpayable",
      "type": "function"
    },
    {
      "inputs": [
        {
          "internalType": "bytes4",
          "name": "interfaceId",
          "type": "bytes4"
        }
      ],
      "name": "supportsInterface",
      "outputs": [
        {
          "internalType": "bool",
          "name": "",
          "type": "bool"
        }
      ],
      "stateMutability": "view",
      "type": "function"
    },
    {
      "inputs": [],
      "name": "symbol",
      "outputs": [
        {
          "internalType": "string",
          "name": "",
          "type": "string"
        }
      ],
      "stateMutability": "view",
      "type": "function"
    },
    {
      "inputs": [
        {
          "internalType": "uint256",
          "name": "_tokenId",
          "type": "uint256"
        }
      ],
      "name": "tokenURI",
      "outputs": [
        {
          "internalType": "string",
          "name": "",
          "type": "string"
        }
      ],
      "stateMutability": "view",
      "type": "function"
    },
    {
      "inputs": [
        {
          "internalType": "address",
          "name": "from",
          "type": "address"
        },
        {
          "internalType": "address",
          "name": "to",
          "type": "address"
        },
        {
          "internalType": "uint256",
          "name": "tokenId",
          "type": "uint256"
        }
      ],
      "name": "transferFrom",
      "outputs": [],
      "stateMutability": "nonpayable",
      "type": "function"
    },
    {
      "inputs": [
        {
          "internalType": "address",
          "name": "newOwner",
          "type": "address"
        }
      ],
      "name": "transferOwnership",
      "outputs": [],
      "stateMutability": "nonpayable",
      "type": "function"
    },
    {
      "inputs": [
        {
          "internalType": "uint256",
          "name": "_tokenId",
          "type": "uint256"
        }
      ],
      "name": "upgradeToken",
      "outputs": [],
      "stateMutability": "nonpayable",
      "type": "function"
    },
    {
      "inputs": [
        {
          "internalType": "uint256",
          "name": "",
          "type": "uint256"
        }
      ],
      "name": "upgraded",
      "outputs": [
        {
          "internalType": "bool",
          "name": "",
          "type": "bool"
        }
      ],
      "stateMutability": "view",
      "type": "function"
    }
  ],
  "transactionHash": "0xace4af961ed3f93dacf8c3c5251cf0308d945c6365e3c8d001180203f0243286",
  "args": [
    "0xF0303D7b49689cdf6fb59b8187281F4f85c7C68A"
  ],
  "numDeployments": 1,
  "solcInputHash": "1b8da68c93dd8f4da8fb9e853931a446",
  "bytecode": "0x60806040523480156200001157600080fd5b50604051620019a6380380620019a6833981016040819052620000349162000152565b33604051806040016040528060128152602001714c616e642c205365612c20616e6420536b7960701b815250604051806040016040528060038152602001624c535360e81b81525081600090816200008d919062000229565b5060016200009c828262000229565b5050506001600160a01b038116620000ce57604051631e4fbdf760e01b81526000600482015260240160405180910390fd5b620000d98162000100565b50600980546001600160a01b0319166001600160a01b0392909216919091179055620002f5565b600680546001600160a01b038381166001600160a01b0319831681179093556040519116919082907f8be0079c531659141344cd1fd0a4f28419497f9722a3daafe3b4186f6b6457e090600090a35050565b6000602082840312156200016557600080fd5b81516001600160a01b03811681146200017d57600080fd5b9392505050565b634e487b7160e01b600052604160045260246000fd5b600181811c90821680620001af57607f821691505b602082108103620001d057634e487b7160e01b600052602260045260246000fd5b50919050565b601f8211156200022457600081815260208120601f850160051c81016020861015620001ff5750805b601f850160051c820191505b8181101562000220578281556001016200020b565b5050505b505050565b81516001600160401b0381111562000245576200024562000184565b6200025d816200025684546200019a565b84620001d6565b602080601f8311600181146200029557600084156200027c5750858301515b600019600386901b1c1916600185901b17855562000220565b600085815260208120601f198616915b82811015620002c657888601518255948401946001909101908401620002a5565b5085821015620002e55787850151600019600388901b60f8161c191681555b5050505050600190811b01905550565b6116a180620003056000396000f3fe608060405234801561001057600080fd5b50600436106101375760003560e01c806370a08231116100b8578063a22cb4651161007c578063a22cb4651461026c578063b88d4fde1461027f578063c87b56dd14610292578063e985e9c5146102a5578063f2fde38b146102b8578063f7ea244e146102cb57600080fd5b806370a0823114610225578063715018a61461023857806371e578dc146102405780638da5cb5b1461025357806395d89b411461026457600080fd5b806332309a78116100ff57806332309a78146101cc57806332cb6b0c146101df57806342842e0e146101f657806361bc221a146102095780636352211e1461021257600080fd5b806301ffc9a71461013c57806306fdde0314610164578063081812fc14610179578063095ea7b3146101a457806323b872dd146101b9575b600080fd5b61014f61014a366004611096565b6102ee565b60405190151581526020015b60405180910390f35b61016c610340565b60405161015b919061110a565b61018c61018736600461111d565b6103d2565b6040516001600160a01b03909116815260200161015b565b6101b76101b2366004611152565b6103fb565b005b6101b76101c736600461117c565b61040a565b6101b76101da36600461111d565b61049a565b6101e86108ae81565b60405190815260200161015b565b6101b761020436600461117c565b610511565b6101e860075481565b61018c61022036600461111d565b610531565b6101e86102333660046111b8565b61053c565b6101b7610584565b6101b761024e3660046111b8565b610598565b6006546001600160a01b031661018c565b61016c6105e8565b6101b761027a3660046111d3565b6105f7565b6101b761028d36600461127e565b610602565b61016c6102a036600461111d565b610619565b61014f6102b3366004611329565b61076d565b6101b76102c63660046111b8565b61079b565b61014f6102d936600461111d565b60086020526000908152604090205460ff1681565b60006001600160e01b031982166380ac58cd60e01b148061031f57506001600160e01b03198216635b5e139f60e01b145b8061033a57506301ffc9a760e01b6001600160e01b03198316145b92915050565b60606000805461034f9061135c565b80601f016020809104026020016040519081016040528092919081815260200182805461037b9061135c565b80156103c85780601f1061039d576101008083540402835291602001916103c8565b820191906000526020600020905b8154815290600101906020018083116103ab57829003601f168201915b5050505050905090565b60006103dd826107d6565b506000828152600460205260409020546001600160a01b031661033a565b61040682823361080f565b5050565b6001600160a01b03821661043957604051633250574960e11b8152600060048201526024015b60405180910390fd5b600061044683833361081c565b9050836001600160a01b0316816001600160a01b031614610494576040516364283d7b60e01b81526001600160a01b0380861660048301526024820184905282166044820152606401610430565b50505050565b6104a2610915565b6108ae600754106104c657604051631da25a7360e11b815260040160405180910390fd5b60008181526008602052604090205460ff16156104f65760405163108223e160e21b815260040160405180910390fd5b6000908152600860205260409020805460ff19166001179055565b61052c83838360405180602001604052806000815250610602565b505050565b600061033a826107d6565b60006001600160a01b038216610568576040516322718ad960e21b815260006004820152602401610430565b506001600160a01b031660009081526003602052604090205490565b61058c610915565b6105966000610942565b565b6105a0610915565b6108ae600754106105c45760405163d05cb60960e01b815260040160405180910390fd5b600780549060006105d4836113ac565b91905055506105e581600754610994565b50565b60606001805461034f9061135c565b6104063383836109ae565b61060d84848461040a565b61049484848484610a4d565b60606007548211156106415760405163ed15e6cf60e01b815260048101839052602401610430565b600061070861064f84610b76565b6009546000868152600860205260409081902054905163038aa91560e01b81526004810188905260ff909116151560248201526106e3916001600160a01b03169063038aa91590604401600060405180830381865afa1580156106b6573d6000803e3d6000fd5b505050506040513d6000823e601f3d908101601f191682016040526106de91908101906113c5565b610c09565b6040516020016106f492919061143c565b604051602081830303815290604052610c09565b905061074460408051808201909152601d81527f646174613a6170706c69636174696f6e2f6a736f6e3b6261736536342c000000602082015290565b81604051602001610756929190611556565b604051602081830303815290604052915050919050565b6001600160a01b03918216600090815260056020908152604080832093909416825291909152205460ff1690565b6107a3610915565b6001600160a01b0381166107cd57604051631e4fbdf760e01b815260006004820152602401610430565b6105e581610942565b6000818152600260205260408120546001600160a01b03168061033a57604051637e27328960e01b815260048101849052602401610430565b61052c8383836001610d5c565b6000828152600260205260408120546001600160a01b039081169083161561084957610849818486610e62565b6001600160a01b0381161561088757610866600085600080610d5c565b6001600160a01b038116600090815260036020526040902080546000190190555b6001600160a01b038516156108b6576001600160a01b0385166000908152600360205260409020805460010190555b60008481526002602052604080822080546001600160a01b0319166001600160a01b0389811691821790925591518793918516917fddf252ad1be2c89b69c2b068fc378daa952ba7f163c4a11628f55a4df523b3ef91a4949350505050565b6006546001600160a01b031633146105965760405163118cdaa760e01b8152336004820152602401610430565b600680546001600160a01b038381166001600160a01b0319831681179093556040519116919082907f8be0079c531659141344cd1fd0a4f28419497f9722a3daafe3b4186f6b6457e090600090a35050565b610406828260405180602001604052806000815250610ec6565b6001600160a01b0382166109e057604051630b61174360e31b81526001600160a01b0383166004820152602401610430565b6001600160a01b03838116600081815260056020908152604080832094871680845294825291829020805460ff191686151590811790915591519182527f17307eab39ab6107e8899845ad3d59bd9653f200f220920489ca2b5937696c31910160405180910390a3505050565b6001600160a01b0383163b1561049457604051630a85bd0160e11b81526001600160a01b0384169063150b7a0290610a8f903390889087908790600401611585565b6020604051808303816000875af1925050508015610aca575060408051601f3d908101601f19168201909252610ac7918101906115c2565b60015b610b33573d808015610af8576040519150601f19603f3d011682016040523d82523d6000602084013e610afd565b606091505b508051600003610b2b57604051633250574960e11b81526001600160a01b0385166004820152602401610430565b805181602001fd5b6001600160e01b03198116630a85bd0160e11b14610b6f57604051633250574960e11b81526001600160a01b0385166004820152602401610430565b5050505050565b60606000610b8383610edd565b600101905060008167ffffffffffffffff811115610ba357610ba361120f565b6040519080825280601f01601f191660200182016040528015610bcd576020820181803683370190505b5090508181016020015b600019016f181899199a1a9b1b9c1cb0b131b232b360811b600a86061a8153600a8504945084610bd757509392505050565b60608151600003610c2857505060408051602081019091526000815290565b600060405180606001604052806040815260200161162c6040913990506000600384516002610c5791906115df565b610c6191906115f2565b610c6c906004611614565b67ffffffffffffffff811115610c8457610c8461120f565b6040519080825280601f01601f191660200182016040528015610cae576020820181803683370190505b509050600182016020820185865187015b80821015610d1a576003820191508151603f8160121c168501518453600184019350603f81600c1c168501518453600184019350603f8160061c168501518453600184019350603f8116850151845350600183019250610cbf565b5050600386510660018114610d365760028114610d4957610d51565b603d6001830353603d6002830353610d51565b603d60018303535b509195945050505050565b8080610d7057506001600160a01b03821615155b15610e32576000610d80846107d6565b90506001600160a01b03831615801590610dac5750826001600160a01b0316816001600160a01b031614155b8015610dbf5750610dbd818461076d565b155b15610de85760405163a9fbf51f60e01b81526001600160a01b0384166004820152602401610430565b8115610e305783856001600160a01b0316826001600160a01b03167f8c5be1e5ebec7d5bd14f71427d1e84f3dd0314c0f7b2291e5b200ac8c7c3b92560405160405180910390a45b505b5050600090815260046020526040902080546001600160a01b0319166001600160a01b0392909216919091179055565b610e6d838383610fb5565b61052c576001600160a01b038316610e9b57604051637e27328960e01b815260048101829052602401610430565b60405163177e802f60e01b81526001600160a01b038316600482015260248101829052604401610430565b610ed0838361101b565b61052c6000848484610a4d565b60008072184f03e93ff9f4daa797ed6e38ed64bf6a1f0160401b8310610f1c5772184f03e93ff9f4daa797ed6e38ed64bf6a1f0160401b830492506040015b6d04ee2d6d415b85acef81000000008310610f48576d04ee2d6d415b85acef8100000000830492506020015b662386f26fc100008310610f6657662386f26fc10000830492506010015b6305f5e1008310610f7e576305f5e100830492506008015b6127108310610f9257612710830492506004015b60648310610fa4576064830492506002015b600a831061033a5760010192915050565b60006001600160a01b038316158015906110135750826001600160a01b0316846001600160a01b03161480610fef5750610fef848461076d565b8061101357506000828152600460205260409020546001600160a01b038481169116145b949350505050565b6001600160a01b03821661104557604051633250574960e11b815260006004820152602401610430565b60006110538383600061081c565b90506001600160a01b0381161561052c576040516339e3563760e11b815260006004820152602401610430565b6001600160e01b0319811681146105e557600080fd5b6000602082840312156110a857600080fd5b81356110b381611080565b9392505050565b60005b838110156110d55781810151838201526020016110bd565b50506000910152565b600081518084526110f68160208601602086016110ba565b601f01601f19169290920160200192915050565b6020815260006110b360208301846110de565b60006020828403121561112f57600080fd5b5035919050565b80356001600160a01b038116811461114d57600080fd5b919050565b6000806040838503121561116557600080fd5b61116e83611136565b946020939093013593505050565b60008060006060848603121561119157600080fd5b61119a84611136565b92506111a860208501611136565b9150604084013590509250925092565b6000602082840312156111ca57600080fd5b6110b382611136565b600080604083850312156111e657600080fd5b6111ef83611136565b91506020830135801515811461120457600080fd5b809150509250929050565b634e487b7160e01b600052604160045260246000fd5b604051601f8201601f1916810167ffffffffffffffff8111828210171561124e5761124e61120f565b604052919050565b600067ffffffffffffffff8211156112705761127061120f565b50601f01601f191660200190565b6000806000806080858703121561129457600080fd5b61129d85611136565b93506112ab60208601611136565b925060408501359150606085013567ffffffffffffffff8111156112ce57600080fd5b8501601f810187136112df57600080fd5b80356112f26112ed82611256565b611225565b81815288602083850101111561130757600080fd5b8160208401602083013760006020838301015280935050505092959194509250565b6000806040838503121561133c57600080fd5b61134583611136565b915061135360208401611136565b90509250929050565b600181811c9082168061137057607f821691505b60208210810361139057634e487b7160e01b600052602260045260246000fd5b50919050565b634e487b7160e01b600052601160045260246000fd5b6000600182016113be576113be611396565b5060010190565b6000602082840312156113d757600080fd5b815167ffffffffffffffff8111156113ee57600080fd5b8201601f810184136113ff57600080fd5b805161140d6112ed82611256565b81815285602083850101111561142257600080fd5b6114338260208301602086016110ba565b95945050505050565b7f7b226e616d65223a20224c616e642c205365612c20616e6420536b7920233a208152600083516114748160208501602088016110ba565b80830190507f222c20226465736372697074696f6e223a20224c616e642c205365612c20616e60208201527f6420536b79206973206120636f6c6c656374696f6e206f662067656e6572617460408201527f69766520617274207069656365732073746f72656420656e746972656c79206f60608201527f6e636861696e2e222c2022696d616765223a2022646174613a696d6167652f7360808201526d1d99cade1b5b0ed8985cd94d8d0b60921b60a0820152835161153b8160ae8401602088016110ba565b61227d60f01b60ae929091019182015260b001949350505050565b600083516115688184602088016110ba565b83519083019061157c8183602088016110ba565b01949350505050565b6001600160a01b03858116825284166020820152604081018390526080606082018190526000906115b8908301846110de565b9695505050505050565b6000602082840312156115d457600080fd5b81516110b381611080565b8082018082111561033a5761033a611396565b60008261160f57634e487b7160e01b600052601260045260246000fd5b500490565b808202811582820484141761033a5761033a61139656fe4142434445464748494a4b4c4d4e4f505152535455565758595a6162636465666768696a6b6c6d6e6f707172737475767778797a303132333435363738392b2fa26469706673582212202cc8b67b2787d708f0fa3da53730502a01c5e77cc4a9049265ea74dfd82d2ea864736f6c63430008140033",
  "devdoc": {
    "errors": {
      "ERC721IncorrectOwner(address,uint256,address)": [
        {
          "details": "Indicates an error related to the ownership over a particular token. Used in transfers.",
          "params": {
            "owner": "Address of the current owner of a token.",
            "sender": "Address whose tokens are being transferred.",
            "tokenId": "Identifier number of a token."
          }
        }
      ],
      "ERC721InsufficientApproval(address,uint256)": [
        {
          "details": "Indicates a failure with the `operator`s approval. Used in transfers.",
          "params": {
            "operator": "Address that may be allowed to operate on tokens without being their owner.",
            "tokenId": "Identifier number of a token."
          }
        }
      ],
      "ERC721InvalidApprover(address)": [
        {
          "details": "Indicates a failure with the `approver` of a token to be approved. Used in approvals.",
          "params": {
            "approver": "Address initiating an approval operation."
          }
        }
      ],
      "ERC721InvalidOperator(address)": [
        {
          "details": "Indicates a failure with the `operator` to be approved. Used in approvals.",
          "params": {
            "operator": "Address that may be allowed to operate on tokens without being their owner."
          }
        }
      ],
      "ERC721InvalidOwner(address)": [
        {
          "details": "Indicates that an address can't be an owner. For example, `address(0)` is a forbidden owner in EIP-20. Used in balance queries.",
          "params": {
            "owner": "Address of the current owner of a token."
          }
        }
      ],
      "ERC721InvalidReceiver(address)": [
        {
          "details": "Indicates a failure with the token `receiver`. Used in transfers.",
          "params": {
            "receiver": "Address to which tokens are being transferred."
          }
        }
      ],
      "ERC721InvalidSender(address)": [
        {
          "details": "Indicates a failure with the token `sender`. Used in transfers.",
          "params": {
            "sender": "Address whose tokens are being transferred."
          }
        }
      ],
      "ERC721NonexistentToken(uint256)": [
        {
          "details": "Indicates a `tokenId` whose `owner` is the zero address.",
          "params": {
            "tokenId": "Identifier number of a token."
          }
        }
      ],
      "OwnableInvalidOwner(address)": [
        {
          "details": "The owner is not a valid owner account. (eg. `address(0)`)"
        }
      ],
      "OwnableUnauthorizedAccount(address)": [
        {
          "details": "The caller account is not authorized to perform an operation."
        }
      ]
    },
    "events": {
      "Approval(address,address,uint256)": {
        "details": "Emitted when `owner` enables `approved` to manage the `tokenId` token."
      },
      "ApprovalForAll(address,address,bool)": {
        "details": "Emitted when `owner` enables or disables (`approved`) `operator` to manage all of its assets."
      },
      "Transfer(address,address,uint256)": {
        "details": "Emitted when `tokenId` token is transferred from `from` to `to`."
      }
    },
    "kind": "dev",
    "methods": {
      "approve(address,uint256)": {
        "details": "See {IERC721-approve}."
      },
      "balanceOf(address)": {
        "details": "See {IERC721-balanceOf}."
      },
      "getApproved(uint256)": {
        "details": "See {IERC721-getApproved}."
      },
      "isApprovedForAll(address,address)": {
        "details": "See {IERC721-isApprovedForAll}."
      },
      "name()": {
        "details": "See {IERC721Metadata-name}."
      },
      "owner()": {
        "details": "Returns the address of the current owner."
      },
      "ownerOf(uint256)": {
        "details": "See {IERC721-ownerOf}."
      },
      "renounceOwnership()": {
        "details": "Leaves the contract without owner. It will not be possible to call `onlyOwner` functions. Can only be called by the current owner. NOTE: Renouncing ownership will leave the contract without an owner, thereby disabling any functionality that is only available to the owner."
      },
      "safeTransferFrom(address,address,uint256)": {
        "details": "See {IERC721-safeTransferFrom}."
      },
      "safeTransferFrom(address,address,uint256,bytes)": {
        "details": "See {IERC721-safeTransferFrom}."
      },
      "setApprovalForAll(address,bool)": {
        "details": "See {IERC721-setApprovalForAll}."
      },
      "supportsInterface(bytes4)": {
        "details": "See {IERC165-supportsInterface}."
      },
      "symbol()": {
        "details": "See {IERC721Metadata-symbol}."
      },
      "transferFrom(address,address,uint256)": {
        "details": "See {IERC721-transferFrom}."
      },
      "transferOwnership(address)": {
        "details": "Transfers ownership of the contract to a new account (`newOwner`). Can only be called by the current owner."
      }
    },
    "version": 1
  },
  "userdoc": {
    "kind": "user",
    "methods": {},
    "version": 1
  },
  "storageLayout": {
    "storage": [
      {
        "astId": 317,
        "contract": "contracts/LandSeaSkyNFT.sol:LandSeaSkyNFT",
        "label": "_name",
        "offset": 0,
        "slot": "0",
        "type": "t_string_storage"
      },
      {
        "astId": 319,
        "contract": "contracts/LandSeaSkyNFT.sol:LandSeaSkyNFT",
        "label": "_symbol",
        "offset": 0,
        "slot": "1",
        "type": "t_string_storage"
      },
      {
        "astId": 323,
        "contract": "contracts/LandSeaSkyNFT.sol:LandSeaSkyNFT",
        "label": "_owners",
        "offset": 0,
        "slot": "2",
        "type": "t_mapping(t_uint256,t_address)"
      },
      {
        "astId": 327,
        "contract": "contracts/LandSeaSkyNFT.sol:LandSeaSkyNFT",
        "label": "_balances",
        "offset": 0,
        "slot": "3",
        "type": "t_mapping(t_address,t_uint256)"
      },
      {
        "astId": 331,
        "contract": "contracts/LandSeaSkyNFT.sol:LandSeaSkyNFT",
        "label": "_tokenApprovals",
        "offset": 0,
        "slot": "4",
        "type": "t_mapping(t_uint256,t_address)"
      },
      {
        "astId": 337,
        "contract": "contracts/LandSeaSkyNFT.sol:LandSeaSkyNFT",
        "label": "_operatorApprovals",
        "offset": 0,
        "slot": "5",
        "type": "t_mapping(t_address,t_mapping(t_address,t_bool))"
      },
      {
        "astId": 8,
        "contract": "contracts/LandSeaSkyNFT.sol:LandSeaSkyNFT",
        "label": "_owner",
        "offset": 0,
        "slot": "6",
        "type": "t_address"
      },
      {
        "astId": 3006,
        "contract": "contracts/LandSeaSkyNFT.sol:LandSeaSkyNFT",
        "label": "counter",
        "offset": 0,
        "slot": "7",
        "type": "t_uint256"
      },
      {
        "astId": 3013,
        "contract": "contracts/LandSeaSkyNFT.sol:LandSeaSkyNFT",
        "label": "upgraded",
        "offset": 0,
        "slot": "8",
        "type": "t_mapping(t_uint256,t_bool)"
      },
      {
        "astId": 3026,
        "contract": "contracts/LandSeaSkyNFT.sol:LandSeaSkyNFT",
        "label": "svgRenderer",
        "offset": 0,
        "slot": "9",
        "type": "t_contract(ISVGRenderer)3000"
      }
    ],
    "types": {
      "t_address": {
        "encoding": "inplace",
        "label": "address",
        "numberOfBytes": "20"
      },
      "t_bool": {
        "encoding": "inplace",
        "label": "bool",
        "numberOfBytes": "1"
      },
      "t_contract(ISVGRenderer)3000": {
        "encoding": "inplace",
        "label": "contract ISVGRenderer",
        "numberOfBytes": "20"
      },
      "t_mapping(t_address,t_bool)": {
        "encoding": "mapping",
        "key": "t_address",
        "label": "mapping(address => bool)",
        "numberOfBytes": "32",
        "value": "t_bool"
      },
      "t_mapping(t_address,t_mapping(t_address,t_bool))": {
        "encoding": "mapping",
        "key": "t_address",
        "label": "mapping(address => mapping(address => bool))",
        "numberOfBytes": "32",
        "value": "t_mapping(t_address,t_bool)"
      },
      "t_mapping(t_address,t_uint256)": {
        "encoding": "mapping",
        "key": "t_address",
        "label": "mapping(address => uint256)",
        "numberOfBytes": "32",
        "value": "t_uint256"
      },
      "t_mapping(t_uint256,t_address)": {
        "encoding": "mapping",
        "key": "t_uint256",
        "label": "mapping(uint256 => address)",
        "numberOfBytes": "32",
        "value": "t_address"
      },
      "t_mapping(t_uint256,t_bool)": {
        "encoding": "mapping",
        "key": "t_uint256",
        "label": "mapping(uint256 => bool)",
        "numberOfBytes": "32",
        "value": "t_bool"
      },
      "t_string_storage": {
        "encoding": "bytes",
        "label": "string",
        "numberOfBytes": "32"
      },
      "t_uint256": {
        "encoding": "inplace",
        "label": "uint256",
        "numberOfBytes": "32"
      }
    }
  }
}