{
  "address": "0x93591C82f5998416459e1DF0F7f9b7c27644Fe7c",
  "abi": [
    {
      "inputs": [
        {
          "internalType": "address",
          "name": "_backendMinterAddress",
          "type": "address"
        },
        {
          "internalType": "uint256",
          "name": "_maxSupply",
          "type": "uint256"
        },
        {
          "internalType": "string",
          "name": "_nameString",
          "type": "string"
        },
        {
          "internalType": "string",
          "name": "_symbol",
          "type": "string"
        },
        {
          "internalType": "string",
          "name": "_tokenArtIPFSId",
          "type": "string"
        },
        {
          "internalType": "string",
          "name": "_description",
          "type": "string"
        }
      ],
      "stateMutability": "nonpayable",
      "type": "constructor"
    },
    {
      "inputs": [],
      "name": "AlreadyUpgraded",
      "type": "error"
    },
    {
      "inputs": [
        {
          "internalType": "address",
          "name": "sender",
          "type": "address"
        },
        {
          "internalType": "uint256",
          "name": "tokenId",
          "type": "uint256"
        },
        {
          "internalType": "address",
          "name": "owner",
          "type": "address"
        }
      ],
      "name": "ERC721IncorrectOwner",
      "type": "error"
    },
    {
      "inputs": [
        {
          "internalType": "address",
          "name": "operator",
          "type": "address"
        },
        {
          "internalType": "uint256",
          "name": "tokenId",
          "type": "uint256"
        }
      ],
      "name": "ERC721InsufficientApproval",
      "type": "error"
    },
    {
      "inputs": [
        {
          "internalType": "address",
          "name": "approver",
          "type": "address"
        }
      ],
      "name": "ERC721InvalidApprover",
      "type": "error"
    },
    {
      "inputs": [
        {
          "internalType": "address",
          "name": "operator",
          "type": "address"
        }
      ],
      "name": "ERC721InvalidOperator",
      "type": "error"
    },
    {
      "inputs": [
        {
          "internalType": "address",
          "name": "owner",
          "type": "address"
        }
      ],
      "name": "ERC721InvalidOwner",
      "type": "error"
    },
    {
      "inputs": [
        {
          "internalType": "address",
          "name": "receiver",
          "type": "address"
        }
      ],
      "name": "ERC721InvalidReceiver",
      "type": "error"
    },
    {
      "inputs": [
        {
          "internalType": "address",
          "name": "sender",
          "type": "address"
        }
      ],
      "name": "ERC721InvalidSender",
      "type": "error"
    },
    {
      "inputs": [
        {
          "internalType": "uint256",
          "name": "tokenId",
          "type": "uint256"
        }
      ],
      "name": "ERC721NonexistentToken",
      "type": "error"
    },
    {
      "inputs": [
        {
          "internalType": "uint256",
          "name": "tokenId",
          "type": "uint256"
        }
      ],
      "name": "InvalidTokenId",
      "type": "error"
    },
    {
      "inputs": [],
      "name": "MaxSupplyReached",
      "type": "error"
    },
    {
      "inputs": [],
      "name": "OneMintPerAddress",
      "type": "error"
    },
    {
      "inputs": [
        {
          "internalType": "address",
          "name": "owner",
          "type": "address"
        }
      ],
      "name": "OwnableInvalidOwner",
      "type": "error"
    },
    {
      "inputs": [
        {
          "internalType": "address",
          "name": "account",
          "type": "address"
        }
      ],
      "name": "OwnableUnauthorizedAccount",
      "type": "error"
    },
    {
      "inputs": [],
      "name": "UpgradesClosed",
      "type": "error"
    },
    {
      "anonymous": false,
      "inputs": [
        {
          "indexed": true,
          "internalType": "address",
          "name": "owner",
          "type": "address"
        },
        {
          "indexed": true,
          "internalType": "address",
          "name": "approved",
          "type": "address"
        },
        {
          "indexed": true,
          "internalType": "uint256",
          "name": "tokenId",
          "type": "uint256"
        }
      ],
      "name": "Approval",
      "type": "event"
    },
    {
      "anonymous": false,
      "inputs": [
        {
          "indexed": true,
          "internalType": "address",
          "name": "owner",
          "type": "address"
        },
        {
          "indexed": true,
          "internalType": "address",
          "name": "operator",
          "type": "address"
        },
        {
          "indexed": false,
          "internalType": "bool",
          "name": "approved",
          "type": "bool"
        }
      ],
      "name": "ApprovalForAll",
      "type": "event"
    },
    {
      "anonymous": false,
      "inputs": [
        {
          "indexed": true,
          "internalType": "address",
          "name": "previousOwner",
          "type": "address"
        },
        {
          "indexed": true,
          "internalType": "address",
          "name": "newOwner",
          "type": "address"
        }
      ],
      "name": "OwnershipTransferred",
      "type": "event"
    },
    {
      "anonymous": false,
      "inputs": [
        {
          "indexed": true,
          "internalType": "address",
          "name": "from",
          "type": "address"
        },
        {
          "indexed": true,
          "internalType": "address",
          "name": "to",
          "type": "address"
        },
        {
          "indexed": true,
          "internalType": "uint256",
          "name": "tokenId",
          "type": "uint256"
        }
      ],
      "name": "Transfer",
      "type": "event"
    },
    {
      "inputs": [
        {
          "internalType": "address",
          "name": "to",
          "type": "address"
        },
        {
          "internalType": "uint256",
          "name": "tokenId",
          "type": "uint256"
        }
      ],
      "name": "approve",
      "outputs": [],
      "stateMutability": "nonpayable",
      "type": "function"
    },
    {
      "inputs": [
        {
          "internalType": "address",
          "name": "owner",
          "type": "address"
        }
      ],
      "name": "balanceOf",
      "outputs": [
        {
          "internalType": "uint256",
          "name": "",
          "type": "uint256"
        }
      ],
      "stateMutability": "view",
      "type": "function"
    },
    {
      "inputs": [],
      "name": "counter",
      "outputs": [
        {
          "internalType": "uint256",
          "name": "",
          "type": "uint256"
        }
      ],
      "stateMutability": "view",
      "type": "function"
    },
    {
      "inputs": [],
      "name": "description",
      "outputs": [
        {
          "internalType": "string",
          "name": "",
          "type": "string"
        }
      ],
      "stateMutability": "view",
      "type": "function"
    },
    {
      "inputs": [
        {
          "internalType": "uint256",
          "name": "tokenId",
          "type": "uint256"
        }
      ],
      "name": "getApproved",
      "outputs": [
        {
          "internalType": "address",
          "name": "",
          "type": "address"
        }
      ],
      "stateMutability": "view",
      "type": "function"
    },
    {
      "inputs": [
        {
          "internalType": "address",
          "name": "owner",
          "type": "address"
        },
        {
          "internalType": "address",
          "name": "operator",
          "type": "address"
        }
      ],
      "name": "isApprovedForAll",
      "outputs": [
        {
          "internalType": "bool",
          "name": "",
          "type": "bool"
        }
      ],
      "stateMutability": "view",
      "type": "function"
    },
    {
      "inputs": [],
      "name": "maxSupply",
      "outputs": [
        {
          "internalType": "uint256",
          "name": "",
          "type": "uint256"
        }
      ],
      "stateMutability": "view",
      "type": "function"
    },
    {
      "inputs": [
        {
          "internalType": "address",
          "name": "_recipient",
          "type": "address"
        }
      ],
      "name": "mintFor",
      "outputs": [],
      "stateMutability": "nonpayable",
      "type": "function"
    },
    {
      "inputs": [
        {
          "internalType": "address",
          "name": "",
          "type": "address"
        }
      ],
      "name": "minted",
      "outputs": [
        {
          "internalType": "bool",
          "name": "",
          "type": "bool"
        }
      ],
      "stateMutability": "view",
      "type": "function"
    },
    {
      "inputs": [],
      "name": "name",
      "outputs": [
        {
          "internalType": "string",
          "name": "",
          "type": "string"
        }
      ],
      "stateMutability": "view",
      "type": "function"
    },
    {
      "inputs": [],
      "name": "nameString",
      "outputs": [
        {
          "internalType": "string",
          "name": "",
          "type": "string"
        }
      ],
      "stateMutability": "view",
      "type": "function"
    },
    {
      "inputs": [],
      "name": "owner",
      "outputs": [
        {
          "internalType": "address",
          "name": "",
          "type": "address"
        }
      ],
      "stateMutability": "view",
      "type": "function"
    },
    {
      "inputs": [
        {
          "internalType": "uint256",
          "name": "tokenId",
          "type": "uint256"
        }
      ],
      "name": "ownerOf",
      "outputs": [
        {
          "internalType": "address",
          "name": "",
          "type": "address"
        }
      ],
      "stateMutability": "view",
      "type": "function"
    },
    {
      "inputs": [],
      "name": "renounceOwnership",
      "outputs": [],
      "stateMutability": "nonpayable",
      "type": "function"
    },
    {
      "inputs": [
        {
          "internalType": "address",
          "name": "from",
          "type": "address"
        },
        {
          "internalType": "address",
          "name": "to",
          "type": "address"
        },
        {
          "internalType": "uint256",
          "name": "tokenId",
          "type": "uint256"
        }
      ],
      "name": "safeTransferFrom",
      "outputs": [],
      "stateMutability": "nonpayable",
      "type": "function"
    },
    {
      "inputs": [
        {
          "internalType": "address",
          "name": "from",
          "type": "address"
        },
        {
          "internalType": "address",
          "name": "to",
          "type": "address"
        },
        {
          "internalType": "uint256",
          "name": "tokenId",
          "type": "uint256"
        },
        {
          "internalType": "bytes",
          "name": "data",
          "type": "bytes"
        }
      ],
      "name": "safeTransferFrom",
      "outputs": [],
      "stateMutability": "nonpayable",
      "type": "function"
    },
    {
      "inputs": [
        {
          "internalType": "address",
          "name": "operator",
          "type": "address"
        },
        {
          "internalType": "bool",
          "name": "approved",
          "type": "bool"
        }
      ],
      "name": "setApprovalForAll",
      "outputs": [],
      "stateMutability": "nonpayable",
      "type": "function"
    },
    {
      "inputs": [
        {
          "internalType": "bytes4",
          "name": "interfaceId",
          "type": "bytes4"
        }
      ],
      "name": "supportsInterface",
      "outputs": [
        {
          "internalType": "bool",
          "name": "",
          "type": "bool"
        }
      ],
      "stateMutability": "view",
      "type": "function"
    },
    {
      "inputs": [],
      "name": "symbol",
      "outputs": [
        {
          "internalType": "string",
          "name": "",
          "type": "string"
        }
      ],
      "stateMutability": "view",
      "type": "function"
    },
    {
      "inputs": [],
      "name": "tokenArtIPFSId",
      "outputs": [
        {
          "internalType": "string",
          "name": "",
          "type": "string"
        }
      ],
      "stateMutability": "view",
      "type": "function"
    },
    {
      "inputs": [
        {
          "internalType": "uint256",
          "name": "_tokenId",
          "type": "uint256"
        }
      ],
      "name": "tokenURI",
      "outputs": [
        {
          "internalType": "string",
          "name": "",
          "type": "string"
        }
      ],
      "stateMutability": "view",
      "type": "function"
    },
    {
      "inputs": [
        {
          "internalType": "address",
          "name": "from",
          "type": "address"
        },
        {
          "internalType": "address",
          "name": "to",
          "type": "address"
        },
        {
          "internalType": "uint256",
          "name": "tokenId",
          "type": "uint256"
        }
      ],
      "name": "transferFrom",
      "outputs": [],
      "stateMutability": "nonpayable",
      "type": "function"
    },
    {
      "inputs": [
        {
          "internalType": "address",
          "name": "newOwner",
          "type": "address"
        }
      ],
      "name": "transferOwnership",
      "outputs": [],
      "stateMutability": "nonpayable",
      "type": "function"
    }
  ],
  "transactionHash": "0xdc09deda19bc9f75b7ab2abf0f62dbced1e5c586d516bc4eec4846b213ad8d8c",
  "args": [
    "0x83957ef9df51257bD59743FcBde02f2752d6498D",
    3333,
    "Test Token, Please Ignore",
    "TST",
    "QmNSoY62TSvLQ8hp8s1U5ShUZpeiPRrv4huMXWnCh3Euee",
    "This is only a test!"
  ],
  "numDeployments": 1,
  "solcInputHash": "674a62078e2b7475409b2d3f854ec512",
  "bytecode": "0x60806040523480156200001157600080fd5b5060405162001a7b38038062001a7b833981016040819052620000349162000204565b858484600062000045838262000368565b50600162000054828262000368565b5050506001600160a01b0381166200008657604051631e4fbdf760e01b81526000600482015260240160405180910390fd5b6200009181620000d0565b5060088590556009620000a5858262000368565b50600a620000b4828262000368565b50600b620000c3838262000368565b5050505050505062000434565b600680546001600160a01b038381166001600160a01b0319831681179093556040519116919082907f8be0079c531659141344cd1fd0a4f28419497f9722a3daafe3b4186f6b6457e090600090a35050565b80516001600160a01b03811681146200013a57600080fd5b919050565b634e487b7160e01b600052604160045260246000fd5b600082601f8301126200016757600080fd5b81516001600160401b03808211156200018457620001846200013f565b604051601f8301601f19908116603f01168101908282118183101715620001af57620001af6200013f565b81604052838152602092508683858801011115620001cc57600080fd5b600091505b83821015620001f05785820183015181830184015290820190620001d1565b600093810190920192909252949350505050565b60008060008060008060c087890312156200021e57600080fd5b620002298762000122565b6020880151604089015191975095506001600160401b03808211156200024e57600080fd5b6200025c8a838b0162000155565b955060608901519150808211156200027357600080fd5b620002818a838b0162000155565b945060808901519150808211156200029857600080fd5b620002a68a838b0162000155565b935060a0890151915080821115620002bd57600080fd5b50620002cc89828a0162000155565b9150509295509295509295565b600181811c90821680620002ee57607f821691505b6020821081036200030f57634e487b7160e01b600052602260045260246000fd5b50919050565b601f8211156200036357600081815260208120601f850160051c810160208610156200033e5750805b601f850160051c820191505b818110156200035f578281556001016200034a565b5050505b505050565b81516001600160401b038111156200038457620003846200013f565b6200039c81620003958454620002d9565b8462000315565b602080601f831160018114620003d45760008415620003bb5750858301515b600019600386901b1c1916600185901b1785556200035f565b600085815260208120601f198616915b828110156200040557888601518255948401946001909101908401620003e4565b5085821015620004245787850151600019600388901b60f8161c191681555b5050505050600190811b01905550565b61163780620004446000396000f3fe608060405234801561001057600080fd5b506004361061014d5760003560e01c806371e578dc116100c3578063a22cb4651161007c578063a22cb465146102a1578063b88d4fde146102b4578063c87b56dd146102c7578063d5abeb01146102da578063e985e9c5146102e3578063f2fde38b146102f657600080fd5b806371e578dc1461025d5780637284e41614610270578063840efffc1461027857806385d9aebd146102805780638da5cb5b1461028857806395d89b411461029957600080fd5b806323b872dd1161011557806323b872dd146101f257806342842e0e1461020557806361bc221a146102185780636352211e1461022f57806370a0823114610242578063715018a61461025557600080fd5b806301ffc9a71461015257806306fdde031461017a578063081812fc1461018f578063095ea7b3146101ba5780631e7269c5146101cf575b600080fd5b6101656101603660046110ae565b610309565b60405190151581526020015b60405180910390f35b61018261035b565b6040516101719190611122565b6101a261019d366004611135565b6103ed565b6040516001600160a01b039091168152602001610171565b6101cd6101c836600461116a565b610416565b005b6101656101dd366004611194565b600c6020526000908152604090205460ff1681565b6101cd6102003660046111af565b610425565b6101cd6102133660046111af565b6104b5565b61022160075481565b604051908152602001610171565b6101a261023d366004611135565b6104d5565b610221610250366004611194565b6104e0565b6101cd610528565b6101cd61026b366004611194565b61053c565b6101826105e7565b610182610675565b610182610682565b6006546001600160a01b03166101a2565b61018261068f565b6101cd6102af3660046111eb565b61069e565b6101cd6102c236600461123d565b6106a9565b6101826102d5366004611135565b6106c0565b61022160085481565b6101656102f1366004611319565b610785565b6101cd610304366004611194565b6107b3565b60006001600160e01b031982166380ac58cd60e01b148061033a57506001600160e01b03198216635b5e139f60e01b145b8061035557506301ffc9a760e01b6001600160e01b03198316145b92915050565b60606000805461036a9061134c565b80601f01602080910402602001604051908101604052809291908181526020018280546103969061134c565b80156103e35780601f106103b8576101008083540402835291602001916103e3565b820191906000526020600020905b8154815290600101906020018083116103c657829003601f168201915b5050505050905090565b60006103f8826107ee565b506000828152600460205260409020546001600160a01b0316610355565b610421828233610827565b5050565b6001600160a01b03821661045457604051633250574960e11b8152600060048201526024015b60405180910390fd5b6000610461838333610834565b9050836001600160a01b0316816001600160a01b0316146104af576040516364283d7b60e01b81526001600160a01b038086166004830152602482018490528216604482015260640161044b565b50505050565b6104d0838383604051806020016040528060008152506106a9565b505050565b6000610355826107ee565b60006001600160a01b03821661050c576040516322718ad960e21b81526000600482015260240161044b565b506001600160a01b031660009081526003602052604090205490565b61053061092d565b61053a600061095a565b565b61054461092d565b600854600754106105685760405163d05cb60960e01b815260040160405180910390fd5b6001600160a01b0381166000908152600c602052604090205460ff16156105a2576040516317b5615760e01b815260040160405180910390fd5b6001600160a01b0381166000908152600c60205260408120805460ff1916600117905560078054916105d38361139c565b91905055506105e4816007546109ac565b50565b600a80546105f49061134c565b80601f01602080910402602001604051908101604052809291908181526020018280546106209061134c565b801561066d5780601f106106425761010080835404028352916020019161066d565b820191906000526020600020905b81548152906001019060200180831161065057829003601f168201915b505050505081565b600980546105f49061134c565b600b80546105f49061134c565b60606001805461036a9061134c565b6104213383836109c6565b6106b4848484610425565b6104af84848484610a65565b60606007548211156106e85760405163ed15e6cf60e01b81526004810183905260240161044b565b600061072060096106f885610b8e565b600b60405160200161070c93929190611452565b604051602081830303815290604052610c21565b905061075c60408051808201909152601d81527f646174613a6170706c69636174696f6e2f6a736f6e3b6261736536342c000000602082015290565b8160405160200161076e9291906114ec565b604051602081830303815290604052915050919050565b6001600160a01b03918216600090815260056020908152604080832093909416825291909152205460ff1690565b6107bb61092d565b6001600160a01b0381166107e557604051631e4fbdf760e01b81526000600482015260240161044b565b6105e48161095a565b6000818152600260205260408120546001600160a01b03168061035557604051637e27328960e01b81526004810184905260240161044b565b6104d08383836001610d74565b6000828152600260205260408120546001600160a01b039081169083161561086157610861818486610e7a565b6001600160a01b0381161561089f5761087e600085600080610d74565b6001600160a01b038116600090815260036020526040902080546000190190555b6001600160a01b038516156108ce576001600160a01b0385166000908152600360205260409020805460010190555b60008481526002602052604080822080546001600160a01b0319166001600160a01b0389811691821790925591518793918516917fddf252ad1be2c89b69c2b068fc378daa952ba7f163c4a11628f55a4df523b3ef91a4949350505050565b6006546001600160a01b0316331461053a5760405163118cdaa760e01b815233600482015260240161044b565b600680546001600160a01b038381166001600160a01b0319831681179093556040519116919082907f8be0079c531659141344cd1fd0a4f28419497f9722a3daafe3b4186f6b6457e090600090a35050565b610421828260405180602001604052806000815250610ede565b6001600160a01b0382166109f857604051630b61174360e31b81526001600160a01b038316600482015260240161044b565b6001600160a01b03838116600081815260056020908152604080832094871680845294825291829020805460ff191686151590811790915591519182527f17307eab39ab6107e8899845ad3d59bd9653f200f220920489ca2b5937696c31910160405180910390a3505050565b6001600160a01b0383163b156104af57604051630a85bd0160e11b81526001600160a01b0384169063150b7a0290610aa790339088908790879060040161151b565b6020604051808303816000875af1925050508015610ae2575060408051601f3d908101601f19168201909252610adf91810190611558565b60015b610b4b573d808015610b10576040519150601f19603f3d011682016040523d82523d6000602084013e610b15565b606091505b508051600003610b4357604051633250574960e11b81526001600160a01b038516600482015260240161044b565b805181602001fd5b6001600160e01b03198116630a85bd0160e11b14610b8757604051633250574960e11b81526001600160a01b038516600482015260240161044b565b5050505050565b60606000610b9b83610ef5565b600101905060008167ffffffffffffffff811115610bbb57610bbb611227565b6040519080825280601f01601f191660200182016040528015610be5576020820181803683370190505b5090508181016020015b600019016f181899199a1a9b1b9c1cb0b131b232b360811b600a86061a8153600a8504945084610bef57509392505050565b60608151600003610c4057505060408051602081019091526000815290565b60006040518060600160405280604081526020016115c26040913990506000600384516002610c6f9190611575565b610c799190611588565b610c849060046115aa565b67ffffffffffffffff811115610c9c57610c9c611227565b6040519080825280601f01601f191660200182016040528015610cc6576020820181803683370190505b509050600182016020820185865187015b80821015610d32576003820191508151603f8160121c168501518453600184019350603f81600c1c168501518453600184019350603f8160061c168501518453600184019350603f8116850151845350600183019250610cd7565b5050600386510660018114610d4e5760028114610d6157610d69565b603d6001830353603d6002830353610d69565b603d60018303535b509195945050505050565b8080610d8857506001600160a01b03821615155b15610e4a576000610d98846107ee565b90506001600160a01b03831615801590610dc45750826001600160a01b0316816001600160a01b031614155b8015610dd75750610dd58184610785565b155b15610e005760405163a9fbf51f60e01b81526001600160a01b038416600482015260240161044b565b8115610e485783856001600160a01b0316826001600160a01b03167f8c5be1e5ebec7d5bd14f71427d1e84f3dd0314c0f7b2291e5b200ac8c7c3b92560405160405180910390a45b505b5050600090815260046020526040902080546001600160a01b0319166001600160a01b0392909216919091179055565b610e85838383610fcd565b6104d0576001600160a01b038316610eb357604051637e27328960e01b81526004810182905260240161044b565b60405163177e802f60e01b81526001600160a01b03831660048201526024810182905260440161044b565b610ee88383611033565b6104d06000848484610a65565b60008072184f03e93ff9f4daa797ed6e38ed64bf6a1f0160401b8310610f345772184f03e93ff9f4daa797ed6e38ed64bf6a1f0160401b830492506040015b6d04ee2d6d415b85acef81000000008310610f60576d04ee2d6d415b85acef8100000000830492506020015b662386f26fc100008310610f7e57662386f26fc10000830492506010015b6305f5e1008310610f96576305f5e100830492506008015b6127108310610faa57612710830492506004015b60648310610fbc576064830492506002015b600a83106103555760010192915050565b60006001600160a01b0383161580159061102b5750826001600160a01b0316846001600160a01b0316148061100757506110078484610785565b8061102b57506000828152600460205260409020546001600160a01b038481169116145b949350505050565b6001600160a01b03821661105d57604051633250574960e11b81526000600482015260240161044b565b600061106b83836000610834565b90506001600160a01b038116156104d0576040516339e3563760e11b81526000600482015260240161044b565b6001600160e01b0319811681146105e457600080fd5b6000602082840312156110c057600080fd5b81356110cb81611098565b9392505050565b60005b838110156110ed5781810151838201526020016110d5565b50506000910152565b6000815180845261110e8160208601602086016110d2565b601f01601f19169290920160200192915050565b6020815260006110cb60208301846110f6565b60006020828403121561114757600080fd5b5035919050565b80356001600160a01b038116811461116557600080fd5b919050565b6000806040838503121561117d57600080fd5b6111868361114e565b946020939093013593505050565b6000602082840312156111a657600080fd5b6110cb8261114e565b6000806000606084860312156111c457600080fd5b6111cd8461114e565b92506111db6020850161114e565b9150604084013590509250925092565b600080604083850312156111fe57600080fd5b6112078361114e565b91506020830135801515811461121c57600080fd5b809150509250929050565b634e487b7160e01b600052604160045260246000fd5b6000806000806080858703121561125357600080fd5b61125c8561114e565b935061126a6020860161114e565b925060408501359150606085013567ffffffffffffffff8082111561128e57600080fd5b818701915087601f8301126112a257600080fd5b8135818111156112b4576112b4611227565b604051601f8201601f19908116603f011681019083821181831017156112dc576112dc611227565b816040528281528a60208487010111156112f557600080fd5b82602086016020830137600060208483010152809550505050505092959194509250565b6000806040838503121561132c57600080fd5b6113358361114e565b91506113436020840161114e565b90509250929050565b600181811c9082168061136057607f821691505b60208210810361138057634e487b7160e01b600052602260045260246000fd5b50919050565b634e487b7160e01b600052601160045260246000fd5b6000600182016113ae576113ae611386565b5060010190565b8054600090600181811c90808316806113cf57607f831692505b602080841082036113f057634e487b7160e01b600052602260045260246000fd5b818015611404576001811461141957611446565b60ff1986168952841515850289019650611446565b60008881526020902060005b8681101561143e5781548b820152908501908301611425565b505084890196505b50505050505092915050565b693d913730b6b2911d101160b11b81526000611471600a8301866113b5565b6401110119d160dd1b8152845161148f8160058401602089016110d2565b7f222c20226465736372697074696f6e223a2022222c2022696d616765223a20226005929091019182015266697066733a2f2f60c81b60258201526114d7602c8201856113b5565b61227d60f01b81526002019695505050505050565b600083516114fe8184602088016110d2565b8351908301906115128183602088016110d2565b01949350505050565b6001600160a01b038581168252841660208201526040810183905260806060820181905260009061154e908301846110f6565b9695505050505050565b60006020828403121561156a57600080fd5b81516110cb81611098565b8082018082111561035557610355611386565b6000826115a557634e487b7160e01b600052601260045260246000fd5b500490565b80820281158282048414176103555761035561138656fe4142434445464748494a4b4c4d4e4f505152535455565758595a6162636465666768696a6b6c6d6e6f707172737475767778797a303132333435363738392b2fa2646970667358221220d22cd9a53c6510ce63d963d277e3fa8eedbeb938f04a950352cb4f835993e64f64736f6c63430008140033",
  "devdoc": {
    "errors": {
      "ERC721IncorrectOwner(address,uint256,address)": [
        {
          "details": "Indicates an error related to the ownership over a particular token. Used in transfers.",
          "params": {
            "owner": "Address of the current owner of a token.",
            "sender": "Address whose tokens are being transferred.",
            "tokenId": "Identifier number of a token."
          }
        }
      ],
      "ERC721InsufficientApproval(address,uint256)": [
        {
          "details": "Indicates a failure with the `operator`s approval. Used in transfers.",
          "params": {
            "operator": "Address that may be allowed to operate on tokens without being their owner.",
            "tokenId": "Identifier number of a token."
          }
        }
      ],
      "ERC721InvalidApprover(address)": [
        {
          "details": "Indicates a failure with the `approver` of a token to be approved. Used in approvals.",
          "params": {
            "approver": "Address initiating an approval operation."
          }
        }
      ],
      "ERC721InvalidOperator(address)": [
        {
          "details": "Indicates a failure with the `operator` to be approved. Used in approvals.",
          "params": {
            "operator": "Address that may be allowed to operate on tokens without being their owner."
          }
        }
      ],
      "ERC721InvalidOwner(address)": [
        {
          "details": "Indicates that an address can't be an owner. For example, `address(0)` is a forbidden owner in EIP-20. Used in balance queries.",
          "params": {
            "owner": "Address of the current owner of a token."
          }
        }
      ],
      "ERC721InvalidReceiver(address)": [
        {
          "details": "Indicates a failure with the token `receiver`. Used in transfers.",
          "params": {
            "receiver": "Address to which tokens are being transferred."
          }
        }
      ],
      "ERC721InvalidSender(address)": [
        {
          "details": "Indicates a failure with the token `sender`. Used in transfers.",
          "params": {
            "sender": "Address whose tokens are being transferred."
          }
        }
      ],
      "ERC721NonexistentToken(uint256)": [
        {
          "details": "Indicates a `tokenId` whose `owner` is the zero address.",
          "params": {
            "tokenId": "Identifier number of a token."
          }
        }
      ],
      "OwnableInvalidOwner(address)": [
        {
          "details": "The owner is not a valid owner account. (eg. `address(0)`)"
        }
      ],
      "OwnableUnauthorizedAccount(address)": [
        {
          "details": "The caller account is not authorized to perform an operation."
        }
      ]
    },
    "events": {
      "Approval(address,address,uint256)": {
        "details": "Emitted when `owner` enables `approved` to manage the `tokenId` token."
      },
      "ApprovalForAll(address,address,bool)": {
        "details": "Emitted when `owner` enables or disables (`approved`) `operator` to manage all of its assets."
      },
      "Transfer(address,address,uint256)": {
        "details": "Emitted when `tokenId` token is transferred from `from` to `to`."
      }
    },
    "kind": "dev",
    "methods": {
      "approve(address,uint256)": {
        "details": "See {IERC721-approve}."
      },
      "balanceOf(address)": {
        "details": "See {IERC721-balanceOf}."
      },
      "getApproved(uint256)": {
        "details": "See {IERC721-getApproved}."
      },
      "isApprovedForAll(address,address)": {
        "details": "See {IERC721-isApprovedForAll}."
      },
      "name()": {
        "details": "See {IERC721Metadata-name}."
      },
      "owner()": {
        "details": "Returns the address of the current owner."
      },
      "ownerOf(uint256)": {
        "details": "See {IERC721-ownerOf}."
      },
      "renounceOwnership()": {
        "details": "Leaves the contract without owner. It will not be possible to call `onlyOwner` functions. Can only be called by the current owner. NOTE: Renouncing ownership will leave the contract without an owner, thereby disabling any functionality that is only available to the owner."
      },
      "safeTransferFrom(address,address,uint256)": {
        "details": "See {IERC721-safeTransferFrom}."
      },
      "safeTransferFrom(address,address,uint256,bytes)": {
        "details": "See {IERC721-safeTransferFrom}."
      },
      "setApprovalForAll(address,bool)": {
        "details": "See {IERC721-setApprovalForAll}."
      },
      "supportsInterface(bytes4)": {
        "details": "See {IERC165-supportsInterface}."
      },
      "symbol()": {
        "details": "See {IERC721Metadata-symbol}."
      },
      "transferFrom(address,address,uint256)": {
        "details": "See {IERC721-transferFrom}."
      },
      "transferOwnership(address)": {
        "details": "Transfers ownership of the contract to a new account (`newOwner`). Can only be called by the current owner."
      }
    },
    "version": 1
  },
  "userdoc": {
    "kind": "user",
    "methods": {},
    "version": 1
  },
  "storageLayout": {
    "storage": [
      {
        "astId": 317,
        "contract": "contracts/LimitedAirdropMinter.sol:LimitedAirdropMinter",
        "label": "_name",
        "offset": 0,
        "slot": "0",
        "type": "t_string_storage"
      },
      {
        "astId": 319,
        "contract": "contracts/LimitedAirdropMinter.sol:LimitedAirdropMinter",
        "label": "_symbol",
        "offset": 0,
        "slot": "1",
        "type": "t_string_storage"
      },
      {
        "astId": 323,
        "contract": "contracts/LimitedAirdropMinter.sol:LimitedAirdropMinter",
        "label": "_owners",
        "offset": 0,
        "slot": "2",
        "type": "t_mapping(t_uint256,t_address)"
      },
      {
        "astId": 327,
        "contract": "contracts/LimitedAirdropMinter.sol:LimitedAirdropMinter",
        "label": "_balances",
        "offset": 0,
        "slot": "3",
        "type": "t_mapping(t_address,t_uint256)"
      },
      {
        "astId": 331,
        "contract": "contracts/LimitedAirdropMinter.sol:LimitedAirdropMinter",
        "label": "_tokenApprovals",
        "offset": 0,
        "slot": "4",
        "type": "t_mapping(t_uint256,t_address)"
      },
      {
        "astId": 337,
        "contract": "contracts/LimitedAirdropMinter.sol:LimitedAirdropMinter",
        "label": "_operatorApprovals",
        "offset": 0,
        "slot": "5",
        "type": "t_mapping(t_address,t_mapping(t_address,t_bool))"
      },
      {
        "astId": 8,
        "contract": "contracts/LimitedAirdropMinter.sol:LimitedAirdropMinter",
        "label": "_owner",
        "offset": 0,
        "slot": "6",
        "type": "t_address"
      },
      {
        "astId": 3205,
        "contract": "contracts/LimitedAirdropMinter.sol:LimitedAirdropMinter",
        "label": "counter",
        "offset": 0,
        "slot": "7",
        "type": "t_uint256"
      },
      {
        "astId": 3207,
        "contract": "contracts/LimitedAirdropMinter.sol:LimitedAirdropMinter",
        "label": "maxSupply",
        "offset": 0,
        "slot": "8",
        "type": "t_uint256"
      },
      {
        "astId": 3209,
        "contract": "contracts/LimitedAirdropMinter.sol:LimitedAirdropMinter",
        "label": "nameString",
        "offset": 0,
        "slot": "9",
        "type": "t_string_storage"
      },
      {
        "astId": 3211,
        "contract": "contracts/LimitedAirdropMinter.sol:LimitedAirdropMinter",
        "label": "description",
        "offset": 0,
        "slot": "10",
        "type": "t_string_storage"
      },
      {
        "astId": 3213,
        "contract": "contracts/LimitedAirdropMinter.sol:LimitedAirdropMinter",
        "label": "tokenArtIPFSId",
        "offset": 0,
        "slot": "11",
        "type": "t_string_storage"
      },
      {
        "astId": 3217,
        "contract": "contracts/LimitedAirdropMinter.sol:LimitedAirdropMinter",
        "label": "minted",
        "offset": 0,
        "slot": "12",
        "type": "t_mapping(t_address,t_bool)"
      }
    ],
    "types": {
      "t_address": {
        "encoding": "inplace",
        "label": "address",
        "numberOfBytes": "20"
      },
      "t_bool": {
        "encoding": "inplace",
        "label": "bool",
        "numberOfBytes": "1"
      },
      "t_mapping(t_address,t_bool)": {
        "encoding": "mapping",
        "key": "t_address",
        "label": "mapping(address => bool)",
        "numberOfBytes": "32",
        "value": "t_bool"
      },
      "t_mapping(t_address,t_mapping(t_address,t_bool))": {
        "encoding": "mapping",
        "key": "t_address",
        "label": "mapping(address => mapping(address => bool))",
        "numberOfBytes": "32",
        "value": "t_mapping(t_address,t_bool)"
      },
      "t_mapping(t_address,t_uint256)": {
        "encoding": "mapping",
        "key": "t_address",
        "label": "mapping(address => uint256)",
        "numberOfBytes": "32",
        "value": "t_uint256"
      },
      "t_mapping(t_uint256,t_address)": {
        "encoding": "mapping",
        "key": "t_uint256",
        "label": "mapping(uint256 => address)",
        "numberOfBytes": "32",
        "value": "t_address"
      },
      "t_string_storage": {
        "encoding": "bytes",
        "label": "string",
        "numberOfBytes": "32"
      },
      "t_uint256": {
        "encoding": "inplace",
        "label": "uint256",
        "numberOfBytes": "32"
      }
    }
  }
}