{
  "address": "0xb2c4A3BE5e5d3eBAF54f8D3C9130D5000e38aA71",
  "abi": [
    {
      "inputs": [
        {
          "internalType": "uint256",
          "name": "_tokenId",
          "type": "uint256"
        }
      ],
      "name": "render",
      "outputs": [
        {
          "internalType": "string",
          "name": "",
          "type": "string"
        }
      ],
      "stateMutability": "pure",
      "type": "function"
    }
  ],
  "transactionHash": "0xc1b6c8751a8753e1d077317a624c79f6f27a0cde0322a76d3d4d638d9792dd0b",
  "args": [],
  "numDeployments": 1,
  "solcInputHash": "3c1ac1253e82eb65cb563e1effcd5f60",
  "bytecode": "0x608060405234801561001057600080fd5b5061077a806100206000396000f3fe608060405234801561001057600080fd5b506004361061002b5760003560e01c8063c321118c14610030575b600080fd5b61004361003e3660046103bc565b610059565b60405161005091906103f9565b60405180910390f35b606060405180610140016040528061011c81526020016105d561011c91396100a460026040518060400160405280600781526020016608d8ccce4c588d60ca1b81525085600161016f565b6100d160186040518060400160405280600781526020016611b1b29cb31cb160c91b81525086600261016f565b6100fe603a604051806040016040528060078152602001662364666430363160c81b81525087600361016f565b61012b6050604051806040016040528060078152602001662365336639663760c81b81525088600461016f565b6040518060800160405280605481526020016106f1605491396040516020016101599695949392919061042c565b6040516020818303038152906040529050919050565b606061017c8584846101a7565b8460405160200161018e9291906104ab565b6040516020818303038152906040529050949350505050565b6040805160208082018690528183018590526060808301859052835180840382018152608090930190935281519101208060006101e560148361051f565b905060006101f38289610541565b9050600a81106102305761020681610250565b6040516020016102169190610562565b604051602081830303815290604052945050505050610249565b61023981610250565b604051602001610216919061058b565b9392505050565b6060600061025d836102e3565b600101905060008167ffffffffffffffff81111561027d5761027d6105be565b6040519080825280601f01601f1916602001820160405280156102a7576020820181803683370190505b5090508181016020015b600019016f181899199a1a9b1b9c1cb0b131b232b360811b600a86061a8153600a85049450846102b157509392505050565b60008072184f03e93ff9f4daa797ed6e38ed64bf6a1f0160401b83106103225772184f03e93ff9f4daa797ed6e38ed64bf6a1f0160401b830492506040015b6d04ee2d6d415b85acef8100000000831061034e576d04ee2d6d415b85acef8100000000830492506020015b662386f26fc10000831061036c57662386f26fc10000830492506010015b6305f5e1008310610384576305f5e100830492506008015b612710831061039857612710830492506004015b606483106103aa576064830492506002015b600a83106103b6576001015b92915050565b6000602082840312156103ce57600080fd5b5035919050565b60005b838110156103f05781810151838201526020016103d8565b50506000910152565b60208152600082518060208401526104188160408501602087016103d5565b601f01601f19169190910160400192915050565b60008751602061043f8285838d016103d5565b8851918401916104528184848d016103d5565b88519201916104648184848c016103d5565b87519201916104768184848b016103d5565b86519201916104888184848a016103d5565b855192019161049a81848489016103d5565b919091019998505050505050505050565b6d1e39ba37b81037b33339b2ba1e9160911b815282516000906104d581600e8501602088016103d5565b6d111039ba37b816b1b7b637b91e9160911b600e91840191820152835161050381601c8401602088016103d5565b6211179f60e91b601c9290910191820152601f01949350505050565b60008261053c57634e487b7160e01b600052601260045260246000fd5b500690565b808201808211156103b657634e487b7160e01b600052601160045260246000fd5b601760f91b81526000825161057e8160018501602087016103d5565b9190910160010192915050565b601760f91b8152600360fc1b6001820152600082516105b18160028501602087016103d5565b9190910160020192915050565b634e487b7160e01b600052604160045260246000fdfe3c67207472616e73666f726d3d227472616e736c61746528302c3029223e203c646566733e203c7374796c653e2e636c732d736b792d317b66696c6c3a2075726c28236c696e6561722d6772616469656e742d736b79293b207374726f6b652d77696474683a203070783b7d3c2f7374796c653e203c6c696e6561724772616469656e742069643d226c696e6561722d6772616469656e742d736b79222078313d223531312e3736222079313d2231302e3139222078323d223531322e3234222079323d223836352e393922206772616469656e745472616e73666f726d3d227472616e736c6174652836332e383929207363616c65282e38382922206772616469656e74556e6974733d227573657253706163654f6e557365223e3c2f6c696e6561724772616469656e743e203c2f646566733e203c7061746820636c6173733d22636c732d736b792d312220643d224d313032342c30763736382e394830563068313032345a222f3e203c2f673ea2646970667358221220868ecdd706a4c737461ab3a2776f9c740a649354dfe9cfff37313f04535dcc0064736f6c63430008140033",
  "devdoc": {
    "kind": "dev",
    "methods": {},
    "version": 1
  },
  "userdoc": {
    "kind": "user",
    "methods": {},
    "version": 1
  },
  "storageLayout": {
    "storage": [],
    "types": null
  }
}