{
  "address": "0x05BAE6D65Cc271cF8391336d636f5012D8E12f28",
  "abi": [
    {
      "inputs": [],
      "name": "render",
      "outputs": [
        {
          "internalType": "string",
          "name": "",
          "type": "string"
        }
      ],
      "stateMutability": "pure",
      "type": "function"
    }
  ],
  "transactionHash": "0xd14761ae4c901e6d0015f041dfd5d15d672464c8033e407acc07c2d45931e867",
  "args": [],
  "numDeployments": 1,
  "solcInputHash": "3c1ac1253e82eb65cb563e1effcd5f60",
  "bytecode": "0x608060405234801561001057600080fd5b506121ac806100206000396000f3fe608060405234801561001057600080fd5b506004361061002b5760003560e01c8063d607497a14610030575b600080fd5b61003861004e565b6040516100459190610071565b60405180910390f35b6060604051806120e001604052806120b781526020016100c06120b79139905090565b600060208083528351808285015260005b8181101561009e57858101830151858201604001528201610082565b506000604082860101526040601f19601f830116850101925050509291505056fe3c67207472616e73666f726d3d227472616e736c617465283735302c31303029223e203c646566733e203c7374796c653e2e636c732d73756e332d317b66696c6c3a2075726c28236c696e6561722d6772616469656e742d73756e33293b7d2e636c732d73756e332d312c202e636c732d73756e332d322c202e636c732d73756e332d332c202e636c732d73756e332d342c202e636c732d73756e332d352c202e636c732d73756e332d367b7374726f6b652d77696474683a203070783b7d2e636c732d73756e332d327b66696c6c3a20236634623930613b7d2e636c732d73756e332d337b66696c6c3a20233364323930383b7d2e636c732d73756e332d347b66696c6c3a20236430383530643b7d2e636c732d73756e332d357b66696c6c3a20236566396631313b7d2e636c732d73756e332d367b66696c6c3a20236636636536613b7d3c2f7374796c653e203c6c696e6561724772616469656e742069643d226c696e6561722d6772616469656e742d73756e33222078313d2238312e3231222079313d223132382e3634222078323d2238332e3837222079323d223135322e323522206772616469656e74556e6974733d227573657253706163654f6e557365223e203c73746f70206f66667365743d2230222073746f702d636f6c6f723d2223656439633130222f3e203c73746f70206f66667365743d2231222073746f702d636f6c6f723d2223663462623062222f3e203c2f6c696e6561724772616469656e743e203c2f646566733e203c673e203c7061746820636c6173733d22636c732d73756e332d312220643d224d36342e33332c3132342e386331302e33342c342e37342c32322e32332c342e30312c33332e30322c312e32362c312e35362c31312e31322d372e33382c31342e35352d31312e34332c32312e37312d342e32362c372e35352d312e33382c31382e31372d362e35312c31342e39372d332e33342d322e30392c312e31332d362e34352d312e34392d31332e362d322e35312d362e38372d31312e37332d382e30372d31332e362d32342e33345a222f3e203c673e203c7061746820636c6173733d22636c732d73756e332d322220643d224d39392e31382c33312e37396c2d2e34362e3639632d2e31352d312e36332d312e35392d342e39312d332e33312d352e30332d2e332d2e30322d342e39312c312e33382d352e37312c312e362d372e36322e37382d31352e30322c322e35372d32322e35312c342e31312c312e32372d352e32342c382e38382d31302e37372c31312e36352d31352e34332c352e34332d392e312e38342d31372e32312c352e31342d31372e37312c352e30372d2e35392c312e37322c372e39312c322e31372c31322e39312e37362c382e35362c392e332c31302e33372c31332e30332c31382e38355a222f3e203c7061746820636c6173733d22636c732d73756e332d352220643d224d39382e37322c33322e3438632e31352c312e35392d312e39392c332e36332d322e342c352e34382c392e33332c322e34332c31372e332c382e33352c32332e33312c31352e37372c312e30332d2e392c332e35352e31322c342d312e33372e30352d2e31352e30352d312e38382c302d322e3036682e3436632e30322e36312e33352c322e372e31312c322e39376c2d342e382e3931632d31322e35332d31362e332d33322e35372d32302e38332d35312e38372d31352e30382d2e38322d322e31342d2e38382d332e37342d2e33342d352e39342c372e34392d312e35342c31342e38382d332e33332c32322e35312d342e31312e382d2e32322c352e34322d312e36322c352e37312d312e362c312e37332e31322c332e31362c332e342c332e33312c352e30335a222f3e203c2f673e203c673e203c7061746820636c6173733d22636c732d73756e332d322220643d224d3133312e31372c3130322e3634632d2e37352d2e39322c312e39342d2e36362c332e37372d312e33372e32392d332e37352e372d32332e31372e31312d32342e35372d2e32322d2e35322d312e32362d2e35352d312e31342d312e32362c332e37362c322e30312c382e39362c372e31322c31322e39312c382e39312c372e33392c332e33352c31342e362e33312c31362e31312c342c322e30362c352e30322d372e35392c322e38312d31342e35312c352e38332d342e34362c312e39342d382e33342c372e33332d31372e32352c382e34365a222f3e203c7061746820636c6173733d22636c732d73756e332d352220643d224d3133332e39312c37352e3434632d2e31322e37312e39332e37342c312e31342c312e32362e35382c312e342e31382c32302e38322d2e31312c32342e35372d312e38332e37312d342e35322e34352d332e37372c312e33372d322e31372e32372d342e33342e32352d362e35312e32332c342d392e30362c352e35382d31392e34362c332e33312d32392e33366c2e33342d2e333463312e38392e37342c332e382c312e33322c352e362c322e32395a222f3e203c2f673e203c673e203c673e203c7061746820636c6173733d22636c732d73756e332d322220643d224d33302e31362c36362e33632d312e32362c332e32332d312e30312c372e34382d312e362c31312e30382d2e37362c342e36322d322e30362c392e33392d332e322c31332e39342e30352e33312c332e38382c312e39372c342e34362c322e31372c312e38342e36342c352e36372e39352c332e37372c312e33372d352e30322d2e38382d31362e33372d362e32392d32302e34352d392e33372d332e38372d322e39322d382e39322d392e38392d31332e31342d31332e362e38362d372e32362c352e38362d312e32352c392e32362d2e31312c382e362c322e38382c31352e33362d332e37322c32302e39312d352e34385a222f3e203c7061746820636c6173733d22636c732d73756e332d352220643d224d33332e35392c39342e383763312e392d2e34322d312e39332d2e37332d332e37372d312e33372d2e35372d2e322d342e34312d312e38362d342e34362d322e31372c312e31342d342e35352c322e34342d392e33322c332e322d31332e39342e35392d332e362e33342d372e38362c312e362d31312e30382c322e39312d2e39322c352e36342d312e33312c382e36382d2e35372d332e37312c392e342d342e30382c31392e36382d312e38332c32392e34382d2e33392e34382d322e38352d2e32342d332e34332d2e33345a222f3e203c2f673e203c673e203c7061746820636c6173733d22636c732d73756e332d322220643d224d33322e39312c35362e3032632d332c332e33312d372e31352c362e33332d31302e31372c392e33372d2e33322e33322d2e34322e342d2e33342e39312d322e30352d332e38312d342e35352d31302e39342d352e34382d31322e34352d312e35382d322e35382d382e30372d352e39322d332e37372d382e35372c342e30392d322e35332c332e33382c352e30392c392e362c382e36382c332e36352c322e31312c362e33332c312e38352c31302e31372c322e30365a222f3e203c7061746820636c6173733d22636c732d73756e332d342220643d224d32322e342c36362e33632d2e30382d2e35312e30332d2e362e33342d2e39312c332e30322d332e30342c372e31362d362e30362c31302e31372d392e33372c322e36312e31342c352e32372d2e312c372e38382c302c332e34312c332e39382e37392c332e33362d312e362c392e31342d362e35392d2e39322d392e392e31332d31352e33312c332e36362d2e37342d2e30342d312e322d312e39392d312e34392d322e35315a222f3e203c2f673e203c2f673e203c673e203c7061746820636c6173733d22636c732d73756e332d322220643d224d36332e35332c3132382e3931632e31392d2e31352e34312e30372e36392d2e36392c302c2e30342e33342d2e31322e32332e382d2e34352c312e30362d31342e30342c342e38382d31372e34382c362e39372d362e38342c342e31362d372e31312c31332e31392d31322e31312c31312e34332d352e31382d312e38322c312e34382d372e32372c322e38362d392e32362c362e33342d392e31352c342e31342d31352e38392c342e382d32312e38322d312e342c332e37352c31362e37372c31332e352c31372e39342c31332e37312e37392e31342c322e34322d2e36322c332e30392d312e31345a222f3e203c7061746820636c6173733d22636c732d73756e332d352220643d224d36342e32312c3132382e3233632d2e32372e37362d2e352e35342d2e36392e36392d332e34342d322e38372d382e30372d342e36322d31312e37372d372e33312d342e34362d332e32352d372e35362d372e322d382d372e35342d2e30362d2e30352d2e33342e30322d2e35372c302c2e33382d312e34362e37382d322e38392c312e37312d342e31312c352e30322c372e382c31382e30332c31332e372c31382e36322c31342e37342e30392e31362e36362c332e31312e36392c332e35345a222f3e203c7061746820636c6173733d22636c732d73756e332d352220643d224d36332e35332c3132382e3931632d2e36362e35322d322e332c312e32392d332e30392c312e31342d312e31372d2e32322d31392e33342d392e39362d31372e39342d31332e37312e30392d2e37392e34392d312e35332e36392d322e32392e32332e30322e35312d2e30352e35372c302c2e34342e33342c332e35342c342e32392c382c372e35342c332e372c322e36392c382e33322c342e34342c31312e37372c372e33315a222f3e203c2f673e203c673e203c7061746820636c6173733d22636c732d73756e332d322220643d224d3133352e35312c37322e37632d2e35372d2e31382d2e36352d2e34342d2e36392d2e34362e36392e31392e34392d322e31382c312e31342d342d312e35322d322e32392d372e31322d31332e34342d382d31342e342d2e35382d2e36332d312e30382d2e30382d312e33372d2e35372c31372e38342d342e31392c31352e34382d31312e31332c31392e37372d31332e37312c322e38312d312e372c362e34322d2e31352c352e31342c322e38362d2e31392e34342d342e35392c342e34312d362e36332c362e38362d382e31342c392e37372d362e37342c31312e38372d392e33372c32332e34325a222f3e203c7061746820636c6173733d22636c732d73756e332d352220643d224d3132362e362c35332e3237632e32392e34392e37392d2e30362c312e33372e35372e38382e39362c362e34372c31322e31312c382c31342e342d2e36352c312e38322d2e34352c342e31392d312e31342c342d362e33382d332e31352d382e31342d31322e382d31302e37342d31362e35372d2e362d2e38372d312e342d2e31362d312e31342d312e37312c312e32312d2e32362c322e34342d2e342c332e36362d2e36395a222f3e203c7061746820636c6173733d22636c732d73756e332d342220643d224d3132322e39342c35332e3936632d2e32362c312e35352e35342e38342c312e31342c312e37312c322e362c332e37372c342e33362c31332e34312c31302e37342c31362e35372e30342e30322e31322e32372e36392e34362d2e31342e36312d2e30372c322e35382d2e35372c322e37346c2d372e322d332e3039632d312e32332d362e33382d332e38372d31322e35382d382d31372e362e30352d2e33352c322e37332d2e372c332e322d2e385a222f3e203c2f673e203c673e203c7061746820636c6173733d22636c732d73756e332d322220643d224d34322e30352c3131332e3135632e32312e34332e32362e37392e36392e36392d2e31382e32382d2e32362e36362d2e33342e36392d31342e37372d352e312d32332e332c372e33322d32352e35392c382e32332d322e33372e39342d342e39382d312e312d342e32332d322e36332e34382d2e39382c31332e32352d31302e39372c31342e38352d31332e34382c312e35322d322e37372c322d362e32322c332e322d392e30336c2d2e34362c322e3463322e30392c322e32322c362e38392c31312e37342c382e382c31322e39312e35332e33322c332e36362c312e33352c332e30392e32335a222f3e203c7061746820636c6173733d22636c732d73756e332d352220643d224d34322e37332c3131332e3833632d2e34332e31312d2e34382d2e32352d2e36392d2e36392d342e362d392e36372d31302e30342d31362e32382d31302e32382d31372e32352d2e30382d2e332e33342d2e34322e32332d2e386c352e34382c312e303363312e34382c342e38342c342e30312c392e32382c372e30382c31332e32352d2e39312c312e31382d312e35372c342e30342d312e38332c342e34365a222f3e203c7061746820636c6173733d22636c732d73756e332d352220643d224d34322e30352c3131332e3135632e35382c312e31322d322e35362e30392d332e30392d2e32332d312e392d312e31372d362e37312d31302e36392d382e382d31322e39316c2e34362d322e34632e32312d2e34392e39362d322e34322c312e33372d322e35312e31312e33382d2e332e352d2e32332e382e32352e39382c352e36382c372e35392c31302e32382c31372e32355a222f3e203c2f673e203c673e203c7061746820636c6173733d22636c732d73756e332d322220643d224d3133302e30332c3131322e32336c2d2e35372d2e34362c322e38362d2e353763312e392d332e37322c372e33342d372e34382c382e34362d31312e33312c352e33312c31352e32322c31342e36312c31302e35332c31322e33342c31352e38382d322c342e37332d382e34322d322e36392d31302e36332d332e37372d342e33382d322e31352d382e30352d2e35342d31322e34352e32335a222f3e203c7061746820636c6173733d22636c732d73756e332d342220643d224d3133352e32382c3130322e343163322e39342e33312d372e30332c352e38312d372e35342c372e322d2e31362e34332e35362c322e32392e31312c322e36332d312e30392e38322d342e33372d362e31322d342e36382d372e30382e39322d322e38322c322e312d312e31332c352e38332d312e362c312e37332d2e32322c342e36342d2e36382c362e32382d312e31345a222f3e203c7061746820636c6173733d22636c732d73756e332d352220643d224d3133302e30332c3131322e3233632d2e36342e31312d332e31362e37332d332e34332e35372d2e34312d322d332e38322d362e34372d332e38382d362e38362d2e31322d2e37312e34342d2e37362e34362d2e382e33322e39372c332e362c372e392c342e36382c372e30382e34352d2e33342d2e32372d322e322d2e31312d322e36332e35312d312e33392c31302e34382d362e38392c372e35342d372e322c312e36382d2e34372c332e39332d312e36342c352e34382d322e35312d312e31312c332e38332d362e35352c372e35392d382e34362c31312e33316c2d322e38362e35372e35372e34365a222f3e203c2f673e203c673e203c7061746820636c6173733d22636c732d73756e332d322220643d224d35392e31392c33342e3939632d312e362c302d332e33392c312e34362d342e39312c322e35312d342e30312c322e37372d31352e31392c31312e36362d31332e33372c31362e39312d312e38342d352e372c312e33352d31322e39352e32332d31392e33312d2e37382d342e34342d372d31352e31362d372e33312d31362e34352d2e36342d322e36352c322e34382d332e34352c342e34362d322e36332c322e35392c312e30372c312e30352c372e37322c372e33312c31332e30332c332e39312c332e33312c382e38362c342e34382c31332e362c352e39345a222f3e203c7061746820636c6173733d22636c732d73756e332d352220643d224d35392e31392c33342e393963312e38352e35372c332e36362e38352c352e34382c312e366c2d352e30332c342e363863312e312e38392d2e38322e36312e32332c312e32362d372e30382c332e39332d31322e33352c392e30372d31362e382c31352e37372d2e39392d312e31312d312e37322d322e34382d322e31372d332e38382d312e38322d352e32352c392e33352d31342e31342c31332e33372d31362e39312c312e35322d312e30352c332e33312d322e35312c342e39312d322e35315a222f3e203c7061746820636c6173733d22636c732d73756e332d342220643d224d35392e38372c34322e3533632d312e30352d2e36352e38372d2e33372d2e32332d312e32366c352e30332d342e3638632e33372e31352c312e35352e31392c312e38332e35372c312e39392c322e36372d312e39392c322e382d362e36332c352e33375a222f3e203c2f673e203c673e203c7061746820636c6173733d22636c732d73756e332d322220643d224d3130312e34362c3132382e3639632d2e30372d2e32362e34352d2e34332e34362d2e3436682e3233632e32382e39382c342e372c322e34352c352e33372c322e32392c322e322d312e39322c342e372d332e35312c362e38362d352e34382c322e30332d312e38362c31302e37342d31312e36392c31302e342d31332e38332d2e30332d2e322d312e32332d322e32362d312e362d322e38362e30332d2e30322e32352e30352e32332d2e32332c312e332c312e38362c322e322c332e34362c322e39372c352e362d2e30332c372e382d2e34342c31372e38372c322e37342c32352e31342e39392c322e32352c352e34392c362e33362c312e32362c382e31312d342e342c312e38322d342e34332d342e30312d362e35312d372e34332d342e35392d372e35332d31352e34342d362e34362d32322e342d31302e38355a222f3e203c7061746820636c6173733d22636c732d73756e332d352220643d224d3132332e342c3130382e3132632e30322e32382d2e322e32312d2e32332e32332d312e32332e38332d352e36392c31342e30352d32312e30322c31392e3838682d2e3233632e30372d2e32312d2e30382d2e36392c302d2e382e34342d2e36332c352e32392d332e36312c342e382d352e362c362e33332d332e36342c31312e37342d392e34372c31352e36352d31352e35342e35352e37312e39372c312e37342c312e30332c312e38335a222f3e203c7061746820636c6173733d22636c732d73756e332d342220643d224d3130362e37322c3132312e3833632e34392c312e39392d342e33362c342e39372d342e382c352e362d2e30382e31312e30372e35392c302c2e382d2e30312e30332d2e35322e322d2e34362e34362d2e35322d2e33332d332e36362d322e35382d332e34332d332e30392c322e38362d312e31392c362d322e32322c382e36382d332e37375a222f3e203c7061746820636c6173733d22636c732d73756e332d352220643d224d3130322e31352c3132382e32336331352e33342d352e38332c31392e382d31392e30352c32312e30322d31392e38382e33372e362c312e35372c322e36362c312e362c322e38362e33352c322e31332d382e33372c31312e39372d31302e342c31332e38332d322e31362c312e39382d342e36352c332e35362d362e38362c352e34382d2e36372e31372d352e30392d312e332d352e33372d322e32395a222f3e203c2f673e203c673e203c7061746820636c6173733d22636c732d73756e332d322220643d224d3132342e30392c35302e33682d2e3436632d2e31352d2e35382d2e31342d2e33312d2e34362d2e36392e33322d2e37312e33342d342e33362e32332d342e36382d2e32382d2e38342d31332e34332d372e38312d31352e322d392e30332d2e37362d2e31312d322e34382e34372d332e35342e36392c352e38342d322e33312c31312e30372d322e37362c31352e35342d372e36362c352e352d362e30322c352e32392d31332e33332c382e35372d31332e38332c382e31322d312e32322d312e38382c31322e38392d332e33312c31362e382d322e30352c352e35392d312e35372c31322e352d312e33372c31382e345a222f3e203c7061746820636c6173733d22636c732d73756e332d342220643d224d3130322e33382c33372e323863352e36332c322e35332c31302e36342c362c31352e37372c392e33372d322e30332d2e30322c332e33392c332e39382c352e34382c352e37312d2e34352c312e34392d322e39372e34372d342c312e33372d362e30312d372e34322d31332e39382d31332e33332d32332e33312d31352e37372e34312d312e38362c322e35352d332e392c322e342d352e34386c2e34362d2e3639632e36332c312e34332c312e32392c332e39392c312e38332c352e366c2e33342e3334632e32372d2e332e36352d2e33372c312e30332d2e34365a222f3e203c7061746820636c6173733d22636c732d73756e332d352220643d224d3132332e31372c34392e3632632d2e36312d2e37312d332e39382d322e32382d352e30332d322e39372d352e31332d332e33372d31302e31342d362e38342d31352e37372d392e33372e37322d2e31372c312e33382d2e352c322e32392d2e36392c312e30362d2e32322c322e37382d2e382c332e35342d2e36392c312e37372c312e32312c31342e39322c382e31392c31352e322c392e30332e31312e33332e30392c332e39372d2e32332c342e36385a222f3e203c7061746820636c6173733d22636c732d73756e332d352220643d224d3131382e31352c34362e363563312e30342e36392c342e34312c322e32362c352e30332c322e39372e33322e33372e332e31312e34362e36392e30352e31382e30352c312e392c302c322e30362d322e312d312e37332d372e35322d352e37332d352e34382d352e37315a222f3e203c2f673e203c673e203c7061746820636c6173733d22636c732d73756e332d362220643d224d37392e36342c33372e32386333382e36382d322e32392c35382e35372c33372e33342c34332e39392c36352e372d31322e31312c32332e35352d34332e34322c33312e39342d36352e372c31372e37312d34302e34312d32352e382d31392e32372d38302e39382c32312e37312d38332e34315a222f3e203c673e203c7061746820636c6173733d22636c732d73756e332d332220643d224d37382e37332c34362e31396333322e31342d322e35362c35312e37362c33332e36362c33342e36322c35372e372d31352e33322c32312e34392d34392e38342c31392e33342d36332e332d322e35312d31342e31332d32322e39342c322e322d35332e30382c32382e36382d35352e31395a222f3e203c7061746820636c6173733d22636c732d73756e332d322220643d224d37382e37332c34362e36356333312e35372d322e36322c35312e38342c33332e39342c33332e34382c35372e39332d31352e34392c32302e32342d34382e39322c31372e382d36312e39332d332e38382d31332e35322d32322e35342c322e36322d35312e392c32382e34352d35342e30355a222f3e203c2f673e203c2f673e203c2f673e203c2f673ea2646970667358221220b7a73b5b6f7921ffaa0afa747c19fda1cb9976c90e09b743c5e3827febf121f764736f6c63430008140033",
  "devdoc": {
    "kind": "dev",
    "methods": {},
    "version": 1
  },
  "userdoc": {
    "kind": "user",
    "methods": {},
    "version": 1
  },
  "storageLayout": {
    "storage": [],
    "types": null
  }
}