{
  "address": "0x6b14E61Ca92b271D8382812c4De86e1e5110d775",
  "abi": [
    {
      "inputs": [],
      "name": "render",
      "outputs": [
        {
          "internalType": "string",
          "name": "",
          "type": "string"
        }
      ],
      "stateMutability": "pure",
      "type": "function"
    }
  ],
  "transactionHash": "0xb27adf3468012ca0b8fd0003ddd14c0b208bd8d61bcfc0df7fd1713296986256",
  "args": [],
  "numDeployments": 1,
  "solcInputHash": "3c1ac1253e82eb65cb563e1effcd5f60",
  "bytecode": "0x608060405234801561001057600080fd5b5061215e806100206000396000f3fe608060405234801561001057600080fd5b506004361061002b5760003560e01c8063d607497a14610030575b600080fd5b61003861004e565b6040516100459190610071565b60405180910390f35b6060604051806120a0016040528061206981526020016100c06120699139905090565b600060208083528351808285015260005b8181101561009e57858101830151858201604001528201610082565b506000604082860101526040601f19601f830116850101925050509291505056fe3c67207472616e73666f726d3d227472616e736c617465283735302c31303029223e203c646566733e203c7374796c653e2e636c732d73756e312d317b66696c6c3a2075726c28236c696e6561722d6772616469656e742d73756e31293b7d2e636c732d73756e312d312c202e636c732d73756e312d322c202e636c732d73756e312d332c202e636c732d73756e312d342c202e636c732d73756e312d352c202e636c732d73756e312d362c202e636c732d73756e312d372c202e636c732d73756e312d382c202e636c732d73756e312d392c202e636c732d73756e312d31302c202e636c732d73756e312d31312c202e636c732d73756e312d31322c202e636c732d73756e312d31332c202e636c732d73756e312d31347b7374726f6b652d77696474683a203070783b7d2e636c732d73756e312d327b66696c6c3a20236335366137643b7d2e636c732d73756e312d337b66696c6c3a20236462626137643b7d2e636c732d73756e312d347b66696c6c3a20236463636162333b7d2e636c732d73756e312d357b66696c6c3a20236437373034373b7d2e636c732d73756e312d367b66696c6c3a20236237353437303b7d2e636c732d73756e312d377b66696c6c3a20233966343635393b7d2e636c732d73756e312d387b66696c6c3a20233332326433343b7d2e636c732d73756e312d397b66696c6c3a20236535643663633b7d2e636c732d73756e312d31307b66696c6c3a20236535616233663b7d2e636c732d73756e312d31317b66696c6c3a20236661656662663b7d2e636c732d73756e312d31327b66696c6c3a20236536386433373b7d2e636c732d73756e312d31337b66696c6c3a20236565653563623b7d2e636c732d73756e312d31347b66696c6c3a20236537636261323b7d3c2f7374796c653e203c6c696e6561724772616469656e742069643d226c696e6561722d6772616469656e742d73756e31222078313d223133322e3931222079313d2233352e3831222078323d223132312e3435222079323d2233392e333422206772616469656e74556e6974733d227573657253706163654f6e557365223e203c73746f70206f66667365743d2230222073746f702d636f6c6f723d2223646363656265222f3e203c73746f70206f66667365743d2231222073746f702d636f6c6f723d2223636461643664222f3e203c2f6c696e6561724772616469656e743e203c2f646566733e203c673e203c7061746820636c6173733d22636c732d73756e312d312220643d224d3134332e39362c32342e3633632d312e35322c312e39332d332e34382c332e35382d342e382c352e36372d392e33352c362e342d382e36312c31372e32312d31352e35382c31352e32362d2e342d312e32372d2e39352d2e37372d312e30392d2e38372d332e312d322e31312d332e34372d372e392d342e33362d382e32382d312e38342d2e30362d342e33322c312e382d352e37382c312e33312c31302e322d352e31362c32312e30372d382e372c33312e362d31332e30385a222f3e203c673e203c7061746820636c6173733d22636c732d73756e312d342220643d224d32352e36312c38382e3237632d372e36392c342e33362d392e36382c312e33352d31372e33332c302d322e32362d2e342d342e38342d2e32372d372e30382d2e38372c352e35382d322e33332c31312e33392d332e36342c31372d362e37362d2e30352c322c322e32322c342e31362c332e38312c352e32332c322e33332c312e35362c332e39312e382c332e362c322e345a222f3e203c7061746820636c6173733d22636c732d73756e312d332220643d224d32352e36312c38382e3237632e33322d312e35392d312e32372d2e38332d332e362d322e342d312e35392d312e30372d332e38372d332e32332d332e38312d352e32332c322e39352d312e36342c362e30362d332e39392c382e32382d362e35342e35362c362e33342c312e34382c362e35342c352e32332c31312e30312d332e37312e342d342e33372c322e31382d362e312c332e31365a222f3e203c2f673e203c673e203c7061746820636c6173733d22636c732d73756e312d342220643d224d3136362e322c38362e3735632d392e39322e38392d31362e37352c372e31312d32332e35342c332e32372c332e31332d312e34312c31342e34342d352e33362c31322e36342d372e38352c332e35312c312e38312c372e32322c332e31352c31302e392c342e35385a222f3e203c7061746820636c6173733d22636c732d73756e312d332220643d224d3135352e332c38322e313763312e382c322e34392d392e35312c362e34342d31322e36342c372e38352d372e34382d342e32322c332d342e33372c382e30362d31302e34362c312e34382e39322c332e30332c312e38322c342e35382c322e36325a222f3e203c2f673e203c7061746820636c6173733d22636c732d73756e312d392220643d224d3135302e39342c36322e35366c2d31342e39332d332e39322d2e37362d2e3333632d2e31312d2e34362e32342d2e36312e32322d2e37366832322e3132632d312e39352c312e39392d342e35312c332e32382d362e36352c352e30315a222f3e203c7061746820636c6173733d22636c732d73756e312d342220643d224d3134342e36322c3130392e383563342e30342c322e39312c382e35392c352e32352c31322e36342c382e31372d2e32372e34342d362e30362d2e312d362e39372d2e31316c2d31332e37332d392e30352c382e30362e39385a222f3e203c7061746820636c6173733d22636c732d73756e312d392220643d224d33332e30322c35372e3736632e35332e31362d2e32382e34352d2e36352e36352d322e33382c312e33312d31302e34382c332e30322d31332e37332c332e39322d2e36352d2e35372d352e32322d342e30322d352e33342d342e33366c2e32322d2e34342c31392e35312e32325a222f3e203c673e203c673e203c7061746820636c6173733d22636c732d73756e312d332220643d224d34342e31342c3133362e3838632d322e38342d312e30352d352e382c342e32352d31312e37372e34342c312e35342d352e39352c322e30352d31322e32312c322e36322d31382e33312e312e30312c312e36362d2e31372c322e30372d2e32326c312e30392e343463312e31342c312e33392c332e39322c322e38382c342e392c342e34372c322e30392c332e33362c322e31362c392e35342c312e30392c31332e31395a222f3e203c7061746820636c6173733d22636c732d73756e312d342220643d224d34342e31342c3133362e3838632d312e31372c342e30312d332e38362c352e31352d372e332c372e31392d322e30312c312e31392d362e38342c322e39312d372e332c342e31342d2e33342e30392d312e37372e36322d312e39362e33332c322e32382d332e33352c332e37382d372e33322c342e382d31312e32332c352e39372c332e38312c382e39332d312e34382c31312e37372d2e34345a222f3e203c2f673e203c673e203c7061746820636c6173733d22636c732d73756e312d342220643d224d33342e33332c3130372e3839632d2e33352c352e37342d31302e33312c382e31362d31342e33392c31302e36382d332e30372e30342d362e322e32352d392e32362e34342e33382d2e362c312e39352d312e30372c322e37322d312e35332c312e35352c312e30362c312e31382e35392c322e31382c302c2e36382e39342c312e38312e38392c322e39342e34342e36322d2e32352c392e36382d362e39342c31302e34362d382e32386c352e33342d312e37345a222f3e203c7061746820636c6173733d22636c732d73756e312d31342220643d224d33342e33332c3130372e38396c2d352e33342c312e3734632d2e37382c312e33342d392e38342c382e30332d31302e34362c382e32382d312e31342e34352d322e32362e35312d322e39342d2e34342c312e342d2e38322c31312e31362d372e38382c31302e392d392e35392e33332d2e33312e34322d2e322e34342d2e32322c332e34312c312e34352c372e36322d332e32342c372e34312e32325a222f3e203c7061746820636c6173733d22636c732d73756e312d31332220643d224d31352e35382c3131372e3438632d312c2e35392d2e36332c312e30362d322e31382c302c342e33352d322e35352c392e34342d362e312c31332e30382d392e35392e32362c312e37312d392e352c382e37372d31302e392c392e35395a222f3e203c2f673e203c2f673e203c7061746820636c6173733d22636c732d73756e312d342220643d224d38302e37362c32382e3132632d312e37352d2e31362d2e35362d342e30342d332e31362d352e30312d312e30362d2e342d352e32312d2e31332d352e34352c302d2e33392e32312d342e31332c362e33362d352e32332c372e31392d312e34352c312e30392d352e38342c312e38392d372e36332c322e36322d312e31322e34352d312e30312c312e342d322e36322c312e30396c2d2e39382c312e3533632e36322d362e35382e322d31332e32352e35342d31392e38336c31302e36382c31332e373363332e32352d332e31392c382e31392d31332e31322c392e32362d31342e34392e31382d2e32322e362d2e30352e36352d2e31312e33362d2e33392e39342d2e37382c302d2e38372e32372d2e36392c362e33352d31322e36372c362e37362d31332e332e36322c322e30342c312e30392c352e34352c312e33312c372e37342e37322c372e37352c312e32332c31332e352d342e31342c31392e37335a222f3e203c7061746820636c6173733d22636c732d73756e312d332220643d224d38302e37362c32382e3132632d342e32392c342e39372d31312e32372c372e37342d31362e36372c31312e33332d2e37392d2e32372d322e31322e352d322e38332e36352d2e33372e30382d332e31362d2e352d352e30312e38372d322e39362e30392d31322e35342e35322d31342e31372e38372d2e33362e30382d2e38342e37322d312e322e38372d2e36342d322e31312d312e36362d342e30332d322e342d362e312e37352d312e34312c342e34352d2e31382c352e32332d312e30392c322e38372e38342c352e36392c312e36372c382e37322c312e37342c312e30362e32372c322e31312e35362c332e31362e38372e32342d2e31372e30372d322e31352e31312d322e36326c2e39382d312e353363312e362e33312c312e352d2e36342c322e36322d312e30392c312e37392d2e37332c362e31382d312e35322c372e36332d322e36322c312e312d2e38332c342e38342d362e39382c352e32332d372e31392e32342d2e31332c342e33382d2e342c352e34352c302c322e362e39372c312e34322c342e38352c332e31362c352e30315a222f3e203c673e203c7061746820636c6173733d22636c732d73756e312d342220643d224d32372e33352c32362e313663322e32352c312e33352c342e34312c322e37332c362e37362c332e39322d2e352e352e33392e35342c312e35332c312e322d2e37352c312e35352c342c322e38332c352e34352c332e33382d332e31322c312e33352d332e35362d2e37312d322e36322c312e39362e37332c322e30372c312e37352c332e39392c322e342c362e312e37382c322e35362c312e34392c342e36362c312e30392c372e34312d2e342d312e30362d332e36322d312e32322d332e30352d322e30372e312d2e31352c312e31372d2e312c312e30392d2e34342d2e30392d2e33372d362e32342d322e33352d372e31392d2e35342d2e35342d352e372d312e34352d31312e33382d332e37312d31362e36372d312e37352d342e312d332e38322d352e34392d312e37342d342e32355a222f3e203c7061746820636c6173733d22636c732d73756e312d332220643d224d34312e39362c35302e3133632d2e30352e33352d2e31382c312e37372d2e32322c312e38352d2e36352c312e34322d352e362c352e33312d372e39362c342e392d2e30392c312e32322d2e39392c322e30372d312e34322c312e35332e33372d2e32312c312e31382d2e34392e36352d2e36352e36342d322e30392e30322d382e31392d2e32322d31302e36382e39352d312e382c372e312e31372c372e31392e35342e30382e33332d2e39392e32392d312e30392e34342d2e35362e38352c322e36352c312e30312c332e30352c322e30375a222f3e203c7061746820636c6173733d22636c732d73756e312d392220643d224d35322e34322c33372e3237632d332e30332d2e30372d352e38352d2e39312d382e37322d312e37342d2e39342d2e32372d312e372d2e35332d322e36322d2e38372d312e34352d2e35342d362e322d312e38332d352e34352d332e33382d312e31342d2e36362d322e30332d2e372d312e35332d312e322c342e392c322e34392c31332e30372c352e38342c31382e33312c372e31395a222f3e203c2f673e203c7061746820636c6173733d22636c732d73756e312d31312220643d224d3131322e31342c31332e3531632d332e30362c332e30372d392e31312c31322e34342d31322e36342c31342e33392c322e32392d322e33322c31312e32382d31342e372c31312e39392d31352e33372e39342d2e38382e35352d2e36332e36352e39385a222f3e203c7061746820636c6173733d22636c732d73756e312d342220643d224d37362e38332c31342e3832632d2e33372d2e35312d2e31362d2e34382c302d2e38372e39342e30392e33362e34382c302c2e38375a222f3e203c7061746820636c6173733d22636c732d73756e312d342220643d224d34332e372c33352e3533632d2e37392e39312d342e34382d2e33332d352e32332c312e30392d2e39352d322e36372d2e35312d2e36312c322e36322d312e39362e39312e33342c312e36382e362c322e36322e38375a222f3e203c673e203c7061746820636c6173733d22636c732d73756e312d31302220643d224d39392e352c32372e3963332e35332d312e39342c392e35382d31312e33322c31322e36342d31342e33392e32392c342e36372d2e35382c32332e32392e32322c32342e31392c312e34362e34392c332e39342d312e33372c352e37382d312e33312e38392e33382c312e32362c362e31382c342e33362c382e32382e31342e312e36392d2e342c312e30392e38372c362e39372c312e39352c362e32332d382e38362c31352e35382d31352e32362d332e31362c352e30322d342e372c32312e34392d332e37312c32372e32352e30332e31352d2e33332e332d2e32322e37366c2e37362e33332c31342e39332c332e3932632d332e34382c322e38332d362e36352c362e31322d31302e32342c382e38332c322e39362c332e31352c362e33362c352e38392c31302e30332c382e31372d352e30372c362e30392d31352e35342c362e32342d382e30362c31302e34362c362e37392c332e38342c31332e36322d322e33382c32332e35342d332e32372e36372e32362c312e33352e35362c322e30372e3635762e3434632d31302e32372c342e36322d31372e39342c31332e34332d32382e32332c31382e322d2e312e32382c342e30362c332e34342c342e35382c332e38316c2d382e30362d2e39382c31332e37332c392e3035632d312e37312d2e30322d31342e39332d2e33362d31352e32362e33332e34392c392e37392c322e32332c31392e34392c352e37382c32382e36362d392e31332d342e35322d31382e37332d382d32372e36382d31322e38366c2d2e31312c32342e35322d31332e342d31342e3439712d372e36332c31352e32362d31352e32362c33302e3531632d352e31392d392e33362d31302e30322d31382e39342d31352e39312d32372e39712d352e38332c372e33362d31312e36362c31342e37316c2d2e33332d32352e3631632d372e31362c372e34372d31372e32362c392e392d32362e39322c31322e34322e34362d312e32332c352e332d322e39352c372e332d342e31342c332e34342d322e30342c362e31332d332e31382c372e332d372e31392c312e30372d332e36342c312d392e38332d312e30392d31332e31392d2e39392d312e35382d332e37372d332e30382d342e392d342e34376c2d312e30392d2e3434632d2e34312e30352d312e39372e32332d322e30372e32322d2e30322c302c2e30372d2e34322d2e31312d2e34342d322e35362d2e32332d31312e332d2e30352d31342e39332c302c342e30382d322e35322c31342e30342d342e39342c31342e33392d31302e36382e32312d332e34362d342c312e32332d372e34312d2e32322e32322d2e32322c312e35312d312e35382c312e34322d312e37342d31302e30362d352e31312d31382e37382d31322e36352d32382e33342d31382e33312e34332d2e31312c312e31322d2e31392c312e322d2e32322c322e32342e362c342e38332e34372c372e30382e38372c372e36352c312e33352c392e36342c342e33362c31372e33332c302c312e37332d2e39382c322e33392d322e37362c362e312d332e31362d332e37352d342e34372d342e36372d342e36372d352e32332d31312e30312e37362d2e38372c312e34332d312e38342c322e31382d322e37322d332e33342d332d362e36352d362e30382d31302e30332d392e30352c332e32352d2e392c31312e33352d322e36312c31332e37332d332e39322e34332e35342c312e33332d2e332c312e34322d312e35332c322e33362e34312c372e33312d332e34392c372e39362d342e392e30342d2e30382e31372d312e352e32322d312e38352e342d322e37352d2e33312d342e38352d312e30392d372e34312e33362d2e31352e38342d2e37392c312e322d2e38372c312e36332d2e33362c31312e322d2e37382c31342e31372d2e38372c312e38362d312e33372c342e36342d2e37392c352e30312d2e38372e37322d2e31362c322e30342d2e39322c322e38332d2e36352c352e342d332e35392c31322e33382d362e33362c31362e36372d31312e33332c352e33372d362e32332c342e38362d31312e39382c342e31342d31392e37332d2e32312d322e32392d2e36392d352e372d312e33312d372e37342e30322d2e30342d2e31312d2e33362e33332d2e36356c2e33332e333363332e39322c392e38372c31302e32382c31382e35362c31342e34392c32382e32332e32342d2e32352e34352d2e34382e37362d2e36355a222f3e203c673e203c7061746820636c6173733d22636c732d73756e312d31322220643d224d38312e30382c33352e373563392e33352d2e35352c31382e38362c322e36362c32362e38312c372e34312c31382e34382c31312e30332c32382e35342c33332e33332c32332c35342e33382d312e312c312e38352d312e30322c332e37322d312e30392c332e39322d362e37382c32302e33342d32382e39322c33382e35312d35312e31312c33352e36342d382e33392d312e30392d31382e38372d372e36322d32352e30372d31332e332d31322e39362d31312e38362d32302e34352d32372e36362d31372e35352d34352e34356c2e36352d2e3232632d312e30332d312e36322e392d312e38312d2e32322d322e31382c312e32392d2e39322e34312d312e34332e34342d312e35332c312e37372d362e39362c362e37332d31362e36352c31312e35352d32322e30312c372e33322d382e31352c32312e35392d31362e30332c33322e35392d31362e36375a222f3e203c7061746820636c6173733d22636c732d73756e312d382220643d224d37392e37372c34312e31396331382e32342d312e34312c33362e34342c382e33322c34342e37392c32342e37342c392e39342c31392e35352c342e32342c34322e32332d31322e39372c35352e34372d32302e352c31352e37372d34362e38362c31322e38352d36332e312d372e332d32352e33342d33312e34352e38382d37302e35362c33312e32382d37322e39315a222f3e203c673e203c7061746820636c6173733d22636c732d73756e312d362220643d224d39322e37342c34382e333963342e32362c322e38322c332e32372d2e32372c312e35332c352e30312d31322e38372d342e38322d32342d312e34352d33332e33352c382e30362d372e33382c372e35312d31302e362c31352e31322d31302e36382c32352e37322d2e30372c392e31332c322e352c31362e32362c382e352c32332e32312c31352e33342c31372e37372c33382e33322c31362e382c35312e32322d312e36332c312e38322d312c312e37342c322e322c312e39362c322e37322e33392e39332c312e30392e35322c312e30392c312e34322d33302e38332c33332e33342d37372e33332e39362d36372e33352d33372e33382c352e33382d32302e36382c32362e38382d33312e37322c34372e30382d32372e31345a222f3e203c7061746820636c6173733d22636c732d73756e312d372220643d224d3131332e30312c3131322e3963302d2e392d2e372d2e34392d312e30392d312e34322d2e32322d2e35322d2e31342d332e37332d312e39362d322e37322c342e30392d352e38352c362e35382d31312e39392c362e39372d31392e31382e36362d31312e39312d322e30362d31392e39362d31302e36382d32382e31322d332e362d332e342d372e33312d362e33312d31312e39392d382e30362c312e37352d352e32382c322e37342d322e322d312e35332d352e30312c33302e34322c362e392c34302e35372c34322e35372c32302e32372c36342e35325a222f3e203c673e203c7061746820636c6173733d22636c732d73756e312d352220643d224d3131362e39342c38392e3538632d2e342c372e31392d322e38382c31332e33332d362e39372c31392e31382d31322e39312c31382e34332d33352e38382c31392e342d35312e32322c312e36332d362d362e39352d382e35372d31342e30382d382e352d32332e32317133332e31382d2e31312c36362e33372d2e32326c2e33332c322e36325a222f3e203c7061746820636c6173733d22636c732d73756e312d352220643d224d3130362e32362c36312e343763382e36322c382e31362c31312e33342c31362e32312c31302e36382c32382e31326c2d2e33332d322e3632712d33332e31382e31312d36362e33372e3232632e30382d31302e35392c332e332d31382e32312c31302e36382d32352e37326834352e33345a222f3e203c2f673e203c7061746820636c6173733d22636c732d73756e312d322220643d224d39342e32372c35332e3463342e36382c312e37352c382e33392c342e36362c31312e39392c382e3036682d34352e333463392e33352d392e35312c32302e34382d31322e38382c33332e33352d382e30365a222f3e203c2f673e203c2f673e203c2f673e203c2f673e203c2f673ea26469706673582212207ba6d6b514f1e541d9c1af98e9b20a64deee7fa818cb4d507fd53c3c39d0a55064736f6c63430008140033",
  "devdoc": {
    "kind": "dev",
    "methods": {},
    "version": 1
  },
  "userdoc": {
    "kind": "user",
    "methods": {},
    "version": 1
  },
  "storageLayout": {
    "storage": [],
    "types": null
  }
}